:020000040800F2
:1000000000280020E91F0008B91E0008BF1E0008D4
:10001000C51E0008CB1E0008D11E0008000000000D
:10002000000000000000000000000000D71E0008D3
:10003000E31E000800000000EF1E0008FB1E000881
:10004000312000083120000831200008312000084C
:10005000312000083120000831200008312000083C
:10006000312000083120000831200008312000082C
:10007000312000083120000831200008312000081C
:10008000312000083120000831200008312000080C
:1000900031200008312000083120000831200008FC
:1000A00031200008312000083120000831200008EC
:1000B000091F00083120000800000000312000085E
:1000C000312000080000000000000000312000087E
:1000D000000000003120000831200008000000006E
:1000E0003120000831200008312000080000000005
:1000F0000000000000000000000000000000000000
:0C01000000000000000000005FF808F1A3
:10010C0010B5054C237833B9044B13B10448AFF345
:10011C0000800123237010BD10000020000000009F
:10012C006036000808B5034B1BB103490348AFF315
:10013C00008008BD0000000014000020603600089C
:10014C0080B500AF01F0B6F80346012B11D1224B5C
:10015C001B68022B0DD1214B01221A60204B00226F
:10016C001A60204B00221A601F4B1B681F4A136039
:10017C0030E001F09FF80346012B11D1164B1B68A0
:10018C00032B0DD1154B00221A60154B01221A605E
:10019C00144B00221A60144B1B68144A136019E0AC
:1001AC0001F088F80346012B14D10B4B1B68042B70
:1001BC0010D10F4B01221A60084B00221A60084B19
:1001CC0000221A60074B01221A60074B1B68074A72
:1001DC001360FFE700BF80BD5800002034000020F2
:1001EC00380000203C0000205C0000204000002073
:1001FC003000002080B500AF1A4B1B68012B02D1D8
:10020C00194B00221A60174B1B68022B08D1174B95
:10021C001B68002B04D1164B0B221A6001F03EFC1C
:10022C00104B1B68032B0BD1104B00221A60114B87
:10023C001B68002B04D10E4B0C221A6001F02EFC13
:10024C00084B1B68042B0BD10A4B00221A60064B7F
:10025C001B68002B04D1064B0D221A6001F01EFC0A
:10026C0000BF80BD580000203C000020340000205E
:10027C00440000203800002080B500AF354B1B68CF
:10028C00012B37D1344B00221A60344B1B68012BE5
:10029C0030D1324B00221A60314B02221A6041F2EB
:1002AC008831002001F03AFE6421022001F036FE74
:1002BC002C4B1B682C4A82FB03125211DB17D31AEE
:1002CC002A4A13602A4B06221A6040F6B8310120E4
:1002DC0001F024FE6421032001F020FE214B5B6819
:1002EC00214A82FB03125211DB17D31A214A1360E5
:1002FC0001F0D4FB174B1B68022B08D11E4B1B685B
:10030C00002B04D11A4B0B221A6001F0C7FB114BC6
:10031C001B68032B0BD1184B00221A60174B1B6860
:10032C00002B04D1124B0C221A6001F0B7FB094BC5
:10033C001B68042B0BD1114B00221A60064B1B6857
:10034C00002B04D10A4B0D221A6001F0A7FB00BF51
:10035C0080BD00BF580000203C0000203000002071
:10036C0044000020CC0000201F85EB514C000020E5
:10037C0048000020500000203400002038000020ED
:10038C0080B500AF4E4B9B68012B18D14D4B1B68B1
:10039C00013B4C4A13604B4B1B68002B0ADC4A4B4D
:1003AC001B684A4A82FB03125211DB17D31A013322
:1003BC00444A13604FF47A71022001F0AFFD404BB8
:1003CC00DB68012B18D1424B1B68013B404A136080
:1003DC003F4B1B68002B0ADC3B4B5B683B4A82FBA8
:1003EC0003125211DB17D31A0133394A13604FF43D
:1003FC007A71032001F092FD314B9B69012B5DD189
:10040C00344B1B68002B0BD1314B1B68324A82FBDF
:10041C0003129210DB17D31A184601F039F838E0A2
:10042C002C4B1B68012B10D1294B1A682A4B83FBD0
:10043C0002139910D317C91A0B469B000B445B008F
:10044C00D11A084601F024F823E0224B1B68022B3A
:10045C000BD11C4B1B68204A82FB03129210DB173A
:10046C00D31A184601F014F813E01A4B1B68032B2F
:10047C000FD1144B1A68184B83FB02139910D31726
:10048C00C91A0B469B000B445B00D11A084600F0BE
:10049C00FFFF104B1B68184601F0C0F90D4B1B6891
:1004AC0001330C4A13600B4B1B68042B02DD094B08
:1004BC0000221A60FA21062001F030FD00BF80BD39
:1004CC00F40000204C000020CC0000201F85EB51D4
:1004DC00500000202C0000206766666680B500AFD7
:1004EC00284B9B69012B4AD1274B1B68184601F0FE
:1004FC0095F9254B1B68002B03D1002000F0C8FF99
:10050C002DE0214B1B68012B05D1204B1B68184695
:10051C0000F0BEFF23E01C4B1B68022B0BD11C4BC5
:10052C001B681C4A82FB03129210DB17D31A184665
:10053C0000F0AEFF13E0144B1B68032B0FD1144BD0
:10054C001A68144B83FB02139910D317C91A0B4664
:10055C009B000B445B00D11A084600F099FF0A4B34
:10056C001B680133084A1360074B1B68042B02DD20
:10057C00054B00221A606421062001F0CFFC00BF5D
:10058C0080BD00BFF40000202C000020580000208B
:10059C005C0000206766666680B500AF684B1B6820
:1005AC00013B032B00F2C38001A252F823F000BFE1
:1005BC00CD050008FB05000867060008D1060008F9
:1005CC005F4B02221A6041F28831002001F0A6FC38
:1005DC006421022001F0A2FC5A4B1B685A4A82FB90
:1005EC0003125211DB17D31A584A1360A6E001F01C
:1005FC0093F9FFF7C5FEFFF7A3FDFFF7FBFD544B87
:10060C001B68012B40F09580524B1B68012B19D1B4
:10061C0001F044FA4A4B09221A604F4B1B684FF405
:10062C007A7202FB03F31946002001F077FC454B6C
:10063C001B68454A82FB03125211DB17D31A434A3B
:10064C00136076E001F02AFA3D4B03221A6040F663
:10065C00B831002001F062FC6BE001F089F9FFF782
:10066C008FFEFFF76DFDFFF7C5FD394B1B68012BA6
:10067C0061D13A4B1B68012B19D101F00FFA304BA9
:10068C000A221A60344B1B684FF47A7202FB03F394
:10069C001946002001F042FC2A4B1B682A4A82FBB7
:1006AC0003125211DB17D31A284A136043E001F0EE
:1006BC00F5F9234B04221A604FF4FA61002001F083
:1006CC002DFC38E001F03EF9FFF75AFEFFF738FD3C
:1006DC00FFF790FD1E4B1B68012B2ED1204B1B6886
:1006EC00012B19D101F0DAF9154B08221A601A4BBB
:1006FC001B684FF47A7202FB03F31946002001F0D9
:10070C000DFC104B1B68104A82FB03125211DB17B5
:10071C00D31A0E4A136010E001F0C0F9084B022204
:10072C001A6041F28831002001F0F8FB05E000BFAF
:10073C0004E000BF02E000BF00E000BF00BF80BDCE
:10074C0044000020CC0000201F85EB514C00002001
:10075C00F400002038000020400000203C00002065
:10076C003400002080B500AF694B1B68013B062BA1
:10077C0000F2C58001A252F823F000BFA5070008C3
:10078C000B0900080B0900080B090008D707000823
:10079C003F080008A508000801F02CF95C4B062264
:1007AC001A6040F6B831012001F0B8FB6421032037
:1007BC0001F0B4FB574B5B68574A82FB0312521192
:1007CC00DB17D31A554A1360A0E001F0E7F8FFF7E6
:1007DC00B7FCFFF751FD524B5B68012B40F0918049
:1007EC00504B1B68012B19D101F058F9484B0922C9
:1007FC001A604D4B1B684FF47A7202FB03F31946D7
:10080C00012001F08BFB434B5B68434A82FB0312D4
:10081C005211DB17D31A414A136072E001F03EF912
:10082C003B4B06221A6040F6B831012001F076FBF2
:10083C0067E001F0DFF8FFF783FCFFF71DFD384B95
:10084C005B68012B5FD1374B1B68012B19D101F071
:10085C0025F92F4B0A221A60334B1B684FF47A721E
:10086C0002FB03F31946012001F058FB294B5B688E
:10087C00294A82FB03125211DB17D31A274A136041
:10088C0041E001F00BF9224B07221A604FF4FA6198
:10089C00012001F043FB36E001F096F8FFF750FC25
:1008AC00FFF7EAFC1E4B5B68012B2ED11F4B1B681C
:1008BC00012B19D101F0F2F8154B08221A601A4BD2
:1008CC001B684FF47A7202FB03F31946012001F006
:1008DC0025FB104B5B68104A82FB03125211DB178D
:1008EC00D31A0E4A136010E001F0D8F841F28831A7
:1008FC00012001F013FB064B05221A6005E000BF36
:10090C0004E000BF02E000BF00E000BF00BF80BDFC
:10091C0048000020CC0000201F85EB515000002027
:10092C00F40000203C000020400000203800002093
:10093C0080B500AFA04B1B68083B052B00F205826D
:10094C0001A252F823F000BF0D0A0008370B000873
:10095C00AD0C00086D090008970A0008F10B00089F
:10096C00964B1B69012B06D101F05AF84FF4FA7122
:10097C00042001F0D3FA924B1B68032B04D18E4B4D
:10098C000C221A6001F08AF8FFF7A8FDFFF7D8FBDC
:10099C008C4B1B68012B40F0DA81874B08221A60C4
:1009AC00894B1B684FF47A7202FB03F31946002043
:1009BC0001F0B4FA854B1B68854A82FB0312521175
:1009CC00DB17D31A834A1360834B06221A607E4BC3
:1009DC001B684FF47A7202FB03F3A3F5FA63194612
:1009EC00012001F09BFA794B5B68794A82FB031278
:1009FC005211DB17D31A794A136001F04FF8A6E1B4
:100A0C006F4B1B68022B02D000F086FF0AE06B4B89
:100A1C001B69012B06D101F003F84FF4FA71042085
:100A2C0001F07CFAFFF7E6FBFFF7AAFC634B1B68AF
:100A3C00012B40F08E8101F031F85F4B03221A60DC
:100A4C00604B1B68012B0CD15F4B1B684FF47A7207
:100A5C0002FB03F3A3F5FA631946002001F05EFADA
:100A6C0004E040F6B831002001F058FA0A210220C7
:100A7C0001F054FA554B1B68554A82FB0312521174
:100A8C00DB17D31A534A136063E14C4B1B69012BE0
:100A9C0006D100F0D9FF4FF4FA71042001F03EFAB0
:100AAC00474B1B68042B04D1434B0D221A6000F0FA
:100ABC00F5FFFFF713FDFFF743FB494B1B68012BB9
:100ACC0040F049813C4B08221A603F4B1B684FF4A5
:100ADC007A7202FB03F303F5FA631946002001F066
:100AEC001DFA3A4B1B683A4A82FB03125211DB1770
:100AFC00D31A384A1360384B06221A60324B1B68E3
:100B0C004FF47A7202FB03F31946012001F006FA46
:100B1C002E4B5B682E4A82FB03125211DB17D31A41
:100B2C002E4A136000F0BAFF15E1254B1B68032B0E
:100B3C0002D000F01DFF0AE0204B1B69012B06D1EF
:100B4C004FF4FA71042001F0E9F900F07DFFFFF792
:100B5C0051FBFFF715FC194B1B68012B40F0FD8076
:100B6C0000F09CFF144B04221A60164B1B68012BDF
:100B7C000ED1154B1B68012B0FDC134B1B684FF46C
:100B8C007A7202FB03F31946002001F0C7F904E066
:100B9C004FF4FA61002001F0C1F90A21022001F0A2
:100BAC00BDF90A4B1B680A4A82FB03125211DB1770
:100BBC00D31A084A1360D0E044000020F40000204F
:100BCC00580000203400002040000020CC00002001
:100BDC001F85EB514C0000204800002050000020E5
:100BEC0038000020604B1B69012B06D100F042FF3E
:100BFC004FF4FA71042001F091F95C4B1B68012B46
:100C0C0017D15B4B02221A6041F28831002001F0AF
:100C1C0085F96421022001F081F9564B1B68564A74
:100C2C0082FB03125211DB17D31A544A136000F0E3
:100C3C0035FFFFF753FCFFF783FA514B1B68012B71
:100C4C0040F08D804A4B08221A604E4B1B684FF4C3
:100C5C007A7202FB03F303F6B8331946002001F055
:100C6C005DF9444B1B68444A82FB03125211DB179B
:100C7C00D31A424A1360444B06221A6040F6B8312C
:100C8C00012001F04BF93B4B5B683B4A82FB0312A2
:100C9C005211DB17D31A3D4A136000F0FFFE5EE0E1
:100CAC00324B1B68042B02D000F04CFE0AE02E4B9A
:100CBC001B69012B06D14FF4FA71042001F02EF9B7
:100CCC0000F0D8FEFFF796FAFFF75AFB264B1B688D
:100CDC00012B46D100F0E2FE254B02221A602C4B70
:100CEC001B68012B0CD1274B1B684FF47A7202FB4B
:100CFC0003F303F5FA631946002001F00FF915E030
:100D0C001F4B1B68012B0CD11E4B1B684FF47A72C6
:100D1C0002FB03F303F6B8331946002001F0FEF88A
:100D2C0004E041F28831002001F0F8F80A21022099
:100D3C0001F0F4F80F4B1B680F4A82FB031252119F
:100D4C00DB17D31A0D4A13600BE000BF0AE000BF9B
:100D5C0008E000BF06E000BF04E000BF02E000BFF7
:100D6C0000E000BF00BF80BDF40000205800002050
:100D7C0044000020CC0000201F85EB514C000020CB
:100D8C003C000020400000204800002050000020C3
:100D9C003800002080B500AFA54B1B68083B052B25
:100DAC0000F2378101A252F823F000BF010E0008B7
:100DBC00B70E0008790F0008D10D0008870E000847
:100DCC00410F0008FFF78AFB9A4B5B69012B06D198
:100DDC0000F030FE4FF4FA71052001F09FF8964BAD
:100DEC001B68032B40F01781914B0C221A6000F00A
:100DFC0055FE10E1904B1B68022B02D000F0CEFD8B
:100E0C000AE08C4B5B69012B06D100F013FE4FF40A
:100E1C00FA71052001F082F8FFF72EFA854B5B681A
:100E2C00012B40F0FA8000F039FE814B06221A604B
:100E3C00824B1B68012B0CD1814B1B684FF47A72CF
:100E4C0002FB03F3A3F5FA631946012001F066F8DF
:100E5C0004E040F6B831012001F060F80A210320CB
:100E6C0001F05CF8774B5B68774A82FB03125211F6
:100E7C00DB17D31A754A1360CFE0FFF72FFB6D4BCE
:100E8C005B69012B06D100F0E9FD4FF4FA710520E6
:100E9C0001F044F8684B1B68042B40F0C080644B95
:100EAC000D221A6000F0FAFDB9E0634B1B68032BAE
:100EBC0002D000F09FFD0AE05E4B5B69012B06D16E
:100ECC0000F0CCFD4FF4FA71052001F027F8FFF784
:100EDC00D3F9584B5B68012B40F0A38000F0DEFD8A
:100EEC00534B07221A60554B1B68012B0ED1544BE8
:100EFC001B68012B0FDC524B1B684FF47A7202FB00
:100F0C0003F31946012001F009F804E04FF4FA61EB
:100F1C00012001F003F80A21032000F0FFFF494BE8
:100F2C005B68494A82FB03125211DB17D31A474AFA
:100F3C00136076E0FFF7D2FA3E4B5B69012B06D1CA
:100F4C0000F0A2FD4FF4FA71052000F0E7FF3A4BD8
:100F5C001B68012B67D100F0A1FD354B06221A60EE
:100F6C0040F6B831012000F0D9FF5CE0324B1B6831
:100F7C00042B02D000F028FD0AE02E4B5B69012BFC
:100F8C0006D100F081FD4FF4FA71052000F0C6FF88
:100F9C00FFF772F9274B5B68012B46D100F07EFD01
:100FAC00234B05221A602A4B1B68012B0CD1244BB6
:100FBC001B684FF47A7202FB03F303F5FA631946CC
:100FCC00012000F0ABFF15E0224B1B68012B0CD16C
:100FDC001B4B1B684FF47A7202FB03F303F6B83316
:100FEC001946012000F09AFF04E041F288310120FB
:100FFC0000F094FF0A21032000F090FF114B5B6876
:10100C00114A82FB03125211DB17D31A0F4A1360D9
:10101C000BE000BF0AE000BF08E000BF06E000BF25
:10102C0004E000BF02E000BF00E000BF00BF80BDD5
:10103C0048000020F400002058000020340000205C
:10104C0040000020CC0000201F85EB5150000020F8
:10105C00380000203C00002080B500AF264B1B78E8
:10106C00022B38D0022B45DC002B02D0012B1ED0DA
:10107C0040E0002000F0D8F90346002B35D01E4B81
:10108C0001221A7000F0DAF80346012B2DD11B4B0C
:10109C001B680133194A1360194B00221A60174B55
:1010AC001B68042B21DD154B01221A601DE000206A
:1010BC0000F0BAF90346002B03D10F4B00221A7033
:1010CC0015E0002000F0CAF90346012B0FD10A4BA2
:1010DC0002221A700BE0002000F0A6F90346002B48
:1010EC0007D1054B00221A7003E000BF02E000BFDD
:1010FC0000E000BF00BF80BD54000020580000205D
:10110C005C00002080B500AF254B1B78022B35D03E
:10111C00022B42DC002B02D0012B1BD03DE0012026
:10112C0000F082F90346002B32D01D4B01221A70BD
:10113C0000F0A2F80346012B2AD11A4B1B6801338D
:10114C00184A1360174B1B68632B21DD154B0022CB
:10115C001A601DE0012000F067F90346002B03D153
:10116C000F4B00221A7015E0012000F077F90346AE
:10117C00012B0FD10A4B02221A700BE0012000F058
:10118C0053F90346002B07D1054B00221A7003E0DC
:10119C0000BF02E000BF00E000BF00BF80BD00BF89
:1011AC00550000205C00002080B500AF1C4B1B7864
:1011BC00022B24D0022B31DC002B02D0012B0AD0C5
:1011CC002CE0022000F030F90346002B21D0144B08
:1011DC0001221A701DE0022000F026F90346002BB4
:1011EC0003D10F4B00221A7015E0022000F036F9E3
:1011FC000346012B0FD10A4B02221A700BE002207E
:10120C0000F012F90346002B07D1054B00221A708F
:10121C0003E000BF02E000BF00E000BF00BF80BDE4
:10122C005600002080B400AF034B01221A6000BFAF
:10123C00BD4680BC704700BF7800002080B400AF72
:10124C00064B1B68012B04D1044B00221A600123AE
:10125C0000E000231846BD4680BC70477800002093
:10126C0080B400AF034B01221A6000BFBD4680BCA6
:10127C00704700BF7C00002080B400AF064B1B6899
:10128C00012B04D1044B00221A60012300E000233F
:10129C001846BD4680BC70477C00002080B400AF6F
:1012AC00034B01221A6000BFBD4680BC704700BFD3
:1012BC008000002080B400AF064B1B68012B04D1CA
:1012CC00044B00221A60012300E000231846BD469F
:1012DC0080BC70478000002080B582B000AF002336
:1012EC00FB718BE0FA79FB794949895C494AD15405
:1012FC00FB79002B08D10121474801F07FF9034607
:10130C001A46434B1A7016E0FB79012B08D10221C7
:10131C00414801F073F903461A463D4B5A700AE0F6
:10132C00FB79022B07D104213B4801F067F90346F6
:10133C001A46374B9A70FB79354AD25CFB793549A2
:10134C00CB5C9A424ED1FA79FB793149895C334AAC
:10135C00D154FB79314AD35C002B4CD1FB79002B57
:10136C0002D1FFF75FFF0AE0FB79012B02D1FFF7F7
:10137C0077FF04E0FB79022B01D1FFF78FFFFB799C
:10138C00274A32F81330632B0ED8FB79254AD35CED
:10139C00002B09D1FB79224A32F81320013291B289
:1013AC001F4A22F8131026E0FB791E4A0121D15462
:1013BC00FB791B4A32F81330952B09D8FB79184A64
:1013CC0032F81320013291B2154A22F8131012E0B0
:1013DC00FB79124A0121D154FB79114A642122F87C
:1013EC00131008E0FB790E4A002122F81310FB7948
:1013FC000C4A0021D154FB790133FB71FB79022B90
:10140C007FF670AF00BF00BF0837BD4680BD00BF80
:10141C006400002068000020000C014060000020E7
:10142C00700000206C00002080B483B000AF034635
:10143C00FB71FB79022B01D9002307E0FB79064AEB
:10144C00D35C002B0CBF01230023DBB218460C37F6
:10145C00BD4680BC704700BF6000002080B483B0E4
:10146C0000AF0346FB71FB79022B01D9FF2307E088
:10147C00FB79064AD35C012B0CBF01230023DBB2A2
:10148C0018460C37BD4680BC704700BF6C0000206E
:10149C0080B582B000AF78607B68002B28D1002229
:1014AC008021D24801F0C1F800224FF48071CF485E
:1014BC0001F0BBF800224FF40071CC4801F0B5F8F4
:1014CC0000224FF48061C94801F0AFF800224FF4BC
:1014DC000061C64801F0A9F800224FF48051C348BE
:1014EC0001F0A3F801224FF40051C04801F09DF81F
:1014FC007B68012B28D101228021BC4801F095F892
:10150C0000224FF48071B94801F08FF800224FF49B
:10151C000071B64801F089F801224FF48061B3489C
:10152C0001F083F801224FF40061B04801F07DF81E
:10153C0001224FF48051AD4801F077F801224FF4AD
:10154C000051AA4801F071F87B68022B28D10022C7
:10155C008021A64801F069F800224FF48071A3485D
:10156C0001F063F801224FF40071A04801F05DF81E
:10157C0000224FF480619D4801F057F800224FF48F
:10158C0000619A4801F051F801224FF480519748BC
:10159C0001F04BF800224FF40051944801F045F84B
:1015AC007B68032B28D100228021904801F03DF864
:1015BC0000224FF480718D4801F037F800224FF46F
:1015CC0000718A4801F031F800224FF4806187489D
:1015DC0001F02BF801224FF40061844801F025F84A
:1015EC0001224FF48051814801F01FF800224FF482
:1015FC0000517E4801F019F87B68042B28D1012298
:10160C0080217A4801F011F800224FF4807177485C
:10161C0001F00BF800224FF40071744801F005F84A
:10162C0001224FF48061714800F0FFFF01224FF45A
:10163C0000616E4800F0F9FF00224FF480516B48B6
:10164C0000F0F3FF00224FF40051684800F0EDFF6A
:10165C007B68052B28D100228021644800F0E5FF2F
:10166C0001224FF48071614800F0DFFF00224FF43B
:10167C0000715E4800F0D9FF00224FF480615B4896
:10168C0000F0D3FF01224FF40061584800F0CDFF69
:10169C0000224FF48051554800F0C7FF00224FF450
:1016AC000051524800F0C1FF7B68062B28D1002264
:1016BC0080214E4800F0B9FF01224FF480714B4855
:1016CC0000F0B3FF00224FF40071484800F0ADFF6A
:1016DC0000224FF48061454800F0A7FF00224FF430
:1016EC000061424800F0A1FF00224FF480513F48B6
:1016FC0000F09BFF00224FF400513C4800F095FF96
:10170C007B68072B28D100228021384800F08DFF00
:10171C0000224FF48071354800F087FF00224FF40F
:10172C000071324800F081FF01224FF480612F4894
:10173C0000F07BFF01224FF400612C4800F075FF94
:10174C0001224FF48051294800F06FFF01224FF421
:10175C000051264800F069FF7B68082B28D1002235
:10176C008021224800F061FF00224FF480711F4855
:10177C0000F05BFF00224FF400711C4800F055FF95
:10178C0000224FF48061194800F04FFF00224FF403
:10179C000061164800F049FF00224FF480511348B5
:1017AC0000F043FF00224FF40051104800F03DFFC1
:1017BC007B68092B2BD1002280210C4800F035FFCF
:1017CC0000224FF48071094800F02FFF00224FF4E3
:1017DC000071064800F029FF00224FF48061034895
:1017EC0000F023FF01224FF4006101E000080140EA
:1017FC00094800F01AFF00224FF48051064800F00F
:10180C0014FF00224FF40051034800F00EFF00BFFC
:10181C000837BD4680BD00BF0008014080B582B0CE
:10182C0000AF78607B68032B6ED801A252F823F0CE
:10183C004D1800087F180008B1180008E3180008BC
:10184C0000224FF40071334800F0EFFE01224FF4F8
:10185C008061304800F0E9FE01224FF400612D4810
:10186C0000F0E3FE01224FF480512A4800F0DDFE27
:10187C004BE001224FF40071264800F0D6FE002206
:10188C004FF48061234800F0D0FE01224FF4006138
:10189C00204800F0CAFE01224FF480511D4800F090
:1018AC00C4FE32E001224FF400711A4800F0BDFE74
:1018BC0001224FF48061174800F0B7FE00224FF46C
:1018CC000061144800F0B1FE01224FF48051114820
:1018DC0000F0ABFE19E001224FF400710D4800F04E
:1018EC00A4FE01224FF480610A4800F09EFE012202
:1018FC004FF40061074800F098FE00224FF480512D
:10190C00044800F092FE00E000BF00BF0837BD465F
:10191C0080BD00BF000C014080B500AF0122082142
:10192C00074800F082FE00222021054800F07DFED1
:10193C0000221021024800F078FE00BF80BD00BFDD
:10194C00000C014080B500AF00220821074800F0D0
:10195C006CFE00222021054800F067FE01221021B8
:10196C00024800F062FE00BF80BD00BF000C0140C9
:10197C0080B500AF00220821074800F056FE012276
:10198C002021054800F051FE00221021024800F0F1
:10199C004CFE00BF80BD00BF000C014080B500AF05
:1019AC0001224021074800F040FE00224FF48071D4
:1019BC00044800F03AFE00228021024800F035FE77
:1019CC0000BF80BD000C014080B500AF002240215B
:1019DC00074800F02AFE00224FF48071044800F002
:1019EC0024FE01228021024800F01FFE00BF80BDB2
:1019FC00000C014080B500AF00224021074800F0E8
:101A0C0014FE01224FF48071044800F00EFE0022F7
:101A1C008021024800F009FE00BF80BD000C01408F
:101A2C0080B500AF0821024800F017FE00BF80BD52
:101A3C00000C014080B500AF4021024800F00DFEC3
:101A4C0000BF80BD000C014080B500AF20210248D2
:101A5C0000F003FE00BF80BD000C014080B500AF5C
:101A6C004FF48071024800F0F8FD00BF80BD00BF4C
:101A7C00000C014080B500AF1021024800F0EDFDD4
:101A8C0000BF80BD000C014080B500AF8021024832
:101A9C0000F0E3FD00BF80BD000C014080B500AF3D
:101AAC00002208210F4800F0C0FD002220210D4823
:101ABC0000F0BBFD002210210A4800F0B6FD002208
:101ACC004021084800F0B1FD00224FF48071054818
:101ADC0000F0ABFD00228021024800F0A6FD00BF03
:101AEC0080BD00BF000C014080B500AF00F09CFA37
:101AFC0000F096F800F01CF900F0CEF8404801F028
:101B0C00F1F9012280213F4800F08FFD01224FF4B2
:101B1C0080713C4800F089FD01224FF40071394876
:101B2C0000F083FD01224FF48061364800F07DFD0A
:101B3C0001224FF40061334800F077FD01224FF48D
:101B4C008051304800F071FD01224FF400512D48B6
:101B5C0000F06BFD01224FF400712B4800F065FD85
:101B6C0001224FF48061284800F05FFD01224FF400
:101B7C000061254800F059FD01224FF480512248A4
:101B8C0000F053FD01224FF400511F4800F04DFDB1
:101B9C0001224FF480411C4800F047FD01224FF414
:101BAC000041194800F041FD184B01221A60184BF6
:101BBC0001221A60174B01221A60174B00221A607F
:101BCC00164B00221A600A21062000F0A7F94FF4E8
:101BDC00FA71042000F0A2F94FF4FA71052000F01C
:101BEC009DF9FEF7D9FCFEF7BDFDFEF7A1FEFFF750
:101BFC00D1F8FFF731FAFFF785FAFFF7D5FAF0E7DE
:101C0C008400002000080140000C0140440000202A
:101C1C0048000020580000205C0000202C00002010
:101C2C0080B590B000AF07F11803282200211846A8
:101C3C0001F008FD3B1D00221A605A609A60DA60C0
:101C4C001A610223BB610123BB621023FB620023D8
:101C5C007B6307F11803184600F018FD0346002BB0
:101C6C0001D000F0C7F80F237B600023BB6000237A
:101C7C00FB6000233B6100237B613B1D0021184668
:101C8C0000F084FF0346002B01D000F0B3F800BF36
:101C9C004037BD4680BD000080B586B000AF07F16F
:101CAC00080300221A605A609A60DA603B460022F0
:101CBC001A605A601D4B4FF080421A601B4B41F664
:101CCC003F725A60194B00229A60184B0922DA6055
:101CDC00164B00221A61154B00229A61134801F031
:101CEC00B1F80346002B01D000F084F84FF4805378
:101CFC00BB6007F1080319460C4801F02FFA0346A4
:101D0C00002B01D000F076F800233B6000237B60B1
:101D1C003B461946054801F007FC0346002B01D051
:101D2C0000F068F800BF1837BD4680BD8400002065
:101D3C0080B586B000AF07F1080300221A605A6024
:101D4C009A60DA60284B9B69274A43F0040393613D
:101D5C00254B9B6903F004037B607B68224B9B69DA
:101D6C00214A43F0080393611F4B9B6903F008035E
:101D7C003B603B6800224FF47E511C4800F055FC40
:101D8C0000224FF6F8711A4800F04FFC4FF47E53C6
:101D9C00BB600123FB6000233B6102237B6107F1E5
:101DAC0008031946114800F0AFFA0723BB60002363
:101DBC00FB6001233B6107F1080319460C4800F056
:101DCC00A3FA4FF6F873BB600123FB6000233B6161
:101DDC0002237B6107F108031946054800F094FAC9
:101DEC0000BF1837BD4680BD0010024000080140FE
:101DFC00000C014080B400AF72B600BFFEE70000DB
:101E0C0080B485B000AF154B9B69144A43F00103B5
:101E1C009361124B9B6903F00103BB60BB680F4BD2
:101E2C00DB690E4A43F08053D3610C4BDB6903F042
:101E3C0080537B607B680A4B5B68FB60FB6823F01C
:101E4C00E063FB60FB6843F08063FB60044AFB6863
:101E5C00536000BF1437BD4680BC70470010024071
:101E6C000000014080B584B000AF78607B681B68CF
:101E7C00B3F1804F13D10C4BDB690B4A43F00103D8
:101E8C00D361094BDB6903F00103FB60FB680022A3
:101E9C0000211C2000F001FA1C2000F01AFA00BFEF
:101EAC001037BD4680BD00BF0010024080B400AFAB
:101EBC00FEE780B400AFFEE780B400AFFEE780B46D
:101ECC0000AFFEE780B400AFFEE780B400AF00BF08
:101EDC00BD4680BC704780B400AF00BFBD4680BC1F
:101EEC00704780B400AF00BFBD4680BC704780B562
:101EFC0000AF00F0DFF800BF80BD000080B500AF80
:101F0C00024801F03BF800BF80BD00BF84000020F8
:101F1C0080B400AF00BFBD4680BC704780B483B0B6
:101F2C0000AF78603960094B1B683A6892FBF3F29A
:101F3C0007497B6841F82320064A7B68002142F858
:101F4C00231000BF0C37BD4680BC70470400002036
:101F5C00CC000020F400002080B483B000AF00233C
:101F6C007B601CE0124A7B6852F82330002B13DD97
:101F7C000F4A7B6852F823305A1E0D497B6841F892
:101F8C0023200B4A7B6852F82330002B04DC094ACF
:101F9C007B68012142F823107B6801337B607B68EE
:101FAC00092BDFDD00BF00BF0C37BD4680BC70477E
:101FBC00CC000020F400002080B582B000AF786027
:101FCC007B681B68B3F1804F03D1FFF785F9FFF7EE
:101FDC00C3FF00BF0837BD4680BD0000FFF798FF68
:101FEC000B480C490C4A002302E0D458C45004336B
:101FFC00C4188C42F9D3094A094C002301E0136040
:10200C000432A242FBD301F0F9FAFFF76DFD7047E1
:10201C000000002010000020A43600081000002052
:10202C0020010020FEE7000080B500AF084B1B68C4
:10203C00074A43F010031360032000F023F90F202C
:10204C0000F008F8FFF7DCFE0023184680BD00BF47
:10205C000020024080B582B000AF7860124B1A6845
:10206C00124B1B7819464FF47A73B3FBF1F3B2FBA6
:10207C00F3F3184600F03BF90346002B01D0012383
:10208C000EE07B680F2B0AD8002279684FF0FF30E6
:10209C0000F003F9064A7B681360002300E001237B
:1020AC0018460837BD4680BD000000200C000020FB
:1020BC000800002080B400AF054B1B781A46054B76
:1020CC001B681344034A136000BFBD4680BC7047B5
:1020DC000C0000201C01002080B400AF024B1B68D8
:1020EC001846BD4680BC70471C01002080B485B0EA
:1020FC0000AF78607B6803F00703FB600C4BDB6878
:10210C00BB60BA684FF6FF031340BB60FB681A0252
:10211C00BB68134343F0BF6343F40033BB60044A12
:10212C00BB68D36000BF1437BD4680BC704700BF8E
:10213C0000ED00E080B400AF044BDB681B0A03F039
:10214C0007031846BD4680BC704700BF00ED00E099
:10215C0080B483B000AF0346FB7197F90730002BB6
:10216C000BDBFB7903F01F02064997F907305B097B
:10217C00012000FA02F241F8232000BF0C37BD46C3
:10218C0080BC704700E100E080B483B000AF034630
:10219C003960FB7197F90730002B0ADB3B68DAB228
:1021AC000C4997F907301201D2B20B4483F8002383
:1021BC000AE03B68DAB20849FB7903F00F03043BF1
:1021CC001201D2B20B441A7600BF0C37BD4680BC4C
:1021DC00704700BF00E100E000ED00E080B489B082
:1021EC0000AFF860B9607A60FB6803F00703FB612D
:1021FC00FB69C3F10703042B28BF0423BB61FB69F4
:10220C000433062B02D9FB69033B00E000237B61FE
:10221C004FF0FF32BB6902FA03F3DA43BB681A4092
:10222C007B699A404FF0FF317B6901FA03F3D94384
:10223C007B680B40134318462437BD4680BC70475F
:10224C0080B582B000AF78607B68013BB3F1807FD2
:10225C0001D301230FE00A4A7B68013B53600F2135
:10226C004FF0FF30FFF790FF054B00229A60044BB4
:10227C0007221A60002318460837BD4680BD00BFF0
:10228C0010E000E080B582B000AF78607868FFF7AE
:10229C002DFF00BF0837BD4680BD80B586B000AFAE
:1022AC000346B9607A60FB7300237B61FFF742FF42
:1022BC0078617A68B9687869FFF790FF024697F9F8
:1022CC000F3011461846FFF75FFF00BF1837BD46A9
:1022DC0080BD80B582B000AF0346FB7197F9073023
:1022EC001846FFF735FF00BF0837BD4680BD80B5E7
:1022FC0082B000AF78607868FFF7A2FF03461846FB
:10230C000837BD4680BD000080B48BB000AF78604C
:10231C00396000237B6200233B6248E101227B6A27
:10232C0002FA03F3FB613B681B68FA691340BB615B
:10233C00BA69FB699A4240F037813B685B68A34AF3
:10234C0093425ED0A14A934275D8A14A934258D089
:10235C009F4A93426FD89F4A934252D09D4A9342D0
:10236C0069D89D4A93424CD09B4A934263D89B4A6E
:10237C00934246D0994A93425DD8122B2AD8122BFD
:10238C0059D801A252F823F00F240008E9230008C1
:10239C00FB2300083D2400084324000843240008C4
:1023AC004324000843240008432400084324000865
:1023BC004324000843240008432400084324000855
:1023CC00432400084324000843240008F123000898
:1023DC0005240008824A934213D02CE03B68DB684A
:1023EC003B6229E03B68DB6804333B6224E03B68DA
:1023FC00DB6808333B621FE03B68DB680C333B62F5
:10240C001AE03B689B68002B02D104233B6213E06B
:10241C003B689B68012B05D108233B627B68FA69FA
:10242C001A6109E008233B627B68FA695A6103E090
:10243C0000233B6200E000BFBB69FF2B01D87B6827
:10244C0001E07B6804337B61BB69FF2B02D87B6A9C
:10245C009B0002E07B6A083B9B003B617B691A682E
:10246C000F213B6901FA03F3DB431A40396A3B69DC
:10247C0001FA03F31A437B691A603B685B6803F04B
:10248C008053002B00F09080564B9B69554A43F0CB
:10249C0001039361534B9B6903F00103BB60BB6861
:1024AC00514A7B6A9B08023352F82330FB607B6AEB
:1024BC0003F003039B000F2202FA03F3DB43FA68D9
:1024CC001340FB607B68494A93420DD07B68484AB5
:1024DC00934207D07B68474A934201D1022304E020
:1024EC00032302E0012300E000237A6A02F00302D6
:1024FC0092009340FA681343FB603B497B6A9B084C
:10250C000233FA6841F823203B685B6803F48013BC
:10251C00002B06D0384B9A683749BB6913438B6044
:10252C0006E0354B9A68BB69DB43334913408B603B
:10253C003B685B6803F40013002B06D02E4BDA6863
:10254C002D49BB691343CB6006E02B4BDA68BB69A2
:10255C00DB4329491340CB603B685B6803F40033D1
:10256C00002B06D0244B5A682349BB6913434B609C
:10257C0006E0214B5A68BB69DB431F4913404B6093
:10258C003B685B6803F48033002B06D01A4B1A6847
:10259C001949BB6913430B6006E0174B1A68BB69FA
:1025AC00DB43154913400B607B6A01337B623B684C
:1025BC001A687B6A22FA03F3002B7FF4AFAE00BFDC
:1025CC0000BF2C37BD4680BC704700BF00003210E6
:1025DC000000311000002210000021100000121029
:1025EC0000001110001002400000014000080140E2
:1025FC00000C0140001001400004014080B485B083
:10260C0000AF78600B467B807B689A687B881340B0
:10261C00002B02D00123FB7301E00023FB73FB7B37
:10262C0018461437BD4680BC704780B483B000AFE9
:10263C0078600B467B8013467B707B78002B03D035
:10264C007A887B681A6103E07B881A047B681A61BC
:10265C0000BF0C37BD4680BC704780B485B000AF5E
:10266C0078600B467B807B68DB68FB607A88FB6854
:10267C0013401A04FB68D9437B880B401A437B68D0
:10268C001A6100BF1437BD4680BC704780B586B058
:10269C0000AF78607B68002B01D101236CE27B6872
:1026AC001B6803F00103002B00F08780924B5B68E2
:1026BC0003F00C03042B0CD08F4B5B6803F00C0362
:1026CC00082B12D18C4B5B6803F48033B3F5803F3D
:1026DC000BD1894B1B6803F40033002B6CD07B6847
:1026EC005B68002B68D1012346E27B685B68B3F51D
:1026FC00803F06D1804B1B687F4A43F480331360C4
:10270C002EE07B685B68002B0CD17B4B1B687A4AF4
:10271C0023F480331360784B1B68774A23F48023AF
:10272C0013601DE07B685B68B3F5A02F0CD1724B76
:10273C001B68714A43F4802313606F4B1B686E4A0D
:10274C0043F4803313600BE06B4B1B686A4A23F431
:10275C0080331360684B1B68674A23F48023136033
:10276C007B685B68002B13D0FFF7B6FC386108E080
:10277C00FFF7B2FC02463B69D31A642B01D9032341
:10278C00FAE15D4B1B6803F40033002BF0D014E02E
:10279C00FFF7A2FC386108E0FFF79EFC02463B699C
:1027AC00D31A642B01D90323E6E1534B1B6803F4C2
:1027BC000033002BF0D100E000BF7B681B6803F0F6
:1027CC000203002B63D04C4B5B6803F00C03002B13
:1027DC000BD0494B5B6803F00C03082B1CD1464B08
:1027EC005B6803F48033002B16D1434B1B6803F05A
:1027FC000203002B05D07B681B69012B01D0012340
:10280C00BAE13D4B1B6823F0F8027B685B69DB0087
:10281C00394913430B603AE07B681B69002B20D0CD
:10282C00364B01221A60FFF757FC386108E0FFF7BE
:10283C0053FC02463B69D31A022B01D903239BE1BB
:10284C002D4B1B6803F00203002BF0D02A4B1B68A6
:10285C0023F0F8027B685B69DB00274913430B60AC
:10286C0015E0264B00221A60FFF736FC386108E0B1
:10287C00FFF732FC02463B69D31A022B01D9032322
:10288C007AE11D4B1B6803F00203002BF0D17B682F
:10289C001B6803F00803002B3AD07B689B69002B64
:1028AC0019D0174B01221A60FFF716FC386108E0AB
:1028BC00FFF712FC02463B69D31A022B01D9032302
:1028CC005AE10D4B5B6A03F00203002BF0D00120A0
:1028DC0000F09AFA1CE00A4B00221A60FFF7FCFB8E
:1028EC0038610FE0FFF7F8FB02463B69D31A022B65
:1028FC0008D9032340E100BF00100240000042420F
:10290C00800442429E4B5B6A03F00203002BE9D128
:10291C007B681B6803F00403002B00F0A6800023E7
:10292C00FB75974BDB6903F08053002B0DD1944B57
:10293C00DB69934A43F08053D361914BDB6903F01D
:10294C008053BB60BB680123FB758E4B1B6803F483
:10295C008073002B18D18B4B1B688A4A43F480730D
:10296C001360FFF7B9FB386108E0FFF7B5FB0246CF
:10297C003B69D31A642B01D90323FDE0814B1B68FF
:10298C0003F48073002BF0D07B68DB68012B06D13D
:10299C007B4B1B6A7A4A43F0010313622DE07B6880
:1029AC00DB68002B0CD1764B1B6A754A23F00103B4
:1029BC001362734B1B6A724A23F0040313621CE00C
:1029CC007B68DB68052B0CD16D4B1B6A6C4A43F0A2
:1029DC00040313626A4B1B6A694A43F001031362D6
:1029EC000BE0674B1B6A664A23F001031362644BCE
:1029FC001B6A634A23F0040313627B68DB68002BB9
:102A0C0015D0FFF769FB38610AE0FFF765FB02465A
:102A1C003B69D31A41F28832934201D90323ABE0CC
:102A2C00574B1B6A03F00203002BEED014E0FFF7A8
:102A3C0053FB38610AE0FFF74FFB02463B69D31AA0
:102A4C0041F28832934201D9032395E04C4B1B6A27
:102A5C0003F00203002BEED1FB7D012B05D1484B7B
:102A6C00DB69474A23F08053D3617B68DB69002B19
:102A7C0000F08180424B5B6803F00C03082B61D0A3
:102A8C007B68DB69022B46D13F4B00221A60FFF7B3
:102A9C0023FB386108E0FFF71FFB02463B69D31AA2
:102AAC00022B01D9032367E0354B1B6803F000733D
:102ABC00002BF0D17B681B6AB3F5803F08D1304BFB
:102ACC005B6823F400327B689B682D4913434B6091
:102ADC002B4B5B6823F474127B68196A7B685B6A06
:102AEC000B43274913434B60274B01221A60FFF716
:102AFC00F3FA386108E0FFF7EFFA02463B69D31AA4
:102B0C00022B01D9032337E01D4B1B6803F0007324
:102B1C00002BF0D02FE01C4B00221A60FFF7DCFAE0
:102B2C00386108E0FFF7D8FA02463B69D31A022B4A
:102B3C0001D9032320E0124B1B6803F00073002B18
:102B4C00F0D118E07B68DB69012B01D1012313E084
:102B5C000B4B5B68FB60FB6803F480327B681B6A81
:102B6C009A4206D1FB6803F470127B685B6A9A4246
:102B7C0001D0012300E0002318461837BD4680BD64
:102B8C0000100240007000406000424280B584B0EA
:102B9C0000AF786039607B68002B01D10123D0E055
:102BAC006A4B1B6803F007033A689A4210D9674BCB
:102BBC001B6823F0070265493B6813430B60634BAA
:102BCC001B6803F007033A689A4201D00123B8E06E
:102BDC007B681B6803F00203002B20D07B681B680A
:102BEC0003F00403002B05D0594B5B68584A43F49F
:102BFC00E06353607B681B6803F00803002B05D06F
:102C0C00534B5B68524A43F460535360504B5B68C0
:102C1C0023F0F0027B689B684D4913434B607B6843
:102C2C001B6803F00103002B40D07B685B68012B11
:102C3C0007D1474B1B6803F40033002B15D101233C
:102C4C007FE07B685B68022B07D1414B1B6803F06C
:102C5C000073002B09D1012373E03D4B1B6803F07B
:102C6C000203002B01D101236BE0394B5B6823F08D
:102C7C0003027B685B68364913434B60FFF72CFA01
:102C8C00F8600AE0FFF728FA0246FB68D31A41F213
:102C9C008832934201D9032353E02D4B5B6803F038
:102CAC000C027B685B689B009A42EBD1274B1B683C
:102CBC0003F007033A689A4210D2244B1B6823F0A6
:102CCC00070222493B6813430B60204B1B6803F03F
:102CDC0007033A689A4201D0012332E07B681B68F3
:102CEC0003F00403002B08D0194B5B6823F4E0625B
:102CFC007B68DB68164913434B607B681B6803F0E9
:102D0C000803002B09D0124B5B6823F460527B68DC
:102D1C001B69DB000E4913434B6000F021F802469F
:102D2C000B4B5B681B0903F00F030A49CB5C22FABF
:102D3C0003F3094A1360094B1B681846FFF78AF91D
:102D4C00002318461037BD4680BD00BF002002404E
:102D5C000010024078360008000000200800002017
:102D6C0080B487B000AF0023FB600023BB6000235E
:102D7C007B6100237B6000233B611E4B5B68FB6027
:102D8C00FB6803F00C03042B02D0082B03D027E0C4
:102D9C00194B3B6127E0FB689B0C03F00F03174AB0
:102DAC00D35C7B60FB6803F48033002B10D0114B99
:102DBC005B685B0C03F00103114AD35CBB607B685E
:102DCC000D4A02FB03F2BB68B2FBF3F37B6104E038
:102DDC007B680C4A02FB03F37B617B693B6102E07D
:102DEC00054B3B6100BF3B6918461C37BD4680BC98
:102DFC00704700BF0010024000127A0088360008AD
:102E0C009836000800093D0080B485B000AF7860AA
:102E1C000A4B1B680A4AA2FB03235B0A7A6802FB73
:102E2C0003F3FB6000BFFB685A1EFA60002BF9D15C
:102E3C0000BF00BF1437BD4680BC704700000020A7
:102E4C00D34D621080B582B000AF78607B68002BE8
:102E5C0001D1012341E07B6893F83D30DBB2002BBC
:102E6C0006D17B68002283F83C207868FEF7FAFFD5
:102E7C007B68022283F83D207B681A687B680433E8
:102E8C001946104600F056FA7B68012283F846205A
:102E9C007B68012283F83E207B68012283F83F2067
:102EAC007B68012283F840207B68012283F8412053
:102EBC007B68012283F842207B68012283F843203F
:102ECC007B68012283F844207B68012283F845202B
:102EDC007B68012283F83D20002318460837BD4645
:102EEC0080BD000080B485B000AF78607B6893F83B
:102EFC003D30DBB2012B01D0012335E07B6802228F
:102F0C0083F83D207B681B68DA687B681B6842F09D
:102F1C000102DA607B681B68164A934209D07B6811
:102F2C001B68B3F1804F04D07B681B68124A934234
:102F3C0011D17B681B689B6803F00703FB60FB687F
:102F4C00062B10D07B681B681A687B681B6842F0E4
:102F5C0001021A6007E07B681B681A687B681B68B3
:102F6C0042F001021A60002318461437BD4680BC9B
:102F7C00704700BF002C01400004004080B584B0B5
:102F8C0000AF78607B681B68DB68FB607B681B6844
:102F9C001B69BB60BB6803F00203002B20D0FB68ED
:102FAC0003F00203002B1BD07B681B686FF002023E
:102FBC001A617B6801221A777B681B689B6903F096
:102FCC000303002B03D0786800F098F905E07868CB
:102FDC0000F08BF9786800F09AF97B6800221A7778
:102FEC00BB6803F00403002B20D0FB6803F0040340
:102FFC00002B1BD07B681B686FF004021A617B6886
:10300C0002221A777B681B689B6903F44073002BC0
:10301C0003D0786800F072F905E0786800F065F983
:10302C00786800F074F97B6800221A77BB6803F0AB
:10303C000803002B20D0FB6803F00803002B1BD0E7
:10304C007B681B686FF008021A617B6804221A7790
:10305C007B681B68DB6903F00303002B03D07868E3
:10306C0000F04CF905E0786800F03FF9786800F062
:10307C004EF97B6800221A77BB6803F01003002B13
:10308C0020D0FB6803F01003002B1BD07B681B685F
:10309C006FF010021A617B6808221A777B681B6834
:1030AC00DB6903F44073002B03D0786800F026F939
:1030BC0005E0786800F019F9786800F028F97B6869
:1030CC0000221A77BB6803F00103002B0CD0FB68BD
:1030DC0003F00103002B07D07B681B686FF0010223
:1030EC001A617868FEF768FFBB6803F08003002B59
:1030FC000CD0FB6803F08003002B07D07B681B68A7
:10310C006FF080021A61786800F06FFABB6803F008
:10311C004003002B0CD0FB6803F04003002B07D0BE
:10312C007B681B686FF040021A61786800F0F8F851
:10313C00BB6803F02003002B0CD0FB6803F02003CA
:10314C00002B07D07B681B686FF020021A6178682F
:10315C0000F042FA00BF1037BD4680BD80B584B088
:10316C0000AF786039600023FB737B6893F83C30C8
:10317C00012B01D10223B4E07B68012283F83C20AF
:10318C007B68022283F83D207B681B689B68BB60D0
:10319C00BB6823F07703BB60BB6823F47F43BB6041
:1031AC007B681B68BA689A603B681B68B3F5005F64
:1031BC003ED0B3F5005F00F28780B3F5805F00F07E
:1031CC008680B3F5805F7FD8702B1AD0702B7BD89C
:1031DC00602B50D0602B77D8502B3CD0502B73D811
:1031EC00402B58D0402B6FD8302B64D0302B6BD861
:1031FC00202B60D0202B67D8002B5CD0102B5AD002
:10320C0062E07B6818683B6899683B685A683B6861
:10321C00DB6800F06AF97B681B689B68BB60BB6865
:10322C0043F07703BB607B681B68BA689A604FE019
:10323C007B6818683B6899683B685A683B68DB6830
:10324C0000F053F97B681B689A687B681B6842F432
:10325C0080429A603CE07B6818683B6859683B6820
:10326C00DB681A4600F0CAF87B681B6850211846C8
:10327C0000F021F92CE07B6818683B6859683B68C2
:10328C00DB681A4600F0E8F87B681B68602118467A
:10329C0000F011F91CE07B6818683B6859683B68C2
:1032AC00DB681A4600F0AAF87B681B6840211846B8
:1032BC0000F001F90CE07B681A683B681B68194642
:1032CC00104600F0F8F803E00123FB7300E000BFA8
:1032DC007B68012283F83D207B68002283F83C2028
:1032EC00FB7B18461037BD4680BD80B483B000AF61
:1032FC00786000BF0C37BD4680BC704780B483B08B
:10330C0000AF786000BF0C37BD4680BC704780B4FE
:10331C0083B000AF786000BF0C37BD4680BC7047EF
:10332C0080B483B000AF786000BF0C37BD4680BC62
:10333C007047000080B485B000AF786039607B685E
:10334C001B68FB607B682B4A934207D07B68B3F108
:10335C00804F03D07B68284A934208D1FB6823F046
:10336C007003FB603B685B68FA681343FB607B6827
:10337C00204A934207D07B68B3F1804F03D07B681F
:10338C001D4A934208D1FB6823F44073FB603B68F1
:10339C00DB68FA681343FB60FB6823F080023B6830
:1033AC005B691343FB607B68FA681A603B689A6838
:1033BC007B68DA623B681A687B689A627B680D4AA4
:1033CC00934203D13B681A697B681A637B680122BC
:1033DC005A617B681B6903F00103002B05D07B68E5
:1033EC001B6923F001027B681A6100BF1437BD46CC
:1033FC0080BC7047002C01400004004080B487B0B2
:10340C0000AFF860B9607A60FB681B6A7B61FB688F
:10341C001B6A23F00102FB681A62FB689B693B6123
:10342C003B6923F0F0033B617B681B013A69134352
:10343C003B617B6923F00A037B617A69BB681343A8
:10344C007B61FB683A699A61FB687A691A6200BF12
:10345C001C37BD4680BC704780B487B000AFF860A5
:10346C00B9607A60FB681B6A7B61FB681B6A23F09E
:10347C001002FB681A62FB689B693B613B6923F491
:10348C0070433B617B681B033A6913433B617B6967
:10349C0023F0A0037B61BB681B017A6913437B613A
:1034AC00FB683A699A61FB687A691A6200BF1C373B
:1034BC00BD4680BC704780B485B000AF7860396081
:1034CC007B689B68FB60FB6823F07003FB603A68C9
:1034DC00FB68134343F00703FB607B68FA689A6050
:1034EC0000BF1437BD4680BC704780B487B000AFB6
:1034FC00F860B9607A603B60FB689B687B617B69B4
:10350C0023F47F437B613B681A027B681A43BB68D8
:10351C0013437A6913437B61FB687A699A6000BF35
:10352C001C37BD4680BC704780B485B000AF786056
:10353C0039607B6893F83C30012B01D1022341E0C8
:10354C007B68012283F83C207B68022283F83D20B3
:10355C007B681B685B68FB607B681B689B68BB6057
:10356C00FB6823F07003FB603B681B68FA6813432D
:10357C00FB607B681B68FA685A607B681B68144A9E
:10358C00934209D07B681B68B3F1804F04D07B68F1
:10359C001B68104A93420CD1BB6823F08003BB60BC
:1035AC003B685B68BA681343BB607B681B68BA688E
:1035BC009A607B68012283F83D207B68002283F8A7
:1035CC003C20002318461437BD4680BC704700BF12
:1035DC00002C01400004004080B483B000AF786040
:1035EC0000BF0C37BD4680BC704780B483B000AFC1
:1035FC00786000BF0C37BD4680BC704770B50026A4
:10360C000C4D0D4C641BA410A64209D100F022F8FD
:10361C0000260A4D0A4C641BA410A64205D170BDAD
:10362C0055F8043B98470136EEE755F8043B9847AC
:10363C000136F2E79C3600089C3600089C360008E0
:10364C00A036000803460244934200D1704703F8A9
:10365C00011BF9E7F8B500BFF8BC08BC9E467047E3
:0C366C00F8B500BFF8BC08BC9E467047D3
:10367800000000000000000001020304060708091A
:1036880002030405060708090A0B0C0D0E0F10109B
:04369800010200002B
:04369C0031010008F0
:0436A0000D01000810
:1036A40000127A000A00000010000000010000006F
:0400000508001FE9E7
:00000001FF
