:020000040800F2
:1000000000280020051F0008D11D0008D71D00088A
:10001000DD1D0008E31D0008E91D000800000000C8
:10002000000000000000000000000000EF1D0008BC
:10003000FB1D000800000000071E0008131E00083A
:100040004D1F00084D1F00084D1F00084D1F0008E0
:100050004D1F00084D1F00084D1F00084D1F0008D0
:100060004D1F00084D1F00084D1F00084D1F0008C0
:100070004D1F00084D1F00084D1F00084D1F0008B0
:100080004D1F00084D1F00084D1F00084D1F0008A0
:100090004D1F00084D1F00084D1F00084D1F000890
:1000A0004D1F00084D1F00084D1F00084D1F000880
:1000B000211E00084D1F0008000000004D1F000811
:1000C0004D1F000800000000000000004D1F000848
:1000D000000000004D1F00084D1F00080000000038
:1000E0004D1F00084D1F00084D1F000800000000B4
:1000F0000000000000000000000000000000000000
:0C01000000000000000000005FF808F1A3
:10010C0010B5054C237833B9044B13B10448AFF345
:10011C0000800123237010BD0C00002000000000A3
:10012C007C35000808B5034B1BB103490348AFF3FA
:10013C00008008BD00000000100000207C35000885
:10014C0080B500AF00F070FF0346012B5FD1664B0A
:10015C001B68022B5BD1654B01221A60644B002299
:10016C001A60644B00221A60634B1B68634A13606D
:10017C00634B1B68022B10D1624B1B68072B0CD1F5
:10018C005D4B1B684FF47A7202FB03F3A3F5FA6321
:10019C001946012001F04EFE11E0594B1B68022B51
:1001AC000DD1584B1B68082B09D1534B1B684FF4CE
:1001BC007A7202FB03F31946012001F03BFE514B0E
:1001CC001B68062B10D14E4B1B68032B0CD14A4BD2
:1001DC001B684FF47A7202FB03F3A3F5FA6319461A
:1001EC00002001F027FE7CE0464B1B68062B78D1E3
:1001FC00434B1B68042B74D13F4B1B684FF47A7232
:10020C0002FB03F31946002001F014FE69E000F034
:10021C000BFF0346012B31D1334B1B68032B2DD124
:10022C00324B00221A60324B01221A60314B0022F1
:10023C001A60314B1B68314A1360314B1B68032B1E
:10024C000BD12D4B1B684FF47A7202FB03F303F5B1
:10025C00FA631946012001F0EDFD2A4B1B68072BB0
:10026C0040D1254B1B684FF47A7202FB03F303F564
:10027C00FA631946002001F0DDFD33E000F0D4FEF6
:10028C000346012B2ED1184B1B68042B2AD1174B7C
:10029C0000221A60164B00221A60164B01221A60BB
:1002AC00154B1B68154A1360154B1B68042B09D1A1
:1002BC00114B1B684FF47A7202FB03F319460120B1
:1002CC0001F0B8FD0F4B1B68082B0BD10A4B1B68B8
:1002DC004FF47A7202FB03F31946002001F0AAFDD9
:1002EC0000E000BF00BF80BD540000202C000020A7
:1002FC00300000203400002058000020380000207E
:10030C003C0000204000002080B400AF0C4B1B6868
:10031C00012B02D10B4B00221A60094B1B68032BDB
:10032C0002D1094B00221A60054B1B68042B02D129
:10033C00064B00221A6000BFBD4680BC704700BF50
:10034C0054000020340000202C000020300000203D
:10035C0080B500AF664B9B68012B18D1654B1B68B1
:10036C00013B644A1360634B1B68002B0ADC624B35
:10037C001B68624A82FB03125211DB17D31A01333A
:10038C005C4A13604FF47A71022001F053FD584B14
:10039C00DB68012B18D15A4B1B68013B584A136080
:1003AC00574B1B68002B0ADC534B5B68534A82FB90
:1003BC0003125211DB17D31A0133514A13604FF455
:1003CC007A71032001F036FD4E4B1B68002B10D1C7
:1003DC00484B1A684C4B83FB02139910D317C91A5C
:1003EC000B469B000B445B00D11A084600F00AFF39
:1003FC0062E0444B1B68012B0BD13E4B1B68424AFD
:10040C0082FB03129210DB17D31A184600F0FAFE87
:10041C0052E03C4B1B68022B10D1394B1A683A4BFB
:10042C0083FB02139910D317C91A0B469B000B447C
:10043C005B00D11A084600F0E5FE3DE0314B1B682D
:10044C00032B0BD12E4B1B682F4A82FB03129210ED
:10045C00DB17D31A184600F0D5FE2DE0294B1B688C
:10046C00042B05D1294B1B68184600F0CBFE23E06A
:10047C00244B1B68052B10D1254B1A68224B83FB90
:10048C0002139910D317C91A0B469B000B445B003F
:10049C00D11A084600F0B6FE0EE01A4B1B68062B6C
:1004AC000AD11B4B1B68184A82FB03129210DB17F4
:1004BC00D31A184600F0A6FE0D4B9B69012B14D1E4
:1004CC00104B1B68184601F063F80E4B1B68013388
:1004DC000C4A13600B4B1B68062B02DD094B0022E8
:1004EC001A603221062001F0A5FC00BF80BD00BFC0
:1004FC00F000002048000020C80000201F85EB51B0
:10050C004C0000202800002067666666540000201E
:10051C005800002080B500AF814B1B68013B032BBA
:10052C0000F2F58001A252F823F000BF4905000843
:10053C0077050008F905000879060008784B0222B7
:10054C001A6041F28831002001F074FC6421022011
:10055C0001F070FC734B1B68734A82FB031252113F
:10056C00DB17D31A714A1360D8E0714B1B68022B4E
:10057C0002D001F05BF90AE06E4B1B69012B06D12E
:10058C0001F0D8F94FF4FA71042001F053FCFFF795
:10059C00D7FDFFF7B9FE684B1B68012B16D1604BDA
:1005AC0009221A60654B1B684FF47A7202FB03F345
:1005BC001946002001F03EFC5A4B1B685A4A82FB3C
:1005CC0003125211DB17D31A584A1360594B1B688C
:1005DC00012B40F09E8001F0EBF9514B03221A6085
:1005EC0040F6B831002001F025FC92E0504B1B681E
:1005FC00032B02D001F046F90AE04E4B1B69012B8C
:10060C0006D14FF4FA71042001F014FC01F0A6F9A4
:10061C00FFF796FDFFF778FE494B1B68012B16D1AF
:10062C003F4B0A221A60454B1B684FF47A7202FB4F
:10063C0003F31946002001F0FDFB3A4B1B683A4AC4
:10064C0082FB03125211DB17D31A384A1360394B51
:10065C001B68012B5FD101F0ABF9314B04221A60FE
:10066C004FF4FA61002001F0E5FB54E0304B1B68BD
:10067C00042B02D001F0F0F80AE02E4B1B69012B81
:10068C0006D14FF4FA71042001F0D4FB01F07CF98F
:10069C00FFF756FDFFF738FE2A4B1B68012B16D1CE
:1006AC001F4B0B221A60254B1B684FF47A7202FB0E
:1006BC0003F31946002001F0BDFB1A4B1B681A4AC4
:1006CC0082FB03125211DB17D31A184A1360194B11
:1006DC001B68012B21D101F06BF9114B02221A601E
:1006EC00174B1B68012B0CD1144B1B684FF47A72FF
:1006FC0002FB03F303F5FA631946002001F09AFBA1
:10070C000BE041F28831002001F094FB05E000BFC2
:10071C0004E000BF02E000BF00E000BF00BF80BDEE
:10072C003C000020C80000201F85EB514800002031
:10073C0054000020F00000202C0000203800002085
:10074C00300000203400002080B500AF824B1B68C5
:10075C00053B032B00F2F78001A252F823F000BFF7
:10076C007D070008AF07000831080008B108000831
:10077C0001F0CAF8784B07221A6040F6B831012014
:10078C0001F058FB6421032001F054FB734B5B68B0
:10079C00734A82FB03125211DB17D31A714A13608E
:1007AC00D8E0714B1B68022B02D001F081F80AE0F3
:1007BC006E4B5B69012B06D101F0C6F84FF4FA7150
:1007CC00052001F037FBFFF7BBFCFFF79DFD684BE5
:1007DC001B68012B16D1604B09221A60654B1B68F4
:1007EC004FF47A7202FB03F31946012001F022FB4D
:1007FC005A4B5B685A4A82FB03125211DB17D31A0D
:10080C00584A1360594B5B68012B40F09E8001F0F5
:10081C00CFF8514B07221A6040F6B831012001F095
:10082C0009FB92E0504B1B68032B02D001F06CF8D3
:10083C000AE04E4B5B69012B06D101F099F84FF49D
:10084C00FA71052001F0F6FAFFF77AFCFFF75CFD70
:10085C00494B1B68012B16D13F4B0A221A60454BA2
:10086C001B684FF47A7202FB03F31946012001F066
:10087C00E1FA3A4B5B683A4A82FB03125211DB17DE
:10088C00D31A384A1360394B5B68012B5FD101F0E6
:10089C008FF8314B08221A604FF4FA61012001F0F5
:1008AC00C9FA54E0304B1B68042B02D001F016F847
:1008BC000AE02E4B5B69012B06D101F06FF84FF467
:1008CC00FA71052001F0B6FAFFF73AFCFFF71CFDB0
:1008DC002A4B1B68012B16D11F4B0B221A60254B80
:1008EC001B684FF47A7202FB03F31946012001F0E6
:1008FC00A1FA1A4B5B681A4A82FB03125211DB17DE
:10090C00D31A184A1360194B5B68012B21D101F0E3
:10091C004FF8114B06221A60174B1B68012B0CD198
:10092C00144B1B684FF47A7202FB03F303F5FA6362
:10093C001946012001F07EFA0BE041F288310120CA
:10094C0001F078FA05E000BF04E000BF02E000BF50
:10095C0000E000BF00BF80BD40000020C8000020A8
:10096C001F85EB514C00002054000020F0000020AB
:10097C002C00002038000020300000203400002023
:10098C0080B500AF7D4B1B68093B032B00F2EB805D
:10099C0001A252F823F000BFD10900084B0A00084D
:1009AC00D10A0008B5090008754B1B68022B40F0F2
:1009BC00DC80724B09221A604FF4FA71042001F0AA
:1009CC0039FAD2E06E4B1B68022B02D000F02EFFDE
:1009DC000AE06C4B1B69012B06D100F0ABFF4FF406
:1009EC00FA71042001F026FA664B1B68012B40F0CB
:1009FC00BE8000F0DDFF614B03221A60624B1B6866
:100A0C00012B0CD1614B1B684FF47A7202FB03F380
:100A1C00A3F5FA631946002001F00CFA04E040F645
:100A2C00B831002001F006FA594B1B68594A82FB79
:100A3C0003125211DB17D31A574A136097E0504B2D
:100A4C001B68032B02D000F01DFF0AE04D4B1B6905
:100A5C00012B06D14FF4FA71042001F0EBF900F0F0
:100A6C007DFF484B1B68012B40F0838000F0A0FFFA
:100A7C00424B04221A60444B1B68012B0ED1434B92
:100A8C001B68012B0FDC414B1B684FF47A7202FB85
:100A9C0003F31946002001F0CDF904E04FF4FA619C
:100AAC00002001F0C7F90A21022001F0C3F9384BEC
:100ABC001B68384A82FB03125211DB17D31A364AD1
:100ACC00136056E02E4B1B68042B02D000F0C4FEC2
:100ADC000AE02C4B1B69012B06D14FF4FA71042050
:100AEC0001F0A8F900F050FF264B1B68012B42D1F6
:100AFC0000F05EFF214B02221A60284B1B68012B71
:100B0C000CD1224B1B684FF47A7202FB03F303F5F2
:100B1C00FA631946002001F08DF915E0204B1B6893
:100B2C00012B0CD1194B1B684FF47A7202FB03F3A7
:100B3C0003F6B8331946002001F07CF904E041F2C9
:100B4C008831002001F076F90A21022001F072F9B7
:100B5C000F4B1B680F4A82FB03125211DB17D31A7F
:100B6C000D4A136007E000BF06E000BF04E000BFC1
:100B7C0002E000BF00E000BF00BF80BD3C000020D1
:100B8C0054000020F00000202C0000203800002031
:100B9C00C80000201F85EB514800002030000020C9
:100BAC003400002080B500AF804B1B68093B032B41
:100BBC0000F2F08001A252F823F000BFF50B000800
:100BCC006F0C0008F50C0008D90B0008784B1B685B
:100BDC00022B40F0E180754B09221A604FF4FA7138
:100BEC00052001F027F9D7E0714B1B68022B02D0CE
:100BFC0000F05EFE0AE06F4B5B69012B06D100F042
:100C0C00A3FE4FF4FA71052001F014F9694B5B68EF
:100C1C00012B40F0C38000F0CBFE644B07221A601E
:100C2C00654B1B68012B0CD1644B1B684FF47A721B
:100C3C0002FB03F3A3F5FA631946012001F0FAF85D
:100C4C0004E040F6B831012001F0F4F85C4B5B682D
:100C5C005C4A82FB03125211DB17D31A5A4A1360F7
:100C6C009CE0534B1B68032B02D000F04DFE0AE0B6
:100C7C00504B5B69012B06D100F07AFE4FF4FA71F0
:100C8C00052001F0D7F84B4B5B68012B40F08880B6
:100C9C0000F08EFE454B08221A60474B1B68012B57
:100CAC000ED1464B1B68012B0FDC444B1B684FF4D9
:100CBC007A7202FB03F31946012001F0BBF804E041
:100CCC004FF4FA61012001F0B5F80A21032001F07C
:100CDC00B1F83B4B5B683B4A82FB03125211DB17AA
:100CEC00D31A394A13605BE0314B1B68042B02D0DA
:100CFC0000F0F4FD0AE02F4B5B69012B06D100F0EC
:100D0C004DFE4FF4FA71052001F094F8294B5B6805
:100D1C00012B47D100F04CFE244B06221A6000F048
:100D2C0047FE224B06221A60284B1B68012B0CD164
:100D3C00224B1B684FF47A7202FB03F303F5FA6340
:100D4C001946012001F076F815E0214B1B68012BA8
:100D5C000CD11A4B1B684FF47A7202FB03F303F6A7
:100D6C00B8331946012001F065F804E041F28831EE
:100D7C00012001F05FF80A21032001F05BF8104B11
:100D8C005B68104A82FB03125211DB17D31A0E4A0E
:100D9C00136007E000BF06E000BF04E000BF02E004
:100DAC0000BF00E000BF00BF80BD00BF40000020BE
:100DBC0054000020F00000202C00002038000020FF
:100DCC00C80000201F85EB514C0000203000002093
:100DDC003400002080B500AF254B1B78022B35D09A
:100DEC00022B42DC002B02D0012B1BD03DE000205B
:100DFC0000F0D4F90346002B32D01D4B01221A709F
:100E0C0000F0D6F80346012B2AD11A4B1B6801338C
:100E1C00184A1360174B1B68042B21DD154B01225C
:100E2C001A601DE0002000F0B9F90346002B03D135
:100E3C000F4B00221A7015E0002000F0C9F9034690
:100E4C00012B0FD10A4B02221A700BE0002000F08C
:100E5C00A5F90346002B07D1054B00221A7003E0BD
:100E6C0000BF02E000BF00E000BF00BF80BD00BFBC
:100E7C00500000205400002080B500AF254B1B789B
:100E8C00022B35D0022B42DC002B02D0012B1BD0C5
:100E9C003DE0012000F082F90346002B32D01D4BBF
:100EAC0001221A7000F0A2F80346012B2AD11A4B2A
:100EBC001B680133184A1360174B1B68632B21DD29
:100ECC00154B00221A601DE0012000F067F9034663
:100EDC00002B03D10F4B00221A7015E0012000F0FB
:100EEC0077F90346012B0FD10A4B02221A700BE043
:100EFC00012000F053F90346002B07D1054B0022CB
:100F0C001A7003E000BF02E000BF00E000BF00BFAA
:100F1C0080BD00BF510000205800002080B500AFFC
:100F2C001C4B1B78022B24D0022B31DC002B02D063
:100F3C00012B0AD02CE0022000F030F90346002BE4
:100F4C0021D0144B01221A701DE0022000F026F96A
:100F5C000346002B03D10F4B00221A7015E0022020
:100F6C0000F036F90346012B0FD10A4B02221A70FE
:100F7C000BE0022000F012F90346002B07D1054BC1
:100F8C0000221A7003E000BF02E000BF00E000BFC7
:100F9C0000BF80BD5200002080B400AF034B012283
:100FAC001A6000BFBD4680BC704700BF74000020B3
:100FBC0080B400AF064B1B68012B04D1044B0022FC
:100FCC001A60012300E000231846BD4680BC704720
:100FDC007400002080B400AF034B01221A6000BFE4
:100FEC00BD4680BC704700BF7800002080B400AFC5
:100FFC00064B1B68012B04D1044B00221A60012301
:10100C0000E000231846BD4680BC704778000020E5
:10101C0080B400AF034B01221A6000BFBD4680BCF8
:10102C00704700BF7C00002080B400AF064B1B68EB
:10103C00012B04D1044B00221A60012300E0002391
:10104C001846BD4680BC70477C00002080B582B03D
:10105C0000AF0023FB718BE0FA79FB794949895C7D
:10106C00494AD154FB79002B08D10121474801F0A2
:10107C0053FA03461A46434B1A7016E0FB79012BC0
:10108C0008D10221414801F047FA03461A463D4B6C
:10109C005A700AE0FB79022B07D104213B4801F07E
:1010AC003BFA03461A46374B9A70FB79354AD25CA9
:1010BC00FB793549CB5C9A424ED1FA79FB793149AF
:1010CC00895C334AD154FB79314AD35C002B4CD127
:1010DC00FB79002B02D1FFF75FFF0AE0FB79012BB4
:1010EC0002D1FFF777FF04E0FB79022B01D1FFF768
:1010FC008FFFFB79274A32F81330632B0ED8FB791C
:10110C00254AD35C002B09D1FB79224A32F81320F3
:10111C00013291B21F4A22F8131026E0FB791E4AC5
:10112C000121D154FB791B4A32F81330952B09D885
:10113C00FB79184A32F81320013291B2154A22F881
:10114C00131012E0FB79124A0121D154FB79114A98
:10115C00642122F8131008E0FB790E4A002122F8D2
:10116C001310FB790C4A0021D154FB790133FB712C
:10117C00FB79022B7FF670AF00BF00BF0837BD466E
:10118C0080BD00BF6000002064000020000C014006
:10119C005C0000206C0000206800002080B483B04C
:1011AC0000AF0346FB71FB79022B01D9002307E04A
:1011BC00FB79064AD35C002B0CBF01230023DBB266
:1011CC0018460C37BD4680BC704700BF5C00002041
:1011DC0080B483B000AF0346FB71FB79022B01D9BD
:1011EC00FF2307E0FB79064AD35C012B0CBF0123DC
:1011FC000023DBB218460C37BD4680BC704700BFDD
:10120C006800002080B582B000AF78607B68002B4E
:10121C0028D100228021D24801F095F900224FF408
:10122C008071CF4801F08FF900224FF40071CC4847
:10123C0001F089F900224FF48061C94801F083F96B
:10124C0000224FF40061C64801F07DF900224FF4F2
:10125C008051C34801F077F901224FF40051C04886
:10126C0001F071F97B68012B28D101228021BC4847
:10127C0001F069F900224FF48071B94801F063F96B
:10128C0000224FF40071B64801F05DF901224FF4D1
:10129C008061B34801F057F901224FF40061B04866
:1012AC0001F051F901224FF48051AD4801F04BF996
:1012BC0001224FF40051AA4801F045F97B68022B3A
:1012CC0028D100228021A64801F03DF900224FF4DC
:1012DC008071A34801F037F901224FF40071A04846
:1012EC0001F031F900224FF480619D4801F02BF997
:1012FC0000224FF400619A4801F025F901224FF4C5
:10130C008051974801F01FF900224FF40051944886
:10131C0001F019F97B68032B28D100228021904819
:10132C0001F011F900224FF480718D4801F00BF996
:10133C0000224FF400718A4801F005F900224FF4A5
:10134C008061874801F0FFF801224FF40061844866
:10135C0001F0F9F801224FF48051814801F0F3F8C3
:10136C0000224FF400517E4801F0EDF87B68042B0D
:10137C0028D1012280217A4801F0E5F800224FF4AF
:10138C008071774801F0DFF800224FF40071744847
:10139C0001F0D9F801224FF48061714801F0D3F8C3
:1013AC0001224FF400616E4801F0CDF800224FF499
:1013BC0080516B4801F0C7F800224FF40051684887
:1013CC0001F0C1F87B68052B28D1002280216448EC
:1013DC0001F0B9F801224FF48071614801F0B3F8C3
:1013EC0000224FF400715E4801F0ADF800224FF47A
:1013FC0080615B4801F0A7F801224FF40061584866
:10140C0001F0A1F800224FF48051554801F09BF8EF
:10141C0000224FF40051524801F095F87B68062BDE
:10142C0028D1002280214E4801F08DF801224FF482
:10143C0080714B4801F087F800224FF40071484846
:10144C0001F081F800224FF48061454801F07BF8EF
:10145C0000224FF40061424801F075F800224FF46D
:10146C0080513F4801F06FF800224FF400513C4886
:10147C0001F069F87B68072B28D1002280213848BD
:10148C0001F061F800224FF48071354801F05BF8EF
:10149C0000224FF40071324801F055F801224FF44C
:1014AC0080612F4801F04FF801224FF400612C4865
:1014BC0001F049F801224FF48051294801F043F81A
:1014CC0001224FF40051264801F03DF87B68082BAF
:1014DC0028D100228021224801F035F800224FF457
:1014EC0080711F4801F02FF800224FF400711C4846
:1014FC0001F029F800224FF48061194801F023F81B
:10150C0000224FF40061164801F01DF800224FF440
:10151C008051134801F017F800224FF40051104885
:10152C0001F011F87B68092B2BD1002280210C488B
:10153C0001F009F800224FF48071094801F003F81A
:10154C0000224FF40071064800F0FDFF00224FF41A
:10155C008061034800F0F7FF01224FF4006101E0C5
:10156C0000080140094800F0EEFF00224FF48051C2
:10157C00064800F0E8FF00224FF40051034800F049
:10158C00E2FF00BF0837BD4680BD00BF0008014028
:10159C0080B582B000AF78607B68062B00F23F818B
:1015AC0001A252F823F000BFD1150008271600083D
:1015BC007D160008D3160008291700087F170008AD
:1015CC00D517000800224FF40071974800F0BBFFBC
:1015DC0001224FF48061944800F0B5FF01224FF4D2
:1015EC000061914800F0AFFF01224FF480518E480A
:1015FC0000F0A9FF01224FF400518B4800F0A3FF2B
:10160C0001224FF48041884800F09DFF01224FF4E5
:10161C000041854800F097FF02E101224FF4007170
:10162C00814800F090FF00224FF480617E4800F06A
:10163C008AFF01224FF400617B4800F084FF0122F5
:10164C004FF48051784800F07EFF01224FF4005196
:10165C00754800F078FF01224FF48041724800F089
:10166C0072FF01224FF400416F4800F06CFFD7E08D
:10167C0001224FF400716C4800F065FF01224FF419
:10168C008061694800F05FFF00224FF400616648FA
:10169C0000F059FF01224FF48051634800F053FFD2
:1016AC0001224FF40051604800F04DFF01224FF42D
:1016BC0080415D4800F047FF01224FF400415A4839
:1016CC0000F041FFACE001224FF40071564800F0ED
:1016DC003AFF01224FF48061534800F034FF01229D
:1016EC004FF40061504800F02EFF00224FF480515F
:1016FC004D4800F028FF01224FF400514A4800F0F9
:10170C0022FF01224FF48041474800F01CFF0122C8
:10171C004FF40041444800F016FF81E001224FF4E1
:10172C000071414800F00FFF01224FF480613E48E8
:10173C0000F009FF01224FF400613B4800F003FF69
:10174C0001224FF48051384800F0FDFE00224FF486
:10175C000051354800F0F7FE01224FF48041324829
:10176C0000F0F1FE01224FF400412F4800F0EBFE97
:10177C0056E001224FF400712B4800F0E4FE0122E8
:10178C004FF48061284800F0DEFE01224FF4006126
:10179C00254800F0D8FE01224FF48051224800F079
:1017AC00D2FE01224FF400511F4800F0CCFE002263
:1017BC004FF480411C4800F0C6FE01224FF400415A
:1017CC00194800F0C0FE2BE001224FF400711648BE
:1017DC0000F0B9FE01224FF48061134800F0B3FE13
:1017EC0001224FF40061104800F0ADFE01224FF4CD
:1017FC0080510D4800F0A7FE01224FF400510A4819
:10180C0000F0A1FE01224FF48041074800F09BFE3E
:10181C0000224FF40041044800F095FE00E000BFA8
:10182C0000BF0837BD4680BD000C014080B500AF3D
:10183C0001220821074800F086FE002220210548DD
:10184C0000F081FE00221021024800F07CFE00BF57
:10185C0080BD00BF000C014080B500AF0022082104
:10186C00074800F070FE00222021054800F06BFEB6
:10187C0001221021024800F066FE00BF80BD00BFAF
:10188C00000C014080B500AF00220821074800F091
:10189C005AFE01222021054800F055FE002210219D
:1018AC00024800F050FE00BF80BD00BF000C01409C
:1018BC0080B500AF01224021074800F044FE002211
:1018CC004FF48071044800F03EFE00228021024853
:1018DC0000F039FE00BF80BD000C014080B500AFA8
:1018EC0000224021074800F02EFE00224FF48071A8
:1018FC00044800F028FE01228021024800F023FE5B
:10190C0000BF80BD000C014080B500AF002240211B
:10191C00074800F018FE01224FF48071044800F0D3
:10192C0012FE00228021024800F00DFE00BF80BD97
:10193C00000C014080B500AF0821024800F01BFEEE
:10194C0000BF80BD000C014080B500AF40210248B3
:10195C0000F011FE00BF80BD000C014080B500AF4F
:10196C002021024800F007FE00BF80BD000C0140A2
:10197C0080B500AF4FF48071024800F0FCFD00BF51
:10198C0080BD00BF000C014080B500AF10210248A3
:10199C0000F0F1FD00BF80BD000C014080B500AF30
:1019AC008021024800F0E7FD00BF80BD000C014023
:1019BC0080B500AF002208210F4800F0C4FD0022C2
:1019CC0020210D4800F0BFFD002210210A4800F034
:1019DC00BAFD00224021084800F0B5FD00224FF46A
:1019EC008071054800F0AFFD00228021024800F014
:1019FC00AAFD00BF80BD00BF000C014080B500AF48
:101A0C0000F0A0FA00F098F800F01EF900F0D0F801
:101A1C00414801F0F5F901228021404800F093FD86
:101A2C0001224FF480713D4800F08DFD01224FF4EE
:101A3C0000713A4800F087FD01224FF4806137486D
:101A4C0000F081FD01224FF40061344800F07BFD71
:101A5C0001224FF48051314800F075FD01224FF402
:101A6C0000512E4800F06FFD01224FF400712C48FC
:101A7C0000F069FD01224FF48061294800F063FDFC
:101A8C0001224FF40061264800F05DFD01224FF465
:101A9C008051234800F057FD01224FF4005120489B
:101AAC0000F051FD01224FF480411D4800F04BFD28
:101ABC0001224FF400411A4800F045FD194B012258
:101ACC001A60194B05221A60184B01221A60184B28
:101ADC0000221A60174B0C221A600A21062000F013
:101AEC00A9F94FF4FA71042000F0A4F94FF4FA713B
:101AFC00052000F09FF9FEF70DFDFEF725FEFEF721
:101B0C0027FCFEF73DFFFFF74DF8FFF763F9FFF7F2
:101B1C00B3F9FFF703FAEEE780000020000801405C
:101B2C00000C01403C00002040000020540000202C
:101B3C00580000204400002080B590B000AF07F1A1
:101B4C00180328220021184601F00AFD3B1D002233
:101B5C001A605A609A60DA601A610223BB61012331
:101B6C00BB621023FB6200237B6307F1180318464A
:101B7C0000F01AFD0346002B01D000F0C7F80F232C
:101B8C007B600023BB600023FB6000233B610023D0
:101B9C007B613B1D0021184600F086FF0346002B9D
:101BAC0001D000F0B3F800BF4037BD4680BD000047
:101BBC0080B586B000AF07F1080300221A605A60A6
:101BCC009A60DA603B4600221A605A601D4B4FF057
:101BDC0080421A601B4B41F63F725A60194B00222F
:101BEC009A60184B0922DA60164B00221A61154BC9
:101BFC0000229A61134801F0B3F80346002B01D080
:101C0C0000F084F84FF48053BB6007F108031946C9
:101C1C000C4801F031FA0346002B01D000F076F8A5
:101C2C0000233B6000237B603B461946054801F0CE
:101C3C0009FC0346002B01D000F068F800BF1837F0
:101C4C00BD4680BD8000002080B586B000AF07F196
:101C5C00080300221A605A609A60DA60284B9B696C
:101C6C00274A43F004039361254B9B6903F004035B
:101C7C007B607B68224B9B69214A43F0080393618C
:101C8C001F4B9B6903F008033B603B6800224FF439
:101C9C007E511C4800F057FC00224FF6F8711A4890
:101CAC0000F051FC4FF47E53BB600123FB6000231A
:101CBC003B6102237B6107F108031946114800F0D0
:101CCC00B1FA0723BB600023FB6001233B6107F1E2
:101CDC00080319460C4800F0A5FA4FF6F873BB60E0
:101CEC000123FB6000233B6102237B6107F10803A6
:101CFC001946054800F096FA00BF1837BD4680BD5E
:101D0C000010024000080140000C014080B400AFFC
:101D1C0072B600BFFEE7000080B485B000AF154B73
:101D2C009B69144A43F001039361124B9B6903F0C6
:101D3C000103BB60BB680F4BDB690E4A43F0805359
:101D4C00D3610C4BDB6903F080537B607B680A4BDF
:101D5C005B68FB60FB6823F0E063FB60FB6843F0AF
:101D6C008063FB60044AFB68536000BF1437BD46B8
:101D7C0080BC7047001002400000014080B584B068
:101D8C0000AF78607B681B68B3F1804F13D10C4BAC
:101D9C00DB690B4A43F00103D361094BDB6903F0A8
:101DAC000103FB60FB68002200211C2000F003FAF9
:101DBC001C2000F01CFA00BF1037BD4680BD00BFD0
:101DCC000010024080B400AFFEE780B400AFFEE725
:101DDC0080B400AFFEE780B400AFFEE780B400AF84
:101DEC00FEE780B400AF00BFBD4680BC704780B436
:101DFC0000AF00BFBD4680BC704780B400AF00BFD1
:101E0C00BD4680BC704780B500AF00F0E1F800BF64
:101E1C0080BD000080B500AF024801F03DF800BF66
:101E2C0080BD00BF8000002080B400AF00BFBD4665
:101E3C0080BC704780B483B000AF786039603B6879
:101E4C00094A82FB03129210DB17D21A07497B68EE
:101E5C0041F82320064A7B68002142F8231000BF7A
:101E6C000C37BD4680BC704767666666C8000020AC
:101E7C00F000002080B483B000AF00237B601CE036
:101E8C00124A7B6852F82330002B13DD0F4A7B6813
:101E9C0052F823305A1E0D497B6841F823200B4A17
:101EAC007B6852F82330002B04DC094A7B68012143
:101EBC0042F823107B6801337B607B68092BDFDDE4
:101ECC0000BF00BF0C37BD4680BC7047C800002067
:101EDC00F000002080B582B000AF78607B681B6892
:101EEC00B3F1804F03D1FFF7B1F8FFF7C3FF00BF89
:101EFC000837BD4680BD0000FFF796FF0B480C4924
:101F0C000C4A002302E0D458C4500433C4188C4249
:101F1C00F9D3094A094C002301E013600432A242B0
:101F2C00FBD301F0F9FAFFF769FD704700000020C0
:101F3C000C000020C03500080C0000201C01002003
:101F4C00FEE7000080B500AF084B1B68074A43F062
:101F5C0010031360032000F023F90F2000F008F8A1
:101F6C00FFF7DAFE0023184680BD00BF00200240B8
:101F7C0080B582B000AF7860124B1A68124B1B7898
:101F8C0019464FF47A73B3FBF1F3B2FBF3F3184633
:101F9C0000F03BF90346002B01D001230EE07B68D7
:101FAC000F2B0AD8002279684FF0FF3000F003F9AC
:101FBC00064A7B681360002300E0012318460837AB
:101FCC00BD4680BD00000020080000200400002059
:101FDC0080B400AF054B1B781A46054B1B681344A5
:101FEC00034A136000BFBD4680BC70470800002048
:101FFC001801002080B400AF024B1B681846BD4688
:10200C0080BC70471801002080B485B000AF7860A8
:10201C007B6803F00703FB600C4BDB68BB60BA68A2
:10202C004FF6FF031340BB60FB681A02BB681343F7
:10203C0043F0BF6343F40033BB60044ABB68D36016
:10204C0000BF1437BD4680BC704700BF00ED00E0F8
:10205C0080B400AF044BDB681B0A03F0070318467F
:10206C00BD4680BC704700BF00ED00E080B483B07B
:10207C0000AF0346FB7197F90730002B0BDBFB79A4
:10208C0003F01F02064997F907305B09012000FA9B
:10209C0002F241F8232000BF0C37BD4680BC7047CC
:1020AC0000E100E080B483B000AF03463960FB71FF
:1020BC0097F90730002B0ADB3B68DAB20C4997F929
:1020CC0007301201D2B20B4483F800230AE03B68BC
:1020DC00DAB20849FB7903F00F03043B1201D2B2C8
:1020EC000B441A7600BF0C37BD4680BC704700BF4E
:1020FC0000E100E000ED00E080B489B000AFF860D2
:10210C00B9607A60FB6803F00703FB61FB69C3F1FC
:10211C000703042B28BF0423BB61FB690433062B84
:10212C0002D9FB69033B00E000237B614FF0FF32D7
:10213C00BB6902FA03F3DA43BB681A407B699A4025
:10214C004FF0FF317B6901FA03F3D9437B680B40F5
:10215C00134318462437BD4680BC704780B582B007
:10216C0000AF78607B68013BB3F1807F01D3012322
:10217C000FE00A4A7B68013B53600F214FF0FF30A0
:10218C00FFF790FF054B00229A60044B07221A6060
:10219C00002318460837BD4680BD00BF10E000E0A4
:1021AC0080B582B000AF78607868FFF72DFF00BF74
:1021BC000837BD4680BD80B586B000AF0346B96018
:1021CC007A60FB7300237B61FFF742FF78617A68CA
:1021DC00B9687869FFF790FF024697F90F301146FE
:1021EC001846FFF75FFF00BF1837BD4680BD80B5AE
:1021FC0082B000AF0346FB7197F907301846FFF722
:10220C0035FF00BF0837BD4680BD80B582B000AF3A
:10221C0078607868FFF7A2FF034618460837BD467A
:10222C0080BD000080B48BB000AF786039600023B3
:10223C007B6200233B6248E101227B6A02FA03F3D2
:10224C00FB613B681B68FA691340BB61BA69FB69A7
:10225C009A4240F037813B685B68A34A93425ED058
:10226C00A14A934275D8A14A934258D09F4A9342AF
:10227C006FD89F4A934252D09D4A934269D89D4A47
:10228C0093424CD09B4A934263D89B4A934246D08C
:10229C00994A93425DD8122B2AD8122B59D801A2F5
:1022AC0052F823F02B2300080523000817230008FD
:1022BC00592300085F2300085F2300085F230008F0
:1022CC005F2300085F2300085F2300085F230008DA
:1022DC005F2300085F2300085F2300085F230008CA
:1022EC005F2300085F2300080D230008212300084A
:1022FC00824A934213D02CE03B68DB683B6229E0B6
:10230C003B68DB6804333B6224E03B68DB680833E2
:10231C003B621FE03B68DB680C333B621AE03B68B6
:10232C009B68002B02D104233B6213E03B689B6843
:10233C00012B05D108233B627B68FA691A6109E01D
:10234C0008233B627B68FA695A6103E000233B6215
:10235C0000E000BFBB69FF2B01D87B6801E07B6804
:10236C0004337B61BB69FF2B02D87B6A9B0002E0C4
:10237C007B6A083B9B003B617B691A680F213B69B8
:10238C0001FA03F3DB431A40396A3B6901FA03F3A0
:10239C001A437B691A603B685B6803F08053002B1F
:1023AC0000F09080564B9B69554A43F001039361B2
:1023BC00534B9B6903F00103BB60BB68514A7B6ABA
:1023CC009B08023352F82330FB607B6A03F0030353
:1023DC009B000F2202FA03F3DB43FA681340FB6005
:1023EC007B68494A93420DD07B68484A934207D098
:1023FC007B68474A934201D1022304E0032302E0A5
:10240C00012300E000237A6A02F003029200934059
:10241C00FA681343FB603B497B6A9B080233FA68FA
:10242C0041F823203B685B6803F48013002B06D033
:10243C00384B9A683749BB6913438B6006E0354BC0
:10244C009A68BB69DB43334913408B603B685B681C
:10245C0003F40013002B06D02E4BDA682D49BB6910
:10246C001343CB6006E02B4BDA68BB69DB4329498D
:10247C001340CB603B685B6803F40033002B06D041
:10248C00244B5A682349BB6913434B6006E0214B2C
:10249C005A68BB69DB431F4913404B603B685B6860
:1024AC0003F48033002B06D01A4B1A681949BB6908
:1024BC0013430B6006E0174B1A68BB69DB431549E5
:1024CC0013400B607B6A01337B623B681A687B6A42
:1024DC0022FA03F3002B7FF4AFAE00BF00BF2C3702
:1024EC00BD4680BC704700BF0000321000003110A8
:1024FC00000022100000211000001210000011102A
:10250C00001002400000014000080140000C014096
:10251C00001001400004014080B485B000AF786029
:10252C000B467B807B689A687B881340002B02D01B
:10253C000123FB7301E00023FB73FB7B184614376C
:10254C00BD4680BC704780B483B000AF78600B464A
:10255C007B8013467B707B78002B03D07A887B685A
:10256C001A6103E07B881A047B681A6100BF0C3780
:10257C00BD4680BC704780B485B000AF78600B4618
:10258C007B807B68DB68FB607A88FB6813401A04ED
:10259C00FB68D9437B880B401A437B681A6100BFE8
:1025AC001437BD4680BC704780B586B000AF7860EC
:1025BC007B68002B01D101236CE27B681B6803F064
:1025CC000103002B00F08780924B5B6803F00C0337
:1025DC00042B0CD08F4B5B6803F00C03082B12D12F
:1025EC008C4B5B6803F48033B3F5803F0BD1894B84
:1025FC001B6803F40033002B6CD07B685B68002BEA
:10260C0068D1012346E27B685B68B3F5803F06D155
:10261C00804B1B687F4A43F4803313602EE07B6849
:10262C005B68002B0CD17B4B1B687A4A23F48033FC
:10263C001360784B1B68774A23F4802313601DE0EA
:10264C007B685B68B3F5A02F0CD1724B1B68714A89
:10265C0043F4802313606F4B1B686E4A43F4803342
:10266C0013600BE06B4B1B686A4A23F480331360D6
:10267C00684B1B68674A23F4802313607B685B6894
:10268C00002B13D0FFF7B6FC386108E0FFF7B2FC63
:10269C0002463B69D31A642B01D90323FAE15D4B43
:1026AC001B6803F40033002BF0D014E0FFF7A2FCFE
:1026BC00386108E0FFF79EFC02463B69D31A642B95
:1026CC0001D90323E6E1534B1B6803F40033002BC1
:1026DC00F0D100E000BF7B681B6803F00203002B05
:1026EC0063D04C4B5B6803F00C03002B0BD0494BB5
:1026FC005B6803F00C03082B1CD1464B5B6803F49E
:10270C008033002B16D1434B1B6803F00203002BC4
:10271C0005D07B681B69012B01D00123BAE13D4B2D
:10272C001B6823F0F8027B685B69DB0039491343B3
:10273C000B603AE07B681B69002B20D0364B0122E2
:10274C001A60FFF757FC386108E0FFF753FC0246AC
:10275C003B69D31A022B01D903239BE12D4B1B6838
:10276C0003F00203002BF0D02A4B1B6823F0F80275
:10277C007B685B69DB00274913430B6015E0264B34
:10278C0000221A60FFF736FC386108E0FFF732FCD4
:10279C0002463B69D31A022B01D903237AE11D4B64
:1027AC001B6803F00203002BF0D17B681B6803F05D
:1027BC000803002B3AD07B689B69002B19D0174B70
:1027CC0001221A60FFF716FC386108E0FFF712FCD3
:1027DC0002463B69D31A022B01D903235AE10D4B54
:1027EC005B6A03F00203002BF0D0012000F09AFA90
:1027FC001CE00A4B00221A60FFF7FCFB38610FE06B
:10280C00FFF7F8FB02463B69D31A022B08D90323C6
:10281C0040E100BF001002400000424280044242EE
:10282C009E4B5B6A03F00203002BE9D17B681B68AB
:10283C0003F00403002B00F0A6800023FB75974BDC
:10284C00DB6903F08053002B0DD1944BDB69934A69
:10285C0043F08053D361914BDB6903F08053BB6031
:10286C00BB680123FB758E4B1B6803F48073002B34
:10287C0018D18B4B1B688A4A43F480731360FFF7A3
:10288C00B9FB386108E0FFF7B5FB02463B69D31A88
:10289C00642B01D90323FDE0814B1B6803F4807387
:1028AC00002BF0D07B68DB68012B06D17B4B1B6ABD
:1028BC007A4A43F0010313622DE07B68DB68002B3E
:1028CC000CD1764B1B6A754A23F001031362734BD0
:1028DC001B6A724A23F0040313621CE07B68DB68FA
:1028EC00052B0CD16D4B1B6A6C4A43F0040313622D
:1028FC006A4B1B6A694A43F0010313620BE0674B96
:10290C001B6A664A23F001031362644B1B6A634A19
:10291C0023F0040313627B68DB68002B15D0FFF7F0
:10292C0069FB38610AE0FFF765FB02463B69D31A85
:10293C0041F28832934201D90323ABE0574B1B6A17
:10294C0003F00203002BEED014E0FFF753FB3861C9
:10295C000AE0FFF74FFB02463B69D31A41F288327B
:10296C00934201D9032395E04C4B1B6A03F00203FD
:10297C00002BEED1FB7D012B05D1484BDB69474A7F
:10298C0023F08053D3617B68DB69002B00F08180DE
:10299C00424B5B6803F00C03082B61D07B68DB694E
:1029AC00022B46D13F4B00221A60FFF723FB386104
:1029BC0008E0FFF71FFB02463B69D31A022B01D933
:1029CC00032367E0354B1B6803F00073002BF0D139
:1029DC007B681B6AB3F5803F08D1304B5B6823F4EE
:1029EC0000327B689B682D4913434B602B4B5B6813
:1029FC0023F474127B68196A7B685B6A0B43274962
:102A0C0013434B60274B01221A60FFF7F3FA38612E
:102A1C0008E0FFF7EFFA02463B69D31A022B01D903
:102A2C00032337E01D4B1B6803F00073002BF0D021
:102A3C002FE01C4B00221A60FFF7DCFA386108E02B
:102A4C00FFF7D8FA02463B69D31A022B01D90323AC
:102A5C0020E0124B1B6803F00073002BF0D118E040
:102A6C007B68DB69012B01D1012313E00B4B5B6805
:102A7C00FB60FB6803F480327B681B6A9A4206D1C8
:102A8C00FB6803F470127B685B6A9A4201D00123E5
:102A9C0000E0002318461837BD4680BD00100240E8
:102AAC00007000406000424280B584B000AF786096
:102ABC0039607B68002B01D10123D0E06A4B1B6885
:102ACC0003F007033A689A4210D9674B1B6823F04E
:102ADC00070265493B6813430B60634B1B6803F0AB
:102AEC0007033A689A4201D00123B8E07B681B685F
:102AFC0003F00203002B20D07B681B6803F0040357
:102B0C00002B05D0594B5B68584A43F4E063536083
:102B1C007B681B6803F00803002B05D0534B5B68E4
:102B2C00524A43F460535360504B5B6823F0F002FD
:102B3C007B689B684D4913434B607B681B6803F0B3
:102B4C000103002B40D07B685B68012B07D1474BFE
:102B5C001B6803F40033002B15D101237FE07B6845
:102B6C005B68022B07D1414B1B6803F00073002BF1
:102B7C0009D1012373E03D4B1B6803F00203002BCA
:102B8C0001D101236BE0394B5B6823F003027B68B6
:102B9C005B68364913434B60FFF72CFAF8600AE088
:102BAC00FFF728FA0246FB68D31A41F288329342A7
:102BBC0001D9032353E02D4B5B6803F00C027B68B7
:102BCC005B689B009A42EBD1274B1B6803F0070311
:102BDC003A689A4210D2244B1B6823F00702224910
:102BEC003B6813430B60204B1B6803F007033A68E8
:102BFC009A4201D0012332E07B681B6803F0040386
:102C0C00002B08D0194B5B6823F4E0627B68DB680F
:102C1C00164913434B607B681B6803F00803002BB9
:102C2C0009D0124B5B6823F460527B681B69DB0094
:102C3C000E4913434B6000F021F802460B4B5B68C6
:102C4C001B0903F00F030A49CB5C22FA03F3094A70
:102C5C001360094B1B681846FFF78AF900231846C6
:102C6C001037BD4680BD00BF00200240001002405E
:102C7C0094350008000000200400002080B487B0C8
:102C8C0000AF0023FB600023BB6000237B610023AB
:102C9C007B6000233B611E4B5B68FB60FB6803F0B1
:102CAC000C03042B02D0082B03D027E0194B3B61FB
:102CBC0027E0FB689B0C03F00F03174AD35C7B6087
:102CCC00FB6803F48033002B10D0114B5B685B0C5A
:102CDC0003F00103114AD35CBB607B680D4A02FB15
:102CEC0003F2BB68B2FBF3F37B6104E07B680C4A34
:102CFC0002FB03F37B617B693B6102E0054B3B61AB
:102D0C0000BF3B6918461C37BD4680BC704700BFEE
:102D1C000010024000127A00A4350008B4350008F7
:102D2C0000093D0080B485B000AF78600A4B1B6889
:102D3C000A4AA2FB03235B0A7A6802FB03F3FB60DB
:102D4C0000BFFB685A1EFA60002BF9D100BF00BF10
:102D5C001437BD4680BC704700000020D34D621074
:102D6C0080B582B000AF78607B68002B01D1012365
:102D7C0041E07B6893F83D30DBB2002B06D17B68D9
:102D8C00002283F83C207868FEF7F8FF7B6802226B
:102D9C0083F83D207B681A687B680433194610461B
:102DAC0000F056FA7B68012283F846207B680122EA
:102DBC0083F83E207B68012283F83F207B68012248
:102DCC0083F840207B68012283F841207B68012234
:102DDC0083F842207B68012283F843207B68012220
:102DEC0083F844207B68012283F845207B6801220C
:102DFC0083F83D20002318460837BD4680BD0000EF
:102E0C0080B485B000AF78607B6893F83D30DBB25E
:102E1C00012B01D0012335E07B68022283F83D2091
:102E2C007B681B68DA687B681B6842F00102DA6019
:102E3C007B681B68164A934209D07B681B68B3F108
:102E4C00804F04D07B681B68124A934211D17B6877
:102E5C001B689B6803F00703FB60FB68062B10D014
:102E6C007B681B681A687B681B6842F001021A6059
:102E7C0007E07B681B681A687B681B6842F00102DC
:102E8C001A60002318461437BD4680BC704700BF3B
:102E9C00002C01400004004080B584B000AF786085
:102EAC007B681B68DB68FB607B681B681B69BB600D
:102EBC00BB6803F00203002B20D0FB6803F0020375
:102ECC00002B1BD07B681B686FF002021A617B68B9
:102EDC0001221A777B681B689B6903F00303002BA4
:102EEC0003D0786800F098F905E0786800F08BF969
:102EFC00786800F09AF97B6800221A77BB6803F0B7
:102F0C000403002B20D0FB6803F00403002B1BD020
:102F1C007B681B686FF004021A617B6802221A77C7
:102F2C007B681B689B6903F44073002B03D07868A3
:102F3C0000F072F905E0786800F065F9786800F047
:102F4C0074F97B6800221A77BB6803F00803002B26
:102F5C0020D0FB6803F00803002B1BD07B681B6898
:102F6C006FF008021A617B6804221A777B681B6871
:102F7C00DB6903F00303002B03D0786800F04CF9F5
:102F8C0005E0786800F03FF9786800F04EF97B684E
:102F9C0000221A77BB6803F01003002B20D0FB68CB
:102FAC0003F01003002B1BD07B681B686FF0100222
:102FBC001A617B6808221A777B681B68DB6903F44B
:102FCC004073002B03D0786800F026F905E0786890
:102FDC0000F019F9786800F028F97B6800221A775C
:102FEC00BB6803F00103002B0CD0FB6803F001035A
:102FFC00002B07D07B681B686FF001021A617868A0
:10300C00FEF768FFBB6803F08003002B0CD0FB6855
:10301C0003F08003002B07D07B681B686FF08002E5
:10302C001A61786800F06FFABB6803F04003002B5C
:10303C000CD0FB6803F04003002B07D07B681B68A7
:10304C006FF040021A61786800F0F8F8BB6803F082
:10305C002003002B0CD0FB6803F02003002B07D0BF
:10306C007B681B686FF020021A61786800F042FAE6
:10307C0000BF1037BD4680BD80B584B000AF78600E
:10308C0039600023FB737B6893F83C30012B01D132
:10309C000223B4E07B68012283F83C207B68022287
:1030AC0083F83D207B681B689B68BB60BB6823F082
:1030BC007703BB60BB6823F47F43BB607B681B68F2
:1030CC00BA689A603B681B68B3F5005F3ED0B3F5F5
:1030DC00005F00F28780B3F5805F00F08680B3F567
:1030EC00805F7FD8702B1AD0702B7BD8602B50D080
:1030FC00602B77D8502B3CD0502B73D8402B58D00A
:10310C00402B6FD8302B64D0302B6BD8202B60D059
:10311C00202B67D8002B5CD0102B5AD062E07B6838
:10312C0018683B6899683B685A683B68DB6800F034
:10313C006AF97B681B689B68BB60BB6843F07703CC
:10314C00BB607B681B68BA689A604FE07B68186844
:10315C003B6899683B685A683B68DB6800F053F938
:10316C007B681B689A687B681B6842F480429A6093
:10317C003CE07B6818683B6859683B68DB681A461A
:10318C0000F0CAF87B681B685021184600F021F942
:10319C002CE07B6818683B6859683B68DB681A460A
:1031AC0000F0E8F87B681B686021184600F011F904
:1031BC001CE07B6818683B6859683B68DB681A46FA
:1031CC0000F0AAF87B681B684021184600F001F952
:1031DC000CE07B681A683B681B681946104600F0C7
:1031EC00F8F803E00123FB7300E000BF7B680122C9
:1031FC0083F83D207B68002283F83C20FB7B18463B
:10320C001037BD4680BD80B483B000AF786000BF7E
:10321C000C37BD4680BC704780B483B000AF78607B
:10322C0000BF0C37BD4680BC704780B483B000AF84
:10323C00786000BF0C37BD4680BC704780B483B04B
:10324C0000AF786000BF0C37BD4680BC70470000F3
:10325C0080B485B000AF786039607B681B68FB6018
:10326C007B682B4A934207D07B68B3F1804F03D025
:10327C007B68284A934208D1FB6823F07003FB60FB
:10328C003B685B68FA681343FB607B68204A934297
:10329C0007D07B68B3F1804F03D07B681D4A934203
:1032AC0008D1FB6823F44073FB603B68DB68FA6869
:1032BC001343FB60FB6823F080023B685B6913439C
:1032CC00FB607B68FA681A603B689A687B68DA6214
:1032DC003B681A687B689A627B680D4A934203D1FB
:1032EC003B681A697B681A637B6801225A617B68A8
:1032FC001B6903F00103002B05D07B681B6923F0CD
:10330C0001027B681A6100BF1437BD4680BC704750
:10331C00002C01400004004080B487B000AFF8607E
:10332C00B9607A60FB681B6A7B61FB681B6A23F0DF
:10333C000102FB681A62FB689B693B613B6923F0E5
:10334C00F0033B617B681B013A6913433B617B696A
:10335C0023F00A037B617A69BB6813437B61FB68CA
:10336C003A699A61FB687A691A6200BF1C37BD46DC
:10337C0080BC704780B487B000AFF860B9607A60E9
:10338C00FB681B6A7B61FB681B6A23F01002FB68FD
:10339C001A62FB689B693B613B6923F470433B6198
:1033AC007B681B033A6913433B617B6923F0A003E1
:1033BC007B61BB681B017A6913437B61FB683A69CB
:1033CC009A61FB687A691A6200BF1C37BD4680BCE3
:1033DC00704780B485B000AF786039607B689B68BB
:1033EC00FB60FB6823F07003FB603A68FB681343D7
:1033FC0043F00703FB607B68FA689A6000BF1437E0
:10340C00BD4680BC704780B487B000AFF860B9602F
:10341C007A603B60FB689B687B617B6923F47F432C
:10342C007B613B681A027B681A43BB6813437A6959
:10343C0013437B61FB687A699A6000BF1C37BD46F9
:10344C0080BC704780B485B000AF786039607B6811
:10345C0093F83C30012B01D1022341E07B6801221F
:10346C0083F83C207B68022283F83D207B681B6834
:10347C005B68FB607B681B689B68BB60FB6823F028
:10348C007003FB603B681B68FA681343FB607B6846
:10349C001B68FA685A607B681B68144A934209D00F
:1034AC007B681B68B3F1804F04D07B681B68104AA3
:1034BC0093420CD1BB6823F08003BB603B685B6814
:1034CC00BA681343BB607B681B68BA689A607B68F8
:1034DC00012283F83D207B68002283F83C200023E6
:1034EC0018461437BD4680BC704700BF002C014005
:1034FC000004004080B483B000AF786000BF0C378C
:10350C00BD4680BC704780B483B000AF786000BF0C
:10351C000C37BD4680BC704770B500260C4D0D4C69
:10352C00641BA410A64209D100F022F800260A4D13
:10353C000A4C641BA410A64205D170BD55F8043B7F
:10354C0098470136EEE755F8043B98470136F2E709
:10355C00B8350008B8350008B8350008BC35000887
:10356C0003460244934200D1704703F8011BF9E76C
:10357C00F8B500BFF8BC08BC9E467047F8B500BF54
:08358C00F8BC08BC9E46704724
:1035940000000000000000000102030406070809FF
:1035A40002030405060708090A0B0C0D0E0F101080
:0435B4000102000010
:0435B80031010008D5
:0435BC000D010008F5
:0C35C00000127A00100000000100000062
:0400000508001F05CB
:00000001FF
