:020000040800F2
:100000000028002029210008F91F0008FF1F000810
:10001000052000080B200008112000080000000047
:100020000000000000000000000000001720000891
:1000300023200008000000002F2000083B200008BB
:100040007121000871210008712100087121000848
:100050007121000871210008712100087121000838
:100060007121000871210008712100087121000828
:100070007121000871210008712100087121000818
:100080007121000871210008712100087121000808
:1000900071210008712100087121000871210008F8
:1000A00071210008712100087121000871210008E8
:1000B000492000087121000800000000712100089B
:1000C00071210008000000000000000071210008FC
:1000D00000000000712100087121000800000000EC
:1000E0007121000871210008712100080000000042
:1000F0000000000000000000000000000000000000
:0C01000000000000000000005FF808F1A3
:10010C0010B5054C237833B9044B13B10448AFF345
:10011C0000800123237010BD10000020000000009F
:10012C00A037000808B5034B1BB103490348AFF3D4
:10013C00008008BD0000000014000020A03700085B
:10014C0080B500AF01F056F90346012B35D11C4B9D
:10015C001B68022B0CD11B4B01221A601A4B00227C
:10016C001A601A4B00221A60194B1B68194A13604B
:10017C00134B1B68032B0CD1124B00221A60124B31
:10018C0001221A60114B00221A60114B1B68114A94
:10019C0013600B4B1B68042B0FD10F4B01221A6001
:1001AC00084B00221A60084B00221A60074B0122F0
:1001BC001A60074B1B68074A136000BF80BD00BF65
:1001CC005800002034000020380000203C000020A3
:1001DC005C000020400000203000002080B500AF03
:1001EC001A4B1B68012B02D1194B00221A60174BBA
:1001FC001B68022B08D1174B1B68002B04D1164B24
:10020C0008221A6001F0EAFC104B1B68032B0BD17F
:10021C00104B00221A60114B1B68002B04D10E4BA3
:10022C0009221A6001F0DAFC084B1B68042B0BD175
:10023C000A4B00221A60064B1B68002B04D1064B9C
:10024C000A221A6001F0CAFC00BF80BD58000020D1
:10025C003C00002034000020440000203800002026
:10026C0080B500AF354B1B68012B37D1344B0022C6
:10027C001A60344B1B68012B30D1324B00221A60B0
:10028C00314B02221A6041F28831002001F0E6FE67
:10029C006421022001F0E2FE2C4B1B682C4A82FBED
:1002AC0003125211DB17D31A2A4A13602A4B03226A
:1002BC001A6040F6B831012001F0D0FE6421032011
:1002CC0001F0CCFE214B5B68214A82FB03125211D8
:1002DC00DB17D31A214A136001F080FC174B1B6803
:1002EC00022B08D11E4B1B68002B04D11A4B082281
:1002FC001A6001F073FC114B1B68032B0BD1184BCC
:10030C0000221A60174B1B68002B04D1124B0922D8
:10031C001A6001F063FC094B1B68042B0BD1114BC9
:10032C0000221A60064B1B68002B04D10A4B0A22D0
:10033C001A6001F053FC00BF80BD00BF58000020C4
:10034C003C0000203000002044000020CC000020A5
:10035C001F85EB514C00002048000020500000206D
:10036C00340000203800002080B500AF4E4B9B6855
:10037C00012B18D14D4B1B68013B4C4A13604B4B66
:10038C001B68002B0ADC4A4B1B684A4A82FB03128F
:10039C005211DB17D31A0133444A13604FF47A71AC
:1003AC00022001F05BFE404BDB68012B18D1424B65
:1003BC001B68013B404A13603F4B1B68002B0ADC57
:1003CC003B4B5B683B4A82FB03125211DB17D31A7F
:1003DC000133394A13604FF47A71032001F03EFE69
:1003EC00314B9B69012B5DD1344B1B68002B0BD11E
:1003FC00314B1B68324A82FB03129210DB17D31A63
:10040C00184601F0E5F838E02C4B1B68012B10D195
:10041C00294B1A682A4B83FB02139910D317C91A5C
:10042C000B469B000B445B00D11A084601F0D0F838
:10043C0023E0224B1B68022B0BD11C4B1B68204A60
:10044C0082FB03129210DB17D31A184601F0C0F886
:10045C0013E01A4B1B68032B0FD1144B1A68184B63
:10046C0083FB02139910D317C91A0B469B000B443C
:10047C005B00D11A084601F0ABF8104B1B6818460C
:10048C0001F06CFA0D4B1B6801330C4A13600B4BDB
:10049C001B68042B02DD094B00221A60FA2106208E
:1004AC0001F0DCFD00BF80BDF40000204C000020FA
:1004BC00CC0000201F85EB51500000202C000020A8
:1004CC006766666680B500AF284B9B69012B4AD1E5
:1004DC00274B1B68184601F041FA254B1B68002B73
:1004EC0003D1002001F074F82DE0214B1B68012B87
:1004FC0005D1204B1B68184601F06AF823E01C4B11
:10050C001B68022B0BD11C4B1B681C4A82FB031271
:10051C009210DB17D31A184601F05AF813E0144B5B
:10052C001B68032B0FD1144B1A68144B83FB02135B
:10053C009910D317C91A0B469B000B445B00D11AB8
:10054C00084601F045F80A4B1B680133084A136052
:10055C00074B1B68042B02DD054B00221A6064213B
:10056C00062001F07BFD00BF80BD00BFF400002021
:10057C002C000020580000205C0000206766666696
:10058C0080B500AF894B1B68013B032B00F2048143
:10059C0001A252F823F000BFB5050008E3050008DE
:1005AC004F060008BB060008804B02221A6041F27D
:1005BC008831002001F052FD6421022001F04EFD33
:1005CC007B4B1B687B4A82FB03125211DB17D31A3D
:1005DC00794A1360E7E001F03FFAFFF7C5FEFFF739
:1005EC00AFFDFFF7FBFD754B1B68012B40F0D68070
:1005FC00734B1B68012B19D101F0F0FA6B4B0622DF
:10060C001A60704B1B684FF47A7202FB03F31946A5
:10061C00002001F023FD664B1B68664A82FB031227
:10062C005211DB17D31A644A1360B7E001F0D6FA03
:10063C005E4B03221A6040F6B831002001F00EFD2B
:10064C00ACE001F035FAFFF78FFEFFF779FDFFF70D
:10065C00C5FD5A4B1B68012B40F0A2805A4B1B68FE
:10066C00012B19D101F0BAFA504B07221A60554BE5
:10067C001B684FF47A7202FB03F31946002001F059
:10068C00EDFC4B4B1B684B4A82FB03125211DB17E0
:10069C00D31A494A136083E001F0A0FA434B0422B9
:1006AC001A604FF4FA61002001F0D8FC78E001F0F8
:1006BC00E9F9FFF759FEFFF743FDFFF78FFD3F4BBD
:1006CC001B68012B6ED1414B1B68012B19D101F01A
:1006DC0085FA364B05221A603A4B1B684FF47A7236
:1006EC0002FB03F31946002001F0B8FC304B1B68E9
:1006FC00304A82FB03125211DB17D31A2E4A1360B5
:10070C0050E02F4B1B68012B1BD101F067FA274BD4
:10071C0002221A602B4B1B684FF47A7202FB03F314
:10072C0003F5FA631946002001F098FC204B1B6876
:10073C00204A82FB03125211DB17D31A1E4A136094
:10074C0030E0214B1B68012B1BD101F047FA174BF2
:10075C0002221A601B4B1B684FF47A7202FB03F3E4
:10076C0003F6B8331946002001F078FC104B1B68D7
:10077C00104A82FB03125211DB17D31A0E4A136074
:10078C0010E001F02BFA094B02221A6041F2883179
:10079C00002001F063FC05E000BF04E000BF02E0B4
:1007AC0000BF00E000BF00BF80BD00BF44000020C0
:1007BC00CC0000201F85EB514C000020F4000020E1
:1007CC0038000020400000203C00002034000020B5
:1007DC0080B500AFB14B1B68013B032B00F2558178
:1007EC0001A252F823F000BF0508000837080008E2
:1007FC00D90800087B09000801F09CF9A74B0322DB
:10080C001A6040F6B831012001F028FC6421032065
:10081C0001F024FCA24B5B68A24A82FB031252112A
:10082C00DB17D31AA04A136036E101F057F9FFF732
:10083C0087FCFFF715FD9D4B1B68012B18D101F0B0
:10084C00CDF9964B05221A60994B1B684FF47A72BE
:10085C0002FB03F31946012001F000FC904B5B688E
:10086C00904A82FB03125211DB17D31A8E4A136083
:10087C00904B5B68012B40F00A818F4B1B68012B5E
:10088C0019D101F0ABF9854B06221A60884B1B6815
:10089C004FF47A7202FB03F31946012001F0DEFBE0
:1008AC007F4B5B687F4A82FB03125211DB17D31A12
:1008BC007D4A1360EBE001F091F9784B03221A604A
:1008CC0040F6B831012001F0C9FBE0E001F032F94B
:1008DC00FFF736FCFFF7C4FC774B1B68012B18D1D4
:1008EC0001F07CF96D4B06221A60714B1B684FF4BA
:1008FC007A7202FB03F31946012001F0AFFB684B3F
:10090C005B68684A82FB03125211DB17D31A664AE2
:10091C001360684B5B68012B40F0BB80674B1B6816
:10092C00012B19D101F05AF95C4B07221A60604B6C
:10093C001B684FF47A7202FB03F31946012001F095
:10094C008DFB574B5B68574A82FB03125211DB1726
:10095C00D31A554A13609CE001F040F94F4B042226
:10096C001A604FF4FA61012001F078FB91E001F07C
:10097C00CBF8FFF7E5FBFFF773FC504B1B68012B23
:10098C0018D101F02BF9454B07221A60484B1B6814
:10099C004FF47A7202FB03F31946012001F05EFB5F
:1009AC003F4B5B683F4A82FB03125211DB17D31A91
:1009BC003D4A13603F4B5B68012B6CD13B4B1B6872
:1009CC00012B18D101F00AF9344B05221A60384B6F
:1009DC001B684FF47A7202FB03F31946012001F0F5
:1009EC003DFB2F4B5B682F4A82FB03125211DB1726
:1009FC00D31A2D4A1360304B1B68012B1AD101F00E
:100A0C00EDF8264B02221A60294B1B684FF47A72C0
:100A1C0002FB03F303F5FA631946012001F01EFBF8
:100A2C001F4B5B681F4A82FB03125211DB17D31A50
:100A3C001D4A1360214B1B68012B1BD101F0CEF812
:100A4C00164B02221A601A4B1B684FF47A7202FB87
:100A5C0003F303F6B8331946012001F0FFFA104BEB
:100A6C005B68104A82FB03125211DB17D31A0E4A31
:100A7C00136010E001F0B2F841F28831012001F06E
:100A8C00EDFA064B02221A6005E000BF04E000BF3D
:100A9C0002E000BF00E000BF00BF80BD48000020A6
:100AAC00CC0000201F85EB515000002034000020AA
:100ABC0040000020F4000020380000203C00002002
:100ACC0080B500AF994B1B68053B052B00F2F081FC
:100ADC0001A252F823F000BF9D0B0008B90C0008CE
:100AEC00210E0008FD0A0008190C0008650D00080D
:100AFC008F4B1B69012B06D101F032F84FF4FA71C0
:100B0C00042001F0ABFA8B4B1B68032B04D1874BF1
:100B1C0009221A6001F062F8FFF7D4FCFFF710FB12
:100B2C00854B1B68012B40F0C581804B05221A6058
:100B3C00824B1B684FF47A7202FB03F319460020B8
:100B4C0001F08CFA7E4B1B687E4A82FB0312521119
:100B5C00DB17D31A7C4A13607C4B03221A60774B49
:100B6C001B684FF47A7202FB03F3A3F5FA63194680
:100B7C00012001F073FA724B5B68724A82FB03121C
:100B8C005211DB17D31A724A136001F027F891E166
:100B9C00674B1B69012B06D100F0E2FF4FF4FA7191
:100BAC00042001F05BFAFFF719FBFFF7DDFB604B4C
:100BBC001B68012B40F0808101F010F85B4B032285
:100BCC001A605D4B1B68012B0CD15C4B1B684FF4FE
:100BDC007A7202FB03F3A3F5FA631946002001F0C5
:100BEC003DFA04E040F6B831002001F037FA0A2152
:100BFC00022001F033FA524B1B68524A82FB03125B
:100C0C005211DB17D31A504A136055E1484B1B693C
:100C1C00012B06D100F0B8FF4FF4FA71042001F05B
:100C2C001DFA444B1B68042B04D1404B0A221A605A
:100C3C0000F0D4FFFFF746FCFFF782FA454B1B6828
:100C4C00012B40F03B81394B02221A603B4B1B6855
:100C5C004FF47A7202FB03F303F5FA631946002092
:100C6C0001F0FCF9364B1B68364A82FB0312521119
:100C7C00DB17D31A344A1360344B06221A602F4BFD
:100C8C001B684FF47A7202FB03F31946012001F042
:100C9C00E5F92B4B5B682B4A82FB03125211DB17D5
:100CAC00D31A2B4A136000F099FF07E1204B1B6904
:100CBC00012B06D14FF4FA71042001F0CFF900F0AA
:100CCC0063FFFFF78BFAFFF74FFB194B1B68012BE8
:100CDC0040F0F68000F082FF144B04221A60164B91
:100CEC001B68012B0ED1154B1B68012B0FDC134B12
:100CFC001B684FF47A7202FB03F31946002001F0D3
:100D0C00ADF904E04FF4FA61002001F0A7F90A21D3
:100D1C00022001F0A3F90A4B1B680A4A82FB03125A
:100D2C005211DB17D31A084A1360C9E044000020A3
:100D3C00F400002058000020340000204000002067
:100D4C00CC0000201F85EB514C00002048000020F7
:100D5C0050000020380000205D4B1B69012B06D190
:100D6C0000F028FF4FF4FA71042001F077F9594B89
:100D7C001B68012B17D1584B02221A6041F28831A3
:100D8C00002001F06BF96421022001F067F9534B4C
:100D9C001B68534A82FB03125211DB17D31A514AB8
:100DAC00136000F01BFFFFF78DFBFFF7C9F94E4BEB
:100DBC001B68012B40F08680474B02221A604B4B7C
:100DCC001B684FF47A7202FB03F303F6B83319462F
:100DDC00002001F043F9414B1B68414A82FB03128E
:100DEC005211DB17D31A3F4A1360414B03221A608E
:100DFC0040F6B831012001F031F9384B5B68384AC4
:100E0C0082FB03125211DB17D31A3A4A136000F01B
:100E1C00E5FE57E02E4B1B69012B06D14FF4FA71FE
:100E2C00042001F01BF900F0C5FEFFF7D7F9FFF71E
:100E3C009BFA274B1B68012B46D100F0CFFE264BAB
:100E4C0002221A602C4B1B68012B0CD1274B1B6800
:100E5C004FF47A7202FB03F303F5FA631946002090
:100E6C0001F0FCF815E0204B1B68012B0CD11F4B3B
:100E7C001B684FF47A7202FB03F303F6B83319467E
:100E8C00002001F0EBF804E041F28831002001F081
:100E9C00E5F80A21022001F0E1F8104B1B68104A1A
:100EAC0082FB03125211DB17D31A0E4A13600BE0AC
:100EBC0000BF0AE000BF08E000BF06E000BF04E08E
:100ECC0000BF02E000BF00E000BF00BF80BD00BF5C
:100EDC00F40000205800002044000020CC0000202A
:100EEC001F85EB514C0000203C00002040000020EE
:100EFC0048000020500000203800002080B500AFD2
:100F0C009B4B1B68053B052B00F2228101A252F87A
:100F1C0023F000BF690F000811100008C51000086D
:100F2C00390F0008E10F00088D100008FFF7CAFA0E
:100F3C00904B5B69012B06D100F01CFE4FF4FA714B
:100F4C00052001F08BF88C4B1B68032B40F00281C1
:100F5C00874B09221A6000F041FEFBE0854B5B6970
:100F6C00012B06D100F006FE4FF4FA71052001F0BA
:100F7C0075F8FFF775F97F4B5B68012B40F0EC803F
:100F8C0000F02CFE7A4B03221A607C4B1B68012B61
:100F9C000CD17B4B1B684FF47A7202FB03F3A3F565
:100FAC00FA631946012001F059F804E040F6B83113
:100FBC00012001F053F80A21032001F04FF8714B86
:100FCC005B68714A82FB03125211DB17D31A6F4A0A
:100FDC001360C1E0FFF776FA664B5B69012B06D113
:100FEC0000F0DCFD4FF4FA71052001F037F8624B8C
:100FFC001B68042B40F0B2805D4B0A221A6000F093
:10100C00EDFDABE05B4B5B69012B06D100F0C6FD3F
:10101C004FF4FA71052001F021F8FFF721F9554B37
:10102C005B68012B40F09C8000F0D8FD504B0422F3
:10103C001A60524B1B68012B0ED1514B1B68012BB4
:10104C000FDC4F4B1B684FF47A7202FB03F319460B
:10105C00012001F003F804E04FF4FA61012000F0E4
:10106C00FDFF0A21032000F0F9FF464B5B68464A5E
:10107C0082FB03125211DB17D31A444A13606FE040
:10108C00FFF720FA3B4B5B69012B06D100F09CFD6E
:10109C004FF4FA71052000F0E1FF374B1B68012B70
:1010AC0060D100F09BFD324B03221A6040F6B83140
:1010BC00012000F0D3FF55E02E4B5B69012B06D1CC
:1010CC0000F082FD4FF4FA71052000F0C7FFFFF726
:1010DC00C7F8284B5B68012B46D100F07FFD244BF1
:1010EC0002221A602A4B1B68012B0CD1244B1B6863
:1010FC004FF47A7202FB03F303F5FA6319460120ED
:10110C0000F0ACFF15E0234B1B68012B0CD11C4BE2
:10111C001B684FF47A7202FB03F303F6B8331946DB
:10112C00012000F09BFF04E041F28831012000F027
:10113C0095FF0A21032000F091FF124B5B68124AC5
:10114C0082FB03125211DB17D31A104A13600BE007
:10115C0000BF0AE000BF08E000BF06E000BF04E0EB
:10116C0000BF02E000BF00E000BF00BF80BD00BFB9
:10117C0048000020F400002058000020340000201B
:10118C0040000020CC0000201F85EB5150000020B7
:10119C00380000203C00002080B500AF264B1B78A7
:1011AC00022B38D0022B45DC002B02D0012B1ED099
:1011BC0040E0002000F0D8F90346002B35D01E4B40
:1011CC0001221A7000F0DAF80346012B2DD11B4BCB
:1011DC001B680133194A1360194B00221A60174B14
:1011EC001B68042B21DD154B01221A601DE0002029
:1011FC0000F0BAF90346002B03D10F4B00221A70F2
:10120C0015E0002000F0CAF90346012B0FD10A4B60
:10121C0002221A700BE0002000F0A6F90346002B06
:10122C0007D1054B00221A7003E000BF02E000BF9B
:10123C0000E000BF00BF80BD54000020580000201B
:10124C005C00002080B500AF254B1B78022B35D0FD
:10125C00022B42DC002B02D0012B1BD03DE00120E5
:10126C0000F082F90346002B32D01D4B01221A707C
:10127C0000F0A2F80346012B2AD11A4B1B6801334C
:10128C00184A1360174B1B68632B21DD154B00228A
:10129C001A601DE0012000F067F90346002B03D112
:1012AC000F4B00221A7015E0012000F077F903466D
:1012BC00012B0FD10A4B02221A700BE0012000F017
:1012CC0053F90346002B07D1054B00221A7003E09B
:1012DC0000BF02E000BF00E000BF00BF80BD00BF48
:1012EC00550000205C00002080B500AF1C4B1B7823
:1012FC00022B24D0022B31DC002B02D0012B0AD084
:10130C002CE0022000F030F90346002B21D0144BC6
:10131C0001221A701DE0022000F026F90346002B72
:10132C0003D10F4B00221A7015E0022000F036F9A1
:10133C000346012B0FD10A4B02221A700BE002203C
:10134C0000F012F90346002B07D1054B00221A704E
:10135C0003E000BF02E000BF00E000BF00BF80BDA3
:10136C005600002080B400AF034B01221A6000BF6E
:10137C00BD4680BC704700BF7800002080B400AF31
:10138C00064B1B68012B04D1044B00221A6001236D
:10139C0000E000231846BD4680BC70477800002052
:1013AC0080B400AF034B01221A6000BFBD4680BC65
:1013BC00704700BF7C00002080B400AF064B1B6858
:1013CC00012B04D1044B00221A60012300E00023FE
:1013DC001846BD4680BC70477C00002080B400AF2E
:1013EC00034B01221A6000BFBD4680BC704700BF92
:1013FC008000002080B400AF064B1B68012B04D189
:10140C00044B00221A60012300E000231846BD465D
:10141C0080BC70478000002080B582B000AF0023F4
:10142C00FB718BE0FA79FB794949895C494AD154C3
:10143C00FB79002B08D10121474801F07FF90346C5
:10144C001A46434B1A7016E0FB79012B08D1022186
:10145C00414801F073F903461A463D4B5A700AE0B5
:10146C00FB79022B07D104213B4801F067F90346B5
:10147C001A46374B9A70FB79354AD25CFB79354961
:10148C00CB5C9A424ED1FA79FB793149895C334A6B
:10149C00D154FB79314AD35C002B4CD1FB79002B16
:1014AC0002D1FFF75FFF0AE0FB79012B02D1FFF7B6
:1014BC0077FF04E0FB79022B01D1FFF78FFFFB795B
:1014CC00274A32F81330632B0ED8FB79254AD35CAC
:1014DC00002B09D1FB79224A32F81320013291B248
:1014EC001F4A22F8131026E0FB791E4A0121D15421
:1014FC00FB791B4A32F81330952B09D8FB79184A23
:10150C0032F81320013291B2154A22F8131012E06E
:10151C00FB79124A0121D154FB79114A642122F83A
:10152C00131008E0FB790E4A002122F81310FB7906
:10153C000C4A0021D154FB790133FB71FB79022B4E
:10154C007FF670AF00BF00BF0837BD4680BD00BF3F
:10155C006400002068000020000C014060000020A6
:10156C00700000206C00002080B483B000AF0346F4
:10157C00FB71FB79022B01D9002307E0FB79064AAA
:10158C00D35C002B0CBF01230023DBB218460C37B5
:10159C00BD4680BC704700BF6000002080B483B0A3
:1015AC0000AF0346FB71FB79022B01D9FF2307E047
:1015BC00FB79064AD35C012B0CBF01230023DBB261
:1015CC0018460C37BD4680BC704700BF6C0000202D
:1015DC0080B582B000AF78607B68002B28D10022E8
:1015EC008021D24801F0C1F800224FF48071CF481D
:1015FC0001F0BBF800224FF40071CC4801F0B5F8B3
:10160C0000224FF48061C94801F0AFF800224FF47A
:10161C000061C64801F0A9F800224FF48051C3487C
:10162C0001F0A3F801224FF40051C04801F09DF8DD
:10163C007B68012B28D101228021BC4801F095F850
:10164C0000224FF48071B94801F08FF800224FF45A
:10165C000071B64801F089F801224FF48061B3485B
:10166C0001F083F801224FF40061B04801F07DF8DD
:10167C0001224FF48051AD4801F077F801224FF46C
:10168C000051AA4801F071F87B68022B28D1002286
:10169C008021A64801F069F800224FF48071A3481C
:1016AC0001F063F801224FF40071A04801F05DF8DD
:1016BC0000224FF480619D4801F057F800224FF44E
:1016CC0000619A4801F051F801224FF4805197487B
:1016DC0001F04BF800224FF40051944801F045F80A
:1016EC007B68032B28D100228021904801F03DF823
:1016FC0000224FF480718D4801F037F800224FF42E
:10170C0000718A4801F031F800224FF4806187485B
:10171C0001F02BF801224FF40061844801F025F808
:10172C0001224FF48051814801F01FF800224FF440
:10173C0000517E4801F019F87B68042B28D1012256
:10174C0080217A4801F011F800224FF4807177481B
:10175C0001F00BF800224FF40071744801F005F809
:10176C0001224FF48061714800F0FFFF01224FF419
:10177C0000616E4800F0F9FF00224FF480516B4875
:10178C0000F0F3FF00224FF40051684800F0EDFF29
:10179C007B68052B28D100228021644800F0E5FFEE
:1017AC0001224FF48071614800F0DFFF00224FF4FA
:1017BC0000715E4800F0D9FF00224FF480615B4855
:1017CC0000F0D3FF01224FF40061584800F0CDFF28
:1017DC0000224FF48051554800F0C7FF00224FF40F
:1017EC000051524800F0C1FF7B68062B28D1002223
:1017FC0080214E4800F0B9FF01224FF480714B4814
:10180C0000F0B3FF00224FF40071484800F0ADFF28
:10181C0000224FF48061454800F0A7FF00224FF4EE
:10182C000061424800F0A1FF00224FF480513F4874
:10183C0000F09BFF00224FF400513C4800F095FF54
:10184C007B68072B28D100228021384800F08DFFBF
:10185C0000224FF48071354800F087FF00224FF4CE
:10186C000071324800F081FF01224FF480612F4853
:10187C0000F07BFF01224FF400612C4800F075FF53
:10188C0001224FF48051294800F06FFF01224FF4E0
:10189C000051264800F069FF7B68082B28D10022F4
:1018AC008021224800F061FF00224FF480711F4814
:1018BC0000F05BFF00224FF400711C4800F055FF54
:1018CC0000224FF48061194800F04FFF00224FF4C2
:1018DC000061164800F049FF00224FF48051134874
:1018EC0000F043FF00224FF40051104800F03DFF80
:1018FC007B68092B2BD1002280210C4800F035FF8E
:10190C0000224FF48071094800F02FFF00224FF4A1
:10191C000071064800F029FF00224FF48061034853
:10192C0000F023FF01224FF4006101E000080140A8
:10193C00094800F01AFF00224FF48051064800F0CD
:10194C0014FF00224FF40051034800F00EFF00BFBB
:10195C000837BD4680BD00BF0008014080B582B08D
:10196C0000AF78607B68032B6ED801A252F823F08D
:10197C008D190008BF190008F1190008231A000876
:10198C0000224FF40071334800F0EFFE01224FF4B7
:10199C008061304800F0E9FE01224FF400612D48CF
:1019AC0000F0E3FE01224FF480512A4800F0DDFEE6
:1019BC004BE001224FF40071264800F0D6FE0022C5
:1019CC004FF48061234800F0D0FE01224FF40061F7
:1019DC00204800F0CAFE01224FF480511D4800F04F
:1019EC00C4FE32E001224FF400711A4800F0BDFE33
:1019FC0001224FF48061174800F0B7FE00224FF42B
:101A0C000061144800F0B1FE01224FF480511148DE
:101A1C0000F0ABFE19E001224FF400710D4800F00C
:101A2C00A4FE01224FF480610A4800F09EFE0122C0
:101A3C004FF40061074800F098FE00224FF48051EB
:101A4C00044800F092FE00E000BF00BF0837BD461E
:101A5C0080BD00BF000C014080B500AF0122082101
:101A6C00074800F082FE00222021054800F07DFE90
:101A7C0000221021024800F078FE00BF80BD00BF9C
:101A8C00000C014080B500AF00220821074800F08F
:101A9C006CFE00222021054800F067FE0122102177
:101AAC00024800F062FE00BF80BD00BF000C014088
:101ABC0080B500AF00220821074800F056FE012235
:101ACC002021054800F051FE00221021024800F0B0
:101ADC004CFE00BF80BD00BF000C014080B500AFC4
:101AEC0001224021074800F040FE00224FF4807193
:101AFC00044800F03AFE00228021024800F035FE36
:101B0C0000BF80BD000C014080B500AF0022402119
:101B1C00074800F02AFE00224FF48071044800F0C0
:101B2C0024FE01228021024800F01FFE00BF80BD70
:101B3C00000C014080B500AF00224021074800F0A6
:101B4C0014FE01224FF48071044800F00EFE0022B6
:101B5C008021024800F009FE00BF80BD000C01404E
:101B6C0080B500AF0821024800F017FE00BF80BD11
:101B7C00000C014080B500AF4021024800F00DFE82
:101B8C0000BF80BD000C014080B500AF2021024891
:101B9C0000F003FE00BF80BD000C014080B500AF1B
:101BAC004FF48071024800F0F8FD00BF80BD00BF0B
:101BBC00000C014080B500AF1021024800F0EDFD93
:101BCC0000BF80BD000C014080B500AF80210248F1
:101BDC0000F0E3FD00BF80BD000C014080B500AFFC
:101BEC00002208210F4800F0C0FD002220210D48E2
:101BFC0000F0BBFD002210210A4800F0B6FD0022C7
:101C0C004021084800F0B1FD00224FF480710548D6
:101C1C0000F0ABFD00228021024800F0A6FD00BFC1
:101C2C0080BD00BF000C014080B500AF00F09CFAF5
:101C3C0000F096F800F01CF900F0CEF8404801F0E6
:101C4C00F1F9012280213F4800F08FFD01224FF471
:101C5C0080713C4800F089FD01224FF40071394835
:101C6C0000F083FD01224FF48061364800F07DFDC9
:101C7C0001224FF40061334800F077FD01224FF44C
:101C8C008051304800F071FD01224FF400512D4875
:101C9C0000F06BFD01224FF400712B4800F065FD44
:101CAC0001224FF48061284800F05FFD01224FF4BF
:101CBC000061254800F059FD01224FF48051224863
:101CCC0000F053FD01224FF400511F4800F04DFD70
:101CDC0001224FF480411C4800F047FD01224FF4D3
:101CEC000041194800F041FD184B01221A60184BB5
:101CFC0001221A60174B01221A60174B00221A603E
:101D0C00164B00221A600A21062000F0A7F94FF4A6
:101D1C00FA71042000F0A2F94FF4FA71052000F0DA
:101D2C009DF9FEF72DFCFEF753FDFEF7C9FEFFF7FC
:101D3C00E5F8FFF731FAFFF785FAFFF7D5FAF0E788
:101D4C008400002000080140000C014044000020E9
:101D5C0048000020580000205C0000202C000020CF
:101D6C0080B590B000AF07F1180328220021184667
:101D7C0001F008FD3B1D00221A605A609A60DA607F
:101D8C001A610223BB610123BB621023FB62002397
:101D9C007B6307F11803184600F018FD0346002B6F
:101DAC0001D000F0C7F80F237B600023BB60002339
:101DBC00FB6000233B6100237B613B1D0021184627
:101DCC0000F084FF0346002B01D000F0B3F800BFF5
:101DDC004037BD4680BD000080B586B000AF07F12E
:101DEC00080300221A605A609A60DA603B460022AF
:101DFC001A605A601D4B4FF080421A601B4B41F623
:101E0C003F725A60194B00229A60184B0922DA6013
:101E1C00164B00221A61154B00229A61134801F0EF
:101E2C00B1F80346002B01D000F084F84FF4805336
:101E3C00BB6007F1080319460C4801F02FFA034662
:101E4C00002B01D000F076F800233B6000237B6070
:101E5C003B461946054801F007FC0346002B01D010
:101E6C0000F068F800BF1837BD4680BD8400002024
:101E7C0080B586B000AF07F1080300221A605A60E3
:101E8C009A60DA60284B9B69274A43F004039361FC
:101E9C00254B9B6903F004037B607B68224B9B6999
:101EAC00214A43F0080393611F4B9B6903F008031D
:101EBC003B603B6800224FF47E511C4800F055FCFF
:101ECC0000224FF6F8711A4800F04FFC4FF47E5385
:101EDC00BB600123FB6000233B6102237B6107F1A4
:101EEC0008031946114800F0AFFA0723BB60002322
:101EFC00FB6001233B6107F1080319460C4800F015
:101F0C00A3FA4FF6F873BB600123FB6000233B611F
:101F1C0002237B6107F108031946054800F094FA87
:101F2C0000BF1837BD4680BD0010024000080140BC
:101F3C00000C014080B400AF72B600BFFEE7000099
:101F4C0080B485B000AF154B9B69144A43F0010374
:101F5C009361124B9B6903F00103BB60BB680F4B91
:101F6C00DB690E4A43F08053D3610C4BDB6903F001
:101F7C0080537B607B680A4B5B68FB60FB6823F0DB
:101F8C00E063FB60FB6843F08063FB60044AFB6822
:101F9C00536000BF1437BD4680BC70470010024030
:101FAC000000014080B584B000AF78607B681B688E
:101FBC00B3F1804F13D10C4BDB690B4A43F0010397
:101FCC00D361094BDB6903F00103FB60FB68002262
:101FDC0000211C2000F001FA1C2000F01AFA00BFAE
:101FEC001037BD4680BD00BF0010024080B400AF6A
:101FFC00FEE780B400AFFEE780B400AFFEE780B42C
:10200C0000AFFEE780B400AFFEE780B400AF00BFC6
:10201C00BD4680BC704780B400AF00BFBD4680BCDD
:10202C00704780B400AF00BFBD4680BC704780B520
:10203C0000AF00F0DFF800BF80BD000080B500AF3E
:10204C00024801F03BF800BF80BD00BF84000020B7
:10205C0080B400AF00BFBD4680BC704780B483B075
:10206C0000AF78603960094B1B683A6892FBF3F259
:10207C0007497B6841F82320064A7B68002142F817
:10208C00231000BF0C37BD4680BC704704000020F5
:10209C00CC000020F400002080B483B000AF0023FB
:1020AC007B601CE0124A7B6852F82330002B13DD56
:1020BC000F4A7B6852F823305A1E0D497B6841F851
:1020CC0023200B4A7B6852F82330002B04DC094A8E
:1020DC007B68012142F823107B6801337B607B68AD
:1020EC00092BDFDD00BF00BF0C37BD4680BC70473D
:1020FC00CC000020F400002080B582B000AF7860E6
:10210C007B681B68B3F1804F03D1FFF785F9FFF7AC
:10211C00C3FF00BF0837BD4680BD0000FFF798FF26
:10212C000B480C490C4A002302E0D458C450043329
:10213C00C4188C42F9D3094A094C002301E01360FE
:10214C000432A242FBD301F0F9FAFFF76DFD7047A0
:10215C000000002010000020E437000810000020D0
:10216C0020010020FEE7000080B500AF084B1B6883
:10217C00074A43F010031360032000F023F90F20EB
:10218C0000F008F8FFF7DCFE0023184680BD00BF06
:10219C000020024080B582B000AF7860124B1A6804
:1021AC00124B1B7819464FF47A73B3FBF1F3B2FB65
:1021BC00F3F3184600F03BF90346002B01D0012342
:1021CC000EE07B680F2B0AD8002279684FF0FF30A5
:1021DC0000F003F9064A7B681360002300E001233A
:1021EC0018460837BD4680BD000000200C000020BA
:1021FC000800002080B400AF054B1B781A46054B35
:10220C001B681344034A136000BFBD4680BC704773
:10221C000C0000201C01002080B400AF024B1B6896
:10222C001846BD4680BC70471C01002080B485B0A8
:10223C0000AF78607B6803F00703FB600C4BDB6836
:10224C00BB60BA684FF6FF031340BB60FB681A0211
:10225C00BB68134343F0BF6343F40033BB60044AD1
:10226C00BB68D36000BF1437BD4680BC704700BF4D
:10227C0000ED00E080B400AF044BDB681B0A03F0F8
:10228C0007031846BD4680BC704700BF00ED00E058
:10229C0080B483B000AF0346FB7197F90730002B75
:1022AC000BDBFB7903F01F02064997F907305B093A
:1022BC00012000FA02F241F8232000BF0C37BD4682
:1022CC0080BC704700E100E080B483B000AF0346EF
:1022DC003960FB7197F90730002B0ADB3B68DAB2E7
:1022EC000C4997F907301201D2B20B4483F8002342
:1022FC000AE03B68DAB20849FB7903F00F03043BB0
:10230C001201D2B20B441A7600BF0C37BD4680BC0A
:10231C00704700BF00E100E000ED00E080B489B040
:10232C0000AFF860B9607A60FB6803F00703FB61EB
:10233C00FB69C3F10703042B28BF0423BB61FB69B2
:10234C000433062B02D9FB69033B00E000237B61BD
:10235C004FF0FF32BB6902FA03F3DA43BB681A4051
:10236C007B699A404FF0FF317B6901FA03F3D94343
:10237C007B680B40134318462437BD4680BC70471E
:10238C0080B582B000AF78607B68013BB3F1807F91
:10239C0001D301230FE00A4A7B68013B53600F21F4
:1023AC004FF0FF30FFF790FF054B00229A60044B73
:1023BC0007221A60002318460837BD4680BD00BFAF
:1023CC0010E000E080B582B000AF78607868FFF76D
:1023DC002DFF00BF0837BD4680BD80B586B000AF6D
:1023EC000346B9607A60FB7300237B61FFF742FF01
:1023FC0078617A68B9687869FFF790FF024697F9B7
:10240C000F3011461846FFF75FFF00BF1837BD4667
:10241C0080BD80B582B000AF0346FB7197F90730E1
:10242C001846FFF735FF00BF0837BD4680BD80B5A5
:10243C0082B000AF78607868FFF7A2FF03461846B9
:10244C000837BD4680BD000080B48BB000AF78600B
:10245C00396000237B6200233B6248E101227B6AE6
:10246C0002FA03F3FB613B681B68FA691340BB611A
:10247C00BA69FB699A4240F037813B685B68A34AB2
:10248C0093425ED0A14A934275D8A14A934258D048
:10249C009F4A93426FD89F4A934252D09D4A93428F
:1024AC0069D89D4A93424CD09B4A934263D89B4A2D
:1024BC00934246D0994A93425DD8122B2AD8122BBC
:1024CC0059D801A252F823F04F25000829250008FD
:1024DC003B2500087D25000883250008832500087E
:1024EC008325000883250008832500088325000820
:1024FC008325000883250008832500088325000810
:10250C008325000883250008832500083125000851
:10251C0045250008824A934213D02CE03B68DB68C7
:10252C003B6229E03B68DB6804333B6224E03B6898
:10253C00DB6808333B621FE03B68DB680C333B62B3
:10254C001AE03B689B68002B02D104233B6213E02A
:10255C003B689B68012B05D108233B627B68FA69B9
:10256C001A6109E008233B627B68FA695A6103E04F
:10257C0000233B6200E000BFBB69FF2B01D87B68E6
:10258C0001E07B6804337B61BB69FF2B02D87B6A5B
:10259C009B0002E07B6A083B9B003B617B691A68ED
:1025AC000F213B6901FA03F3DB431A40396A3B699B
:1025BC0001FA03F31A437B691A603B685B6803F00A
:1025CC008053002B00F09080564B9B69554A43F08A
:1025DC0001039361534B9B6903F00103BB60BB6820
:1025EC00514A7B6A9B08023352F82330FB607B6AAA
:1025FC0003F003039B000F2202FA03F3DB43FA6898
:10260C001340FB607B68494A93420DD07B68484A73
:10261C00934207D07B68474A934201D1022304E0DE
:10262C00032302E0012300E000237A6A02F0030294
:10263C0092009340FA681343FB603B497B6A9B080A
:10264C000233FA6841F823203B685B6803F480137B
:10265C00002B06D0384B9A683749BB6913438B6003
:10266C0006E0354B9A68BB69DB43334913408B60FA
:10267C003B685B6803F40013002B06D02E4BDA6822
:10268C002D49BB691343CB6006E02B4BDA68BB6961
:10269C00DB4329491340CB603B685B6803F4003390
:1026AC00002B06D0244B5A682349BB6913434B605B
:1026BC0006E0214B5A68BB69DB431F4913404B6052
:1026CC003B685B6803F48033002B06D01A4B1A6806
:1026DC001949BB6913430B6006E0174B1A68BB69B9
:1026EC00DB43154913400B607B6A01337B623B680B
:1026FC001A687B6A22FA03F3002B7FF4AFAE00BF9B
:10270C0000BF2C37BD4680BC704700BF00003210A4
:10271C0000003110000022100000211000001210E7
:10272C0000001110001002400000014000080140A0
:10273C00000C0140001001400004014080B485B041
:10274C0000AF78600B467B807B689A687B8813406F
:10275C00002B02D00123FB7301E00023FB73FB7BF6
:10276C0018461437BD4680BC704780B483B000AFA8
:10277C0078600B467B8013467B707B78002B03D0F4
:10278C007A887B681A6103E07B881A047B681A617B
:10279C0000BF0C37BD4680BC704780B485B000AF1D
:1027AC0078600B467B807B68DB68FB607A88FB6813
:1027BC0013401A04FB68D9437B880B401A437B688F
:1027CC001A6100BF1437BD4680BC704780B586B017
:1027DC0000AF78607B68002B01D101236CE27B6831
:1027EC001B6803F00103002B00F08780924B5B68A1
:1027FC0003F00C03042B0CD08F4B5B6803F00C0321
:10280C00082B12D18C4B5B6803F48033B3F5803FFB
:10281C000BD1894B1B6803F40033002B6CD07B6805
:10282C005B68002B68D1012346E27B685B68B3F5DB
:10283C00803F06D1804B1B687F4A43F48033136082
:10284C002EE07B685B68002B0CD17B4B1B687A4AB3
:10285C0023F480331360784B1B68774A23F480236E
:10286C0013601DE07B685B68B3F5A02F0CD1724B35
:10287C001B68714A43F4802313606F4B1B686E4ACC
:10288C0043F4803313600BE06B4B1B686A4A23F4F0
:10289C0080331360684B1B68674A23F480231360F2
:1028AC007B685B68002B13D0FFF7B6FC386108E03F
:1028BC00FFF7B2FC02463B69D31A642B01D9032300
:1028CC00FAE15D4B1B6803F40033002BF0D014E0ED
:1028DC00FFF7A2FC386108E0FFF79EFC02463B695B
:1028EC00D31A642B01D90323E6E1534B1B6803F481
:1028FC000033002BF0D100E000BF7B681B6803F0B5
:10290C000203002B63D04C4B5B6803F00C03002BD1
:10291C000BD0494B5B6803F00C03082B1CD1464BC6
:10292C005B6803F48033002B16D1434B1B6803F018
:10293C000203002B05D07B681B69012B01D00123FE
:10294C00BAE13D4B1B6823F0F8027B685B69DB0046
:10295C00394913430B603AE07B681B69002B20D08C
:10296C00364B01221A60FFF757FC386108E0FFF77D
:10297C0053FC02463B69D31A022B01D903239BE17A
:10298C002D4B1B6803F00203002BF0D02A4B1B6865
:10299C0023F0F8027B685B69DB00274913430B606B
:1029AC0015E0264B00221A60FFF736FC386108E070
:1029BC00FFF732FC02463B69D31A022B01D90323E1
:1029CC007AE11D4B1B6803F00203002BF0D17B68EE
:1029DC001B6803F00803002B3AD07B689B69002B23
:1029EC0019D0174B01221A60FFF716FC386108E06A
:1029FC00FFF712FC02463B69D31A022B01D90323C1
:102A0C005AE10D4B5B6A03F00203002BF0D001205E
:102A1C0000F09AFA1CE00A4B00221A60FFF7FCFB4C
:102A2C0038610FE0FFF7F8FB02463B69D31A022B23
:102A3C0008D9032340E100BF0010024000004242CD
:102A4C00800442429E4B5B6A03F00203002BE9D1E7
:102A5C007B681B6803F00403002B00F0A6800023A6
:102A6C00FB75974BDB6903F08053002B0DD1944B16
:102A7C00DB69934A43F08053D361914BDB6903F0DC
:102A8C008053BB60BB680123FB758E4B1B6803F442
:102A9C008073002B18D18B4B1B688A4A43F48073CC
:102AAC001360FFF7B9FB386108E0FFF7B5FB02468E
:102ABC003B69D31A642B01D90323FDE0814B1B68BE
:102ACC0003F48073002BF0D07B68DB68012B06D1FC
:102ADC007B4B1B6A7A4A43F0010313622DE07B683F
:102AEC00DB68002B0CD1764B1B6A754A23F0010373
:102AFC001362734B1B6A724A23F0040313621CE0CB
:102B0C007B68DB68052B0CD16D4B1B6A6C4A43F060
:102B1C00040313626A4B1B6A694A43F00103136294
:102B2C000BE0674B1B6A664A23F001031362644B8C
:102B3C001B6A634A23F0040313627B68DB68002B77
:102B4C0015D0FFF769FB38610AE0FFF765FB024619
:102B5C003B69D31A41F28832934201D90323ABE08B
:102B6C00574B1B6A03F00203002BEED014E0FFF767
:102B7C0053FB38610AE0FFF74FFB02463B69D31A5F
:102B8C0041F28832934201D9032395E04C4B1B6AE6
:102B9C0003F00203002BEED1FB7D012B05D1484B3A
:102BAC00DB69474A23F08053D3617B68DB69002BD8
:102BBC0000F08180424B5B6803F00C03082B61D062
:102BCC007B68DB69022B46D13F4B00221A60FFF772
:102BDC0023FB386108E0FFF71FFB02463B69D31A61
:102BEC00022B01D9032367E0354B1B6803F00073FC
:102BFC00002BF0D17B681B6AB3F5803F08D1304BBA
:102C0C005B6823F400327B689B682D4913434B604F
:102C1C002B4B5B6823F474127B68196A7B685B6AC4
:102C2C000B43274913434B60274B01221A60FFF7D4
:102C3C00F3FA386108E0FFF7EFFA02463B69D31A62
:102C4C00022B01D9032337E01D4B1B6803F00073E3
:102C5C00002BF0D02FE01C4B00221A60FFF7DCFA9F
:102C6C00386108E0FFF7D8FA02463B69D31A022B09
:102C7C0001D9032320E0124B1B6803F00073002BD7
:102C8C00F0D118E07B68DB69012B01D1012313E043
:102C9C000B4B5B68FB60FB6803F480327B681B6A40
:102CAC009A4206D1FB6803F470127B685B6A9A4205
:102CBC0001D0012300E0002318461837BD4680BD23
:102CCC0000100240007000406000424280B584B0A9
:102CDC0000AF786039607B68002B01D10123D0E014
:102CEC006A4B1B6803F007033A689A4210D9674B8A
:102CFC001B6823F0070265493B6813430B60634B69
:102D0C001B6803F007033A689A4201D00123B8E02C
:102D1C007B681B6803F00203002B20D07B681B68C8
:102D2C0003F00403002B05D0594B5B68584A43F45D
:102D3C00E06353607B681B6803F00803002B05D02D
:102D4C00534B5B68524A43F460535360504B5B687F
:102D5C0023F0F0027B689B684D4913434B607B6802
:102D6C001B6803F00103002B40D07B685B68012BD0
:102D7C0007D1474B1B6803F40033002B15D10123FB
:102D8C007FE07B685B68022B07D1414B1B6803F02B
:102D9C000073002B09D1012373E03D4B1B6803F03A
:102DAC000203002B01D101236BE0394B5B6823F04C
:102DBC0003027B685B68364913434B60FFF72CFAC0
:102DCC00F8600AE0FFF728FA0246FB68D31A41F2D2
:102DDC008832934201D9032353E02D4B5B6803F0F7
:102DEC000C027B685B689B009A42EBD1274B1B68FB
:102DFC0003F007033A689A4210D2244B1B6823F065
:102E0C00070222493B6813430B60204B1B6803F0FD
:102E1C0007033A689A4201D0012332E07B681B68B1
:102E2C0003F00403002B08D0194B5B6823F4E06219
:102E3C007B68DB68164913434B607B681B6803F0A7
:102E4C000803002B09D0124B5B6823F460527B689B
:102E5C001B69DB000E4913434B6000F021F802465E
:102E6C000B4B5B681B0903F00F030A49CB5C22FA7E
:102E7C0003F3094A1360094B1B681846FFF78AF9DC
:102E8C00002318461037BD4680BD00BF002002400D
:102E9C0000100240B8370008000000200800002095
:102EAC0080B487B000AF0023FB600023BB6000231D
:102EBC007B6100237B6000233B611E4B5B68FB60E6
:102ECC00FB6803F00C03042B02D0082B03D027E083
:102EDC00194B3B6127E0FB689B0C03F00F03174A6F
:102EEC00D35C7B60FB6803F48033002B10D0114B58
:102EFC005B685B0C03F00103114AD35CBB607B681D
:102F0C000D4A02FB03F2BB68B2FBF3F37B6104E0F6
:102F1C007B680C4A02FB03F37B617B693B6102E03B
:102F2C00054B3B6100BF3B6918461C37BD4680BC56
:102F3C00704700BF0010024000127A00C83700082A
:102F4C00D837000800093D0080B485B000AF786028
:102F5C000A4B1B680A4AA2FB03235B0A7A6802FB32
:102F6C0003F3FB6000BFFB685A1EFA60002BF9D11B
:102F7C0000BF00BF1437BD4680BC70470000002066
:102F8C00D34D621080B582B000AF78607B68002BA7
:102F9C0001D1012341E07B6893F83D30DBB2002B7B
:102FAC0006D17B68002283F83C207868FEF7FAFF94
:102FBC007B68022283F83D207B681A687B680433A7
:102FCC001946104600F056FA7B68012283F8462019
:102FDC007B68012283F83E207B68012283F83F2026
:102FEC007B68012283F840207B68012283F8412012
:102FFC007B68012283F842207B68012283F84320FE
:10300C007B68012283F844207B68012283F84520E9
:10301C007B68012283F83D20002318460837BD4603
:10302C0080BD000080B485B000AF78607B6893F8F9
:10303C003D30DBB2012B01D0012335E07B6802224D
:10304C0083F83D207B681B68DA687B681B6842F05C
:10305C000102DA607B681B68164A934209D07B68D0
:10306C001B68B3F1804F04D07B681B68124A9342F3
:10307C0011D17B681B689B6803F00703FB60FB683E
:10308C00062B10D07B681B681A687B681B6842F0A3
:10309C0001021A6007E07B681B681A687B681B6872
:1030AC0042F001021A60002318461437BD4680BC5A
:1030BC00704700BF002C01400004004080B584B074
:1030CC0000AF78607B681B68DB68FB607B681B6803
:1030DC001B69BB60BB6803F00203002B20D0FB68AC
:1030EC0003F00203002B1BD07B681B686FF00202FD
:1030FC001A617B6801221A777B681B689B6903F055
:10310C000303002B03D0786800F098F905E0786889
:10311C0000F08BF9786800F09AF97B6800221A7736
:10312C00BB6803F00403002B20D0FB6803F00403FE
:10313C00002B1BD07B681B686FF004021A617B6844
:10314C0002221A777B681B689B6903F44073002B7F
:10315C0003D0786800F072F905E0786800F065F942
:10316C00786800F074F97B6800221A77BB6803F06A
:10317C000803002B20D0FB6803F00803002B1BD0A6
:10318C007B681B686FF008021A617B6804221A774F
:10319C007B681B68DB6903F00303002B03D07868A2
:1031AC0000F04CF905E0786800F03FF9786800F021
:1031BC004EF97B6800221A77BB6803F01003002BD2
:1031CC0020D0FB6803F01003002B1BD07B681B681E
:1031DC006FF010021A617B6808221A777B681B68F3
:1031EC00DB6903F44073002B03D0786800F026F9F8
:1031FC0005E0786800F019F9786800F028F97B6828
:10320C0000221A77BB6803F00103002B0CD0FB687B
:10321C0003F00103002B07D07B681B686FF00102E1
:10322C001A617868FEF768FFBB6803F08003002B17
:10323C000CD0FB6803F08003002B07D07B681B6865
:10324C006FF080021A61786800F06FFABB6803F0C7
:10325C004003002B0CD0FB6803F04003002B07D07D
:10326C007B681B686FF040021A61786800F0F8F810
:10327C00BB6803F02003002B0CD0FB6803F0200389
:10328C00002B07D07B681B686FF020021A617868EE
:10329C0000F042FA00BF1037BD4680BD80B584B047
:1032AC0000AF786039600023FB737B6893F83C3087
:1032BC00012B01D10223B4E07B68012283F83C206E
:1032CC007B68022283F83D207B681B689B68BB608F
:1032DC00BB6823F07703BB60BB6823F47F43BB6000
:1032EC007B681B68BA689A603B681B68B3F5005F23
:1032FC003ED0B3F5005F00F28780B3F5805F00F03D
:10330C008680B3F5805F7FD8702B1AD0702B7BD85A
:10331C00602B50D0602B77D8502B3CD0502B73D8CF
:10332C00402B58D0402B6FD8302B64D0302B6BD81F
:10333C00202B60D0202B67D8002B5CD0102B5AD0C0
:10334C0062E07B6818683B6899683B685A683B6820
:10335C00DB6800F06AF97B681B689B68BB60BB6824
:10336C0043F07703BB607B681B68BA689A604FE0D8
:10337C007B6818683B6899683B685A683B68DB68EF
:10338C0000F053F97B681B689A687B681B6842F4F1
:10339C0080429A603CE07B6818683B6859683B68DF
:1033AC00DB681A4600F0CAF87B681B685021184687
:1033BC0000F021F92CE07B6818683B6859683B6881
:1033CC00DB681A4600F0E8F87B681B686021184639
:1033DC0000F011F91CE07B6818683B6859683B6881
:1033EC00DB681A4600F0AAF87B681B684021184677
:1033FC0000F001F90CE07B681A683B681B68194601
:10340C00104600F0F8F803E00123FB7300E000BF66
:10341C007B68012283F83D207B68002283F83C20E6
:10342C00FB7B18461037BD4680BD80B483B000AF1F
:10343C00786000BF0C37BD4680BC704780B483B049
:10344C0000AF786000BF0C37BD4680BC704780B4BD
:10345C0083B000AF786000BF0C37BD4680BC7047AE
:10346C0080B483B000AF786000BF0C37BD4680BC21
:10347C007047000080B485B000AF786039607B681D
:10348C001B68FB607B682B4A934207D07B68B3F1C7
:10349C00804F03D07B68284A934208D1FB6823F005
:1034AC007003FB603B685B68FA681343FB607B68E6
:1034BC00204A934207D07B68B3F1804F03D07B68DE
:1034CC001D4A934208D1FB6823F44073FB603B68B0
:1034DC00DB68FA681343FB60FB6823F080023B68EF
:1034EC005B691343FB607B68FA681A603B689A68F7
:1034FC007B68DA623B681A687B689A627B680D4A63
:10350C00934203D13B681A697B681A637B6801227A
:10351C005A617B681B6903F00103002B05D07B68A3
:10352C001B6923F001027B681A6100BF1437BD468A
:10353C0080BC7047002C01400004004080B487B070
:10354C0000AFF860B9607A60FB681B6A7B61FB684E
:10355C001B6A23F00102FB681A62FB689B693B61E2
:10356C003B6923F0F0033B617B681B013A69134311
:10357C003B617B6923F00A037B617A69BB68134367
:10358C007B61FB683A699A61FB687A691A6200BFD1
:10359C001C37BD4680BC704780B487B000AFF86064
:1035AC00B9607A60FB681B6A7B61FB681B6A23F05D
:1035BC001002FB681A62FB689B693B613B6923F450
:1035CC0070433B617B681B033A6913433B617B6926
:1035DC0023F0A0037B61BB681B017A6913437B61F9
:1035EC00FB683A699A61FB687A691A6200BF1C37FA
:1035FC00BD4680BC704780B485B000AF7860396040
:10360C007B689B68FB60FB6823F07003FB603A6887
:10361C00FB68134343F00703FB607B68FA689A600E
:10362C0000BF1437BD4680BC704780B487B000AF74
:10363C00F860B9607A603B60FB689B687B617B6972
:10364C0023F47F437B613B681A027B681A43BB6897
:10365C0013437A6913437B61FB687A699A6000BFF4
:10366C001C37BD4680BC704780B485B000AF786015
:10367C0039607B6893F83C30012B01D1022341E087
:10368C007B68012283F83C207B68022283F83D2072
:10369C007B681B685B68FB607B681B689B68BB6016
:1036AC00FB6823F07003FB603B681B68FA681343EC
:1036BC00FB607B681B68FA685A607B681B68144A5D
:1036CC00934209D07B681B68B3F1804F04D07B68B0
:1036DC001B68104A93420CD1BB6823F08003BB607B
:1036EC003B685B68BA681343BB607B681B68BA684D
:1036FC009A607B68012283F83D207B68002283F866
:10370C003C20002318461437BD4680BC704700BFD0
:10371C00002C01400004004080B483B000AF7860FE
:10372C0000BF0C37BD4680BC704780B483B000AF7F
:10373C00786000BF0C37BD4680BC704770B5002662
:10374C000C4D0D4C641BA410A64209D100F022F8BC
:10375C0000260A4D0A4C641BA410A64205D170BD6C
:10376C0055F8043B98470136EEE755F8043B98476B
:10377C000136F2E7DC370008DC370008DC370008DC
:10378C00E037000803460244934200D1704703F827
:10379C00011BF9E7F8B500BFF8BC08BC9E467047A2
:0C37AC00F8B500BFF8BC08BC9E46704792
:1037B80000000000000000000102030406070809D9
:1037C80002030405060708090A0B0C0D0E0F10105A
:0437D80001020000EA
:0437DC0031010008AF
:0437E0000D010008CF
:1037E40000127A000A00000010000000010000002E
:0400000508002129A5
:00000001FF
