:020000040800F2
:1000000000280020291C0008F51A0008FB1A000827
:10001000011B0008071B00080D1B00080000000062
:10002000000000000000000000000000131B00089A
:100030001F1B0008000000002B1B0008371B0008D6
:10004000711C0008711C0008711C0008711C00085C
:10005000711C0008711C0008711C0008711C00084C
:10006000711C0008711C0008711C0008711C00083C
:10007000711C0008711C0008711C0008711C00082C
:10008000711C0008711C0008711C0008711C00081C
:10009000711C0008711C0008711C0008711C00080C
:1000A000711C0008711C0008711C0008711C0008FC
:1000B000451B0008711C000800000000711C0008AE
:1000C000711C00080000000000000000711C000806
:1000D00000000000711C0008711C000800000000F6
:1000E000711C0008711C0008711C00080000000051
:1000F0000000000000000000000000000000000000
:0C01000000000000000000005FF808F1A3
:10010C0010B5054C237833B9044B13B10448AFF345
:10011C0000800123237010BD0C00002000000000A3
:10012C00A032000808B5034B1BB103490348AFF3D9
:10013C00008008BD0000000010000020A032000864
:10014C0080B500AF334B9B68012B18D1324B1B6829
:10015C00013B314A1360304B1B68002B0ADC2F4BE0
:10016C001B682F4A82FB03125211DB17D31A01337F
:10017C00294A13604FF47A71022001F0EDFC254BF3
:10018C00DB68012B18D1274B1B68013B254A1360F8
:10019C00244B1B68002B0ADC204B5B68204A82FB3B
:1001AC0003125211DB17D31A01331E4A13604FF49A
:1001BC007A71032001F0D0FC164B5B69012B14D132
:1001CC00194B1B68184601F073F9174B1B68013368
:1001DC00154A1360144B1B68012B02DD124B0022D5
:1001EC001A606421052001F0B7FC0F4B1B68002B33
:1001FC0005D1094B1B68184600F0BEFD08E00A4B00
:10020C001B68012B04D1074B1B68184600F0B4FD8A
:10021C0000BF80BDE400002038000020BC0000209E
:10022C001F85EB513C0000202800002080B500AF5A
:10023C007F4B1B68013B0E2B00F2EA8001A252F8A7
:10024C0023F000BF8D020008BB0200082F0300083A
:10025C00590300081D0400081D0400081D040008B3
:10026C001D0400081D0400081D0400081D040008DE
:10027C001D04000883030008B1030008E70300080D
:10028C006B4B02221A6041F28831002001F064FCB1
:10029C000A21022001F060FC664B1B68664A82FB57
:1002AC0003125211DB17D31A644A1360BDE0644B7E
:1002BC001B68022B01D001F027F9624B1B68012B44
:1002CC0007D15B4B03221A6040F6B831002001F0D5
:1002DC0043FC00F0DDFA0346012B40F09B805A4BA7
:1002EC001B68092B40F096804FF48051574801F061
:1002FC00D4FF4F4B0D221A60554B1B684FF47A728A
:10030C0002FB03F31946002001F026FC494B1B6845
:10031C00494A82FB03125211DB17D31A474A136066
:10032C0078E0474B1B68032B01D001F019F9454BC2
:10033C001B68012B70D101F097F93D4B04221A6018
:10034C004FF4FA61002001F007FC65E03C4B1B68A0
:10035C00042B01D001F0EEF83A4B1B68012B5DD158
:10036C0001F082F9324B02221A6041F288310020EE
:10037C0001F0F2FB52E0334B1B68012B50D12C4B9C
:10038C0003221A6040F6B831002001F0E5FB294B3E
:10039C001B68294A82FB03125211DB17D31A274A16
:1003AC0013603DE0274B1B68012B3BD1204B0422F3
:1003BC001A604FF4FA61002001F0CEFB0A210220F2
:1003CC0001F0CAFB1B4B1B681B4A82FB0312521128
:1003DC00DB17D31A194A136024E01A4B1B68012B44
:1003EC0022D1134B02221A6041F28831002001F015
:1003FC00B3FB0A21022001F0AFFB0E4B1B680E4A27
:10040C0082FB03125211DB17D31A0C4A13600BE058
:10041C0000BF0AE000BF08E000BF06E000BF04E038
:10042C0000BF02E000BF00E000BF00BF80BD00BF06
:10043C002C000020BC0000201F85EB513800002050
:10044C0044000020E400002034000020000C014097
:10045C004800002080B500AF2F4B1B68053B032BD9
:10046C0050D801A252F823F085040008B704000804
:10047C00D5040008F304000801F0B4F8264B072259
:10048C001A6040F6B831012001F066FB0A21032006
:10049C0001F062FB214B5B68214A82FB0312521173
:1004AC00DB17D31A1F4A136033E001F06FF81E4BB1
:1004BC005B68012B28D1184B07221A6040F6B83123
:1004CC00012001F049FB1FE001F08CF8164B5B6832
:1004DC00012B1BD1104B08221A604FF4FA6101203A
:1004EC0001F03AFB12E001F067F80F4B5B68012B4F
:1004FC000ED1094B06221A6041F28831012001F01D
:10050C002BFB05E000BF04E000BF02E000BF00E0F1
:10051C0000BF00BF80BD00BF30000020BC00002029
:10052C001F85EB513C000020E400002080B500AF9B
:10053C00354B1B68093B032B5AD801A252F823F008
:10054C0077050008A7050008D70500085D05000819
:10055C002E4B1B68022B4DD12B4B09221A604FF4EA
:10056C00FA71042001F0F8FA44E0294B1B69012BC5
:10057C0006D101F04DF84FF4FA71042001F0ECFAB9
:10058C00224B1B68032B37D11F4B0A221A604FF4E6
:10059C00FA71042001F0E0FA2EE01D4B1B69012BCF
:1005AC0006D14FF4FA71042001F0D6FA01F03EF8AE
:1005BC00164B1B68042B21D1134B0B221A604FF4E2
:1005CC00FA71042001F0C8FA18E0114B1B69012BD9
:1005DC0006D14FF4FA71042001F0BEFA01F036F89E
:1005EC000A4B1B68012B0BD1074B0C221A6007E03E
:1005FC0000BF06E000BF04E000BF02E000BF00E067
:10060C0000BF00BF80BD00BF3400002044000020AC
:10061C00E400002080B500AF274B1B78022B3AD0AA
:10062C00022B47DC002B02D0012B20D042E0002013
:10063C0000F0E8F90346002B37D01F4B01221A704B
:10064C0000F0EAF80346012B0BD11C4B1B6801335D
:10065C001A4A1360194B1B68042B02DD174B01223D
:10066C001A60164B1B68184600F000FA1DE00020BB
:10067C0000F0C8F90346002B03D10F4B00221A706F
:10068C0015E0002000F0D8F90346012B0FD10A4BDE
:10069C0002221A700BE0002000F0B4F90346002B84
:1006AC0007D1054B00221A7003E000BF02E000BF27
:1006BC0000E000BF00BF80BD4000002044000020CF
:1006CC0080B500AF274B1B78022B3AD0022B47DCAE
:1006DC00002B02D0012B20D042E0012000F092F937
:1006EC000346002B37D01F4B01221A7000F0B2F8D2
:1006FC000346012B0BD11C4B1B6801331A4A1360A8
:10070C00194B1B68092B02DD174B00221A60164B84
:10071C001B68184600F0F6FC1DE0012000F072F991
:10072C000346002B03D10F4B00221A7015E0012059
:10073C0000F082F90346012B0FD10A4B02221A70EA
:10074C000BE0012000F05EF90346002B07D1054BAE
:10075C0000221A7003E000BF02E000BF00E000BFFF
:10076C0000BF80BD410000204800002080B500AFD4
:10077C00214B1B78022B2ED0022B3BDC002B02D002
:10078C00012B14D036E0022000F03CF90346002B7C
:10079C002BD0194B01221A7000F07AF80346012B6A
:1007AC0023D14FF48051154801F077FD1DE0022054
:1007BC0000F028F90346002B03D10F4B00221A70CE
:1007CC0015E0022000F038F90346012B0FD10A4B3B
:1007DC0002221A700BE0022000F014F90346002BE1
:1007EC0007D1054B00221A7003E000BF02E000BFE6
:1007FC0000E000BF00BF80BD42000020000C0140A3
:10080C0080B400AF034B01221A6000BFBD4680BC10
:10081C00704700BF6800002080B400AF064B1B6817
:10082C00012B04D1044B00221A60012300E00023A9
:10083C001846BD4680BC70476800002080B400AFED
:10084C00034B01221A6000BFBD4680BC704700BF3D
:10085C006C00002080B400AF064B1B68012B04D148
:10086C00044B00221A60012300E000231846BD4609
:10087C0080BC70476C00002080B400AF034B012299
:10088C001A6000BFBD4680BC704700BF70000020DE
:10089C0080B400AF064B1B68012B04D1044B002223
:1008AC001A60012300E000231846BD4680BC704747
:1008BC007000002080B582B000AF0023FB718BE08C
:1008CC00FA79FB794949895C494AD154FB79002B67
:1008DC0008D10121474801F0B1FC03461A46434BAD
:1008EC001A7016E0FB79012B08D10221414801F066
:1008FC00A5FC03461A463D4B5A700AE0FB79022BC5
:10090C0007D104213B4801F099FC03461A46374BAA
:10091C009A70FB79354AD25CFB793549CB5C9A42AB
:10092C004ED1FA79FB793149895C334AD154FB7940
:10093C00314AD35C002B4CD1FB79002B02D1FFF751
:10094C005FFF0AE0FB79012B02D1FFF777FF04E090
:10095C00FB79022B01D1FFF78FFFFB79274A32F885
:10096C001330632B0ED8FB79254AD35C002B09D1AD
:10097C00FB79224A32F81320013291B21F4A22F835
:10098C00131026E0FB791E4A0121D154FB791B4A36
:10099C0032F81330952B09D8FB79184A32F813200A
:1009AC00013291B2154A22F8131012E0FB79124A67
:1009BC000121D154FB79114A642122F8131008E06B
:1009CC00FB790E4A002122F81310FB790C4A002106
:1009DC00D154FB790133FB71FB79022B7FF670AF9D
:1009EC0000BF00BF0837BD4680BD00BF54000020CB
:1009FC0058000020000C0140500000206000002036
:100A0C005C00002080B483B000AF0346FB71FB791F
:100A1C00022B01D9002307E0FB79064AD35C002B9B
:100A2C000CBF01230023DBB218460C37BD4680BC3B
:100A3C00704700BF5000002080B483B000AF034665
:100A4C00FB71FB79022B01D9FF2307E0FB79064AE6
:100A5C00D35C012B0CBF01230023DBB218460C37EF
:100A6C00BD4680BC704700BF5C00002080B582B0E2
:100A7C0000AF78607B68002B22D100220121BD4899
:100A8C0001F0F3FB00220221BA4801F0EEFB002238
:100A9C000421B84801F0E9FB00220821B54801F017
:100AAC00E4FB00221021B34801F0DFFB00222021DF
:100ABC00B04801F0DAFB01224021AE4801F0D5FB31
:100ACC007B68012B22D101220121AA4801F0CDFB28
:100ADC0000220221A74801F0C8FB00220421A548EE
:100AEC0001F0C3FB01220821A24801F0BEFB012248
:100AFC001021A04801F0B9FB012220219D4801F0F2
:100B0C00B4FB012240219B4801F0AFFB7B68022B18
:100B1C0022D100220121974801F0A7FB00220221DB
:100B2C00944801F0A2FB01220421924801F09DFBA4
:100B3C00002208218F4801F098FB002210218D48DB
:100B4C0001F093FB012220218A4801F08EFB002248
:100B5C004021884801F089FB7B68032B22D10022BD
:100B6C000121844801F081FB00220221814801F01F
:100B7C007CFB002204217F4801F077FB0022082136
:100B8C007C4801F072FB012210217A4801F06DFBC8
:100B9C0001222021774801F068FB00224021754892
:100BAC0001F063FB7B68042B22D1012201217148E7
:100BBC0001F05BFB002202216E4801F056FB002283
:100BCC0004216C4801F051FB01220821694801F015
:100BDC004CFB01221021674801F047FB0022202129
:100BEC00644801F042FB00224021624801F03DFBC9
:100BFC007B68052B22D1002201215E4801F035FBD8
:100C0C00012202215B4801F030FB002204215948EB
:100C1C0001F02BFB00220821564801F026FB012293
:100C2C001021544801F021FB00222021514801F0F1
:100C3C001CFB002240214F4801F017FB7B68062B60
:100C4C0022D1002201214B4801F00FFB012202218D
:100C5C00484801F00AFB00220421464801F005FB3C
:100C6C0000220821434801F000FB002210214148DA
:100C7C0001F0FBFA002220213E4801F0F6FA002296
:100C8C0040213C4801F0F1FA7B68072B22D100226D
:100C9C000121384801F0E9FA00220221354801F01F
:100CAC00E4FA00220421334801F0DFFA0122082182
:100CBC00304801F0DAFA012210212E4801F0D5FA61
:100CCC00012220212B4801F0D0FA01224021294891
:100CDC0001F0CBFA7B68082B22D100220121254898
:100CEC0001F0C3FA00220221224801F0BEFA0022D0
:100CFC000421204801F0B9FA002208211D4801F016
:100D0C00B4FA002210211B4801F0AFFA0022202176
:100D1C00184801F0AAFA00224021164801F0A5FA61
:100D2C007B68092B22D100220121124801F09DFA87
:100D3C00002202210F4801F098FA002204210D48EC
:100D4C0001F093FA002208210A4801F08EFA0122E0
:100D5C001021084801F089FA00222021054801F0F1
:100D6C0084FA00224021034801F07FFA00BF0837C3
:100D7C00BD4680BD0008014080B582B000AF7860F0
:100D8C007B68002B28D100228021D24801F06DFA1B
:100D9C0000224FF48071CF4801F067FA00224FF423
:100DAC000071CC4801F061FA00224FF48061C9480F
:100DBC0001F05BFA00224FF40061C64801F055FACD
:100DCC0000224FF48051C34801F04FFA01224FF436
:100DDC000051C04801F049FA7B68012B28D101224F
:100DEC008021BC4801F041FA00224FF48071B948CF
:100DFC0001F03BFA00224FF40071B64801F035FACD
:100E0C0001224FF48061B34801F02FFA01224FF414
:100E1C000061B04801F029FA01224FF48051AD482D
:100E2C0001F023FA01224FF40051AA4801F01DFAF7
:100E3C007B68022B28D100228021A64801F015FAEC
:100E4C0000224FF48071A34801F00FFA01224FF4F5
:100E5C000071A04801F009FA00224FF480619D480E
:100E6C0001F003FA00224FF400619A4801F0FDF9F9
:100E7C0001224FF48051974801F0F7F900224FF40A
:100E8C000051944801F0F1F97B68032B28D1002222
:100E9C008021904801F0E9F900224FF480718D48CF
:100EAC0001F0E3F900224FF400718A4801F0DDF9FA
:100EBC0000224FF48061874801F0D7F901224FF4EA
:100ECC000061844801F0D1F901224FF4805181482E
:100EDC0001F0CBF900224FF400517E4801F0C5F926
:100EEC007B68042B28D1012280217A4801F0BDF9BE
:100EFC0000224FF48071774801F0B7F900224FF4CB
:100F0C000071744801F0B1F901224FF4806171480D
:100F1C0001F0ABF901224FF400616E4801F0A5F924
:100F2C0000224FF480516B4801F09FF900224FF4DE
:100F3C000051684801F099F97B68052B28D10022F3
:100F4C008021644801F091F901224FF480716148CD
:100F5C0001F08BF900224FF400715E4801F085F925
:100F6C0000224FF480615B4801F07FF901224FF4BD
:100F7C000061584801F079F900224FF4805155482E
:100F8C0001F073F900224FF40051524801F06DF951
:100F9C007B68062B28D1002280214E4801F065F990
:100FAC0001224FF480714B4801F05FF900224FF49D
:100FBC000071484801F059F900224FF4806145480E
:100FCC0001F053F900224FF40061424801F04DF951
:100FDC0000224FF480513F4801F047F900224FF4B2
:100FEC0000513C4801F041F97B68072B28D10022C5
:100FFC008021384801F039F900224FF480713548CE
:10100C0001F033F900224FF40071324801F02DF950
:10101C0001224FF480612F4801F027F901224FF48F
:10102C0000612C4801F021F901224FF4805129482C
:10103C0001F01BF901224FF40051264801F015F97B
:10104C007B68082B28D100228021224801F00DF961
:10105C0000224FF480711F4801F007F900224FF471
:10106C0000711C4801F001F900224FF4806119480D
:10107C0001F0FBF800224FF40061164801F0F5F87E
:10108C0000224FF48051134801F0EFF800224FF486
:10109C000051104801F0E9F87B68092B2BD1002294
:1010AC0080210C4801F0E1F800224FF480710948CE
:1010BC0001F0DBF800224FF40071064801F0D5F87E
:1010CC0000224FF48061034801F0CFF801224FF465
:1010DC00006101E000080140094801F0C6F8002257
:1010EC004FF48051064801F0C0F800224FF4005133
:1010FC00034801F0BAF800BF0837BD4680BD00BFF9
:10110C000008014080B582B000AF78607B68002B8E
:10111C0029D100224FF40051D34801F0A6F8002247
:10112C004FF48041D04801F0A0F800224FF4004168
:10113C00CD4801F09AF800224FF40041CB4801F061
:10114C0094F800224FF48041C84801F08EF8002238
:10115C004FF48041C64801F088F801224FF4004159
:10116C00C34801F082F87B68012B29D101224FF48E
:10117C000051BD4801F079F800224FF48041BA4883
:10118C0001F073F800224FF40041B74801F06DF8FC
:10119C0001224FF40041B54801F067F801224FF4E9
:1011AC008041B24801F061F801224FF48041B0480F
:1011BC0001F05BF801224FF40041AD4801F055F805
:1011CC007B68022B29D100224FF40051A64801F074
:1011DC004CF800224FF48041A34801F046F801225C
:1011EC004FF40041A04801F040F800224FF40041B8
:1011FC009E4801F03AF800224FF480419B4801F0E0
:10120C0034F801224FF48041994801F02EF8002265
:10121C004FF40041964801F028F87B68032B29D144
:10122C0000224FF40051904801F01FF800224FF4B7
:10123C0080418D4801F019F800224FF400418A4892
:10124C0001F013F801224FF40041884801F00DF829
:10125C0000224FF48041854801F007F801224FF439
:10126C008041834801F001F800224FF4004180488E
:10127C0000F0FBFF7B68042B29D101224FF40051B5
:10128C00794800F0F2FF00224FF48041764800F0DC
:10129C00ECFF00224FF40041734800F0E6FF0122FE
:1012AC004FF40041714800F0E0FF01224FF48041FF
:1012BC006E4800F0DAFF00224FF480416C4800F0D9
:1012CC00D4FF00224FF40041694800F0CEFF7B6848
:1012DC00052B29D100224FF40051634800F0C5FFC3
:1012EC0001224FF48041604800F0BFFF00224FF410
:1012FC0000415D4800F0B9FF01224FF400415B480A
:10130C0000F0B3FF00224FF48041584800F0ADFFCD
:10131C0000224FF48041564800F0A7FF00224FF402
:10132C000041534800F0A1FF7B68062B29D1002215
:10133C004FF400514C4800F098FF01224FF48041CB
:10134C00494800F092FF00224FF40041464800F05B
:10135C008CFF00224FF40041444800F086FF00222D
:10136C004FF48041414800F080FF00224FF480414F
:10137C003F4800F07AFF00224FF400413C4800F057
:10138C0074FF7B68072B29D100224FF4005136489B
:10139C0000F06BFF00224FF48041334800F065FFF2
:1013AC0000224FF40041304800F05FFF01224FF45F
:1013BC0000412E4800F059FF01224FF480412B4888
:1013CC0000F053FF01224FF48041294800F04DFFFB
:1013DC0001224FF40041264800F047FF7B68082BA0
:1013EC0029D100224FF400511F4800F03EFF00228B
:1013FC004FF480411C4800F038FF00224FF40041AC
:10140C00194800F032FF00224FF40041174800F059
:10141C002CFF00224FF48041144800F026FF0022DC
:10142C004FF48041124800F020FF00224FF400419D
:10143C000F4800F01AFF7B68092B30D100224FF4C3
:10144C000051094800F011FF00224FF4804106487A
:10145C0000F00BFF00224FF40041034800F005FFA1
:10146C0001224FF4004105E000100140000C014046
:10147C00000801400C4800F0F8FE00224FF48041B7
:10148C00094800F0F2FE00224FF48041074800F0BA
:10149C00ECFE00224FF40041044800F0E6FE00BFD1
:1014AC000837BD4680BD00BF000C0140000801405C
:1014BC0080B582B000AF78607B68002B03D07B686E
:1014CC00012B0DD019E000224FF400710D4800F0F3
:1014DC00CCFE01224FF480610A4800F0C6FE0CE0FD
:1014EC0001224FF40071074800F0BFFE00224FF4B8
:1014FC008061044800F0B9FE00BF00BF0837BD464C
:10150C0080BD00BF000C014080B500AF0122082156
:10151C00074800F0AAFE00222021054800F0A5FE95
:10152C0000221021024800F0A0FE00BF80BD00BFC9
:10153C00000C014080B500AF00220821074800F0E4
:10154C0094FE00222021054800F08FFE012210217C
:10155C00024800F08AFE00BF80BD00BF000C0140B5
:10156C0080B500AF00220821074800F07EFE012262
:10157C002021054800F079FE00221021024800F0DD
:10158C0074FE00BF80BD00BF000C014080B500AFF1
:10159C0001224021074800F068FE00224FF48071C0
:1015AC00044800F062FE00228021024800F05DFE3B
:1015BC0000BF80BD000C014080B500AF002240216F
:1015CC00074800F052FE00224FF48071044800F0EE
:1015DC004CFE01228021024800F047FE00BF80BD76
:1015EC00000C014080B500AF00224021074800F0FC
:1015FC003CFE01224FF48071044800F036FE0022BC
:10160C008021024800F031FE00BF80BD000C01407B
:10161C0080B500AF4021044800F03FFE082102488D
:10162C0000F03BFE00BF80BD000C014080B500AF58
:10163C002021054800F031FE4FF48071024800F083
:10164C002CFE00BF80BD00BF000C014080B500AF78
:10165C008021044800F021FE1021024800F01DFEFC
:10166C0000BF80BD000C014080B500AF00220821F6
:10167C000F4800F0FAFD002220210D4800F0F5FD86
:10168C00002210210A4800F0F0FD002240210848F9
:10169C0000F0EBFD00224FF48071054800F0E5FDF1
:1016AC0000228021024800F0E0FD00BF80BD00BF99
:1016BC00000C014080B500AF00F0D6FA00F0AAF89B
:1016CC0000F030F900F0E2F8484801F02BFA012262
:1016DC008021474800F0C9FD01224FF48071444835
:1016EC0000F0C3FD01224FF40071414800F0BDFD34
:1016FC0001224FF480613E4800F0B7FD01224FF407
:10170C0000613B4800F0B1FD01224FF48051384894
:10171C0000F0ABFD01224FF40051354800F0A5FD5F
:10172C0001224FF40051334800F09FFD01224FF489
:10173C008041304800F099FD01224FF400412D48C2
:10174C0000F093FD01224FF400412B4800F08DFD79
:10175C0001224FF48041284800F087FD01224FF40C
:10176C008041234800F081FD01224FF400412048C4
:10177C0000F07BFD01224FF400711F4800F075FD55
:10178C0001224FF480611C4800F06FFD01224FF4E0
:10179C000061194800F069FD184B01221A60184BC2
:1017AC0005221A60174B01221A60174B00221A608F
:1017BC00164B0C221A600A21052000F0CDF94FF4CB
:1017CC00FA71042000F0C8F9114B00221A60FEF7E0
:1017DC002DFDFEF73FFEFEF7B3FCFEF7A7FEFEF76E
:1017EC0019FFFEF76DFFFEF7C1FFF0E77400002054
:1017FC000008014000100140000C01402C000020AA
:10180C00300000204400002048000020340000205C
:10181C004C00002080B590B000AF07F118032822CF
:10182C000021184601F02EFD3B1D00221A605A6063
:10183C009A60DA601A610223BB610123BB62102338
:10184C00FB6200237B6307F11803184600F03EFD92
:10185C000346002B01D000F0EBF80F237B60002334
:10186C00BB600023FB6000233B6100237B613B1DBD
:10187C000021184600F0AAFF0346002B01D000F00F
:10188C00D7F800BF4037BD4680BD000080B586B09C
:10189C0000AF07F1080300221A605A609A60DA6000
:1018AC003B4600221A605A601D4B4FF080421A6072
:1018BC001B4B41F63F725A60194B00229A60184B31
:1018CC000922DA60164B00221A61154B00229A612C
:1018DC00134801F0D7F80346002B01D000F0A8F80C
:1018EC004FF48053BB6007F1080319460C4801F014
:1018FC0055FA0346002B01D000F09AF800233B6008
:10190C0000237B603B461946054801F02DFC03463D
:10191C00002B01D000F08CF800BF1837BD4680BDFD
:10192C007400002080B588B000AF07F110030022CE
:10193C001A605A609A60DA60394B9B69384A43F0F6
:10194C0010039361364B9B6903F01003FB60FB683B
:10195C00334B9B69324A43F004039361304B9B69D0
:10196C0003F00403BB60BB682D4B9B692C4A43F00E
:10197C00080393612A4B9B6903F008037B607B6827
:10198C0000224FF46041274800F06FFC00224FF614
:10199C00FF71254800F069FC00224DF6F8712348D0
:1019AC0000F063FC4FF460433B6101237B61002337
:1019BC00BB610223FB6107F110031946194800F0C3
:1019CC00C3FA4FF6FF733B6101237B610023BB61BC
:1019DC000223FB6107F110031946134800F0B4FA17
:1019EC0007233B6100237B610123BB6107F11003DB
:1019FC0019460E4800F0A8FA4DF6F8733B61012326
:101A0C007B610023BB610223FB6107F110031946C4
:101A1C00064800F099FA00BF2037BD4680BD00BFD4
:101A2C00001002400010014000080140000C014071
:101A3C0080B400AF72B600BFFEE7000080B485B082
:101A4C0000AF154B9B69144A43F001039361124B91
:101A5C009B6903F00103BB60BB680F4BDB690E4A4B
:101A6C0043F08053D3610C4BDB6903F080537B60F4
:101A7C007B680A4B5B68FB60FB6823F0E063FB60F0
:101A8C00FB6843F08063FB60044AFB68536000BF53
:101A9C001437BD4680BC7047001002400000014066
:101AAC0080B584B000AF78607B681B68B3F1804F61
:101ABC0013D10C4BDB690B4A43F00103D361094B87
:101ACC00DB6903F00103FB60FB68002200211C2092
:101ADC0000F003FA1C2000F01CFA00BF1037BD46C2
:101AEC0080BD00BF0010024080B400AFFEE780B4A0
:101AFC0000AFFEE780B400AFFEE780B400AFFEE7B6
:101B0C0080B400AFFEE780B400AF00BFBD4680BC20
:101B1C00704780B400AF00BFBD4680BC704780B436
:101B2C0000AF00BFBD4680BC704780B500AF00F071
:101B3C00E1F800BF80BD000080B500AF024801F0A5
:101B4C003DF800BF80BD00BF7400002080B400AF22
:101B5C0000BFBD4680BC704780B483B000AF7860D6
:101B6C0039603B68094A82FB03129210DB17D21AC8
:101B7C0007497B6841F82320064A7B68002142F81C
:101B8C00231000BF0C37BD4680BC70476766666685
:101B9C00BC000020E400002080B483B000AF002320
:101BAC007B601CE0124A7B6852F82330002B13DD5B
:101BBC000F4A7B6852F823305A1E0D497B6841F856
:101BCC0023200B4A7B6852F82330002B04DC094A93
:101BDC007B68012142F823107B6801337B607B68B2
:101BEC00092BDFDD00BF00BF0C37BD4680BC704742
:101BFC00BC000020E400002080B582B000AF78600B
:101C0C007B681B68B3F1804F03D1FEF753FEFFF7DF
:101C1C00C3FF00BF0837BD4680BD0000FFF796FF2D
:101C2C000B480C490C4A002302E0D458C45004332E
:101C3C00C4188C42F9D3094A094C002301E0136003
:101C4C000432A242FBD301F0F9FAFFF733FD7047DF
:101C5C00000000200C000020E43200080C000020E2
:101C6C0010010020FEE7000080B500AF084B1B6898
:101C7C00074A43F010031360032000F023F90F20F0
:101C8C0000F008F8FFF7DAFE0023184680BD00BF0D
:101C9C000020024080B582B000AF7860124B1A6809
:101CAC00124B1B7819464FF47A73B3FBF1F3B2FB6A
:101CBC00F3F3184600F03BF90346002B01D0012347
:101CCC000EE07B680F2B0AD8002279684FF0FF30AA
:101CDC0000F003F9064A7B681360002300E001233F
:101CEC0018460837BD4680BD0000002008000020C3
:101CFC000400002080B400AF054B1B781A46054B3E
:101D0C001B681344034A136000BFBD4680BC704778
:101D1C00080000200C01002080B400AF024B1B68AF
:101D2C001846BD4680BC70470C01002080B485B0BD
:101D3C0000AF78607B6803F00703FB600C4BDB683B
:101D4C00BB60BA684FF6FF031340BB60FB681A0216
:101D5C00BB68134343F0BF6343F40033BB60044AD6
:101D6C00BB68D36000BF1437BD4680BC704700BF52
:101D7C0000ED00E080B400AF044BDB681B0A03F0FD
:101D8C0007031846BD4680BC704700BF00ED00E05D
:101D9C0080B483B000AF0346FB7197F90730002B7A
:101DAC000BDBFB7903F01F02064997F907305B093F
:101DBC00012000FA02F241F8232000BF0C37BD4687
:101DCC0080BC704700E100E080B483B000AF0346F4
:101DDC003960FB7197F90730002B0ADB3B68DAB2EC
:101DEC000C4997F907301201D2B20B4483F8002347
:101DFC000AE03B68DAB20849FB7903F00F03043BB5
:101E0C001201D2B20B441A7600BF0C37BD4680BC0F
:101E1C00704700BF00E100E000ED00E080B489B045
:101E2C0000AFF860B9607A60FB6803F00703FB61F0
:101E3C00FB69C3F10703042B28BF0423BB61FB69B7
:101E4C000433062B02D9FB69033B00E000237B61C2
:101E5C004FF0FF32BB6902FA03F3DA43BB681A4056
:101E6C007B699A404FF0FF317B6901FA03F3D94348
:101E7C007B680B40134318462437BD4680BC704723
:101E8C0080B582B000AF78607B68013BB3F1807F96
:101E9C0001D301230FE00A4A7B68013B53600F21F9
:101EAC004FF0FF30FFF790FF054B00229A60044B78
:101EBC0007221A60002318460837BD4680BD00BFB4
:101ECC0010E000E080B582B000AF78607868FFF772
:101EDC002DFF00BF0837BD4680BD80B586B000AF72
:101EEC000346B9607A60FB7300237B61FFF742FF06
:101EFC0078617A68B9687869FFF790FF024697F9BC
:101F0C000F3011461846FFF75FFF00BF1837BD466C
:101F1C0080BD80B582B000AF0346FB7197F90730E6
:101F2C001846FFF735FF00BF0837BD4680BD80B5AA
:101F3C0082B000AF78607868FFF7A2FF03461846BE
:101F4C000837BD4680BD000080B48BB000AF786010
:101F5C00396000237B6200233B6248E101227B6AEB
:101F6C0002FA03F3FB613B681B68FA691340BB611F
:101F7C00BA69FB699A4240F037813B685B68A34AB7
:101F8C0093425ED0A14A934275D8A14A934258D04D
:101F9C009F4A93426FD89F4A934252D09D4A934294
:101FAC0069D89D4A93424CD09B4A934263D89B4A32
:101FBC00934246D0994A93425DD8122B2AD8122BC1
:101FCC0059D801A252F823F04F200008292000080C
:101FDC003B2000087D200008832000088320000897
:101FEC008320000883200008832000088320000839
:101FFC008320000883200008832000088320000829
:10200C00832000088320000883200008312000086A
:10201C0045200008824A934213D02CE03B68DB68D1
:10202C003B6229E03B68DB6804333B6224E03B689D
:10203C00DB6808333B621FE03B68DB680C333B62B8
:10204C001AE03B689B68002B02D104233B6213E02F
:10205C003B689B68012B05D108233B627B68FA69BE
:10206C001A6109E008233B627B68FA695A6103E054
:10207C0000233B6200E000BFBB69FF2B01D87B68EB
:10208C0001E07B6804337B61BB69FF2B02D87B6A60
:10209C009B0002E07B6A083B9B003B617B691A68F2
:1020AC000F213B6901FA03F3DB431A40396A3B69A0
:1020BC0001FA03F31A437B691A603B685B6803F00F
:1020CC008053002B00F09080564B9B69554A43F08F
:1020DC0001039361534B9B6903F00103BB60BB6825
:1020EC00514A7B6A9B08023352F82330FB607B6AAF
:1020FC0003F003039B000F2202FA03F3DB43FA689D
:10210C001340FB607B68494A93420DD07B68484A78
:10211C00934207D07B68474A934201D1022304E0E3
:10212C00032302E0012300E000237A6A02F0030299
:10213C0092009340FA681343FB603B497B6A9B080F
:10214C000233FA6841F823203B685B6803F4801380
:10215C00002B06D0384B9A683749BB6913438B6008
:10216C0006E0354B9A68BB69DB43334913408B60FF
:10217C003B685B6803F40013002B06D02E4BDA6827
:10218C002D49BB691343CB6006E02B4BDA68BB6966
:10219C00DB4329491340CB603B685B6803F4003395
:1021AC00002B06D0244B5A682349BB6913434B6060
:1021BC0006E0214B5A68BB69DB431F4913404B6057
:1021CC003B685B6803F48033002B06D01A4B1A680B
:1021DC001949BB6913430B6006E0174B1A68BB69BE
:1021EC00DB43154913400B607B6A01337B623B6810
:1021FC001A687B6A22FA03F3002B7FF4AFAE00BFA0
:10220C0000BF2C37BD4680BC704700BF00003210A9
:10221C0000003110000022100000211000001210EC
:10222C0000001110001002400000014000080140A5
:10223C00000C0140001001400004014080B485B046
:10224C0000AF78600B467B807B689A687B88134074
:10225C00002B02D00123FB7301E00023FB73FB7BFB
:10226C0018461437BD4680BC704780B483B000AFAD
:10227C0078600B467B8013467B707B78002B03D0F9
:10228C007A887B681A6103E07B881A047B681A6180
:10229C0000BF0C37BD4680BC704780B485B000AF22
:1022AC0078600B467B807B68DB68FB607A88FB6818
:1022BC0013401A04FB68D9437B880B401A437B6894
:1022CC001A6100BF1437BD4680BC704780B586B01C
:1022DC0000AF78607B68002B01D101236CE27B6836
:1022EC001B6803F00103002B00F08780924B5B68A6
:1022FC0003F00C03042B0CD08F4B5B6803F00C0326
:10230C00082B12D18C4B5B6803F48033B3F5803F00
:10231C000BD1894B1B6803F40033002B6CD07B680A
:10232C005B68002B68D1012346E27B685B68B3F5E0
:10233C00803F06D1804B1B687F4A43F48033136087
:10234C002EE07B685B68002B0CD17B4B1B687A4AB8
:10235C0023F480331360784B1B68774A23F4802373
:10236C0013601DE07B685B68B3F5A02F0CD1724B3A
:10237C001B68714A43F4802313606F4B1B686E4AD1
:10238C0043F4803313600BE06B4B1B686A4A23F4F5
:10239C0080331360684B1B68674A23F480231360F7
:1023AC007B685B68002B13D0FFF7B6FC386108E044
:1023BC00FFF7B2FC02463B69D31A642B01D9032305
:1023CC00FAE15D4B1B6803F40033002BF0D014E0F2
:1023DC00FFF7A2FC386108E0FFF79EFC02463B6960
:1023EC00D31A642B01D90323E6E1534B1B6803F486
:1023FC000033002BF0D100E000BF7B681B6803F0BA
:10240C000203002B63D04C4B5B6803F00C03002BD6
:10241C000BD0494B5B6803F00C03082B1CD1464BCB
:10242C005B6803F48033002B16D1434B1B6803F01D
:10243C000203002B05D07B681B69012B01D0012303
:10244C00BAE13D4B1B6823F0F8027B685B69DB004B
:10245C00394913430B603AE07B681B69002B20D091
:10246C00364B01221A60FFF757FC386108E0FFF782
:10247C0053FC02463B69D31A022B01D903239BE17F
:10248C002D4B1B6803F00203002BF0D02A4B1B686A
:10249C0023F0F8027B685B69DB00274913430B6070
:1024AC0015E0264B00221A60FFF736FC386108E075
:1024BC00FFF732FC02463B69D31A022B01D90323E6
:1024CC007AE11D4B1B6803F00203002BF0D17B68F3
:1024DC001B6803F00803002B3AD07B689B69002B28
:1024EC0019D0174B01221A60FFF716FC386108E06F
:1024FC00FFF712FC02463B69D31A022B01D90323C6
:10250C005AE10D4B5B6A03F00203002BF0D0012063
:10251C0000F09AFA1CE00A4B00221A60FFF7FCFB51
:10252C0038610FE0FFF7F8FB02463B69D31A022B28
:10253C0008D9032340E100BF0010024000004242D2
:10254C00800442429E4B5B6A03F00203002BE9D1EC
:10255C007B681B6803F00403002B00F0A6800023AB
:10256C00FB75974BDB6903F08053002B0DD1944B1B
:10257C00DB69934A43F08053D361914BDB6903F0E1
:10258C008053BB60BB680123FB758E4B1B6803F447
:10259C008073002B18D18B4B1B688A4A43F48073D1
:1025AC001360FFF7B9FB386108E0FFF7B5FB024693
:1025BC003B69D31A642B01D90323FDE0814B1B68C3
:1025CC0003F48073002BF0D07B68DB68012B06D101
:1025DC007B4B1B6A7A4A43F0010313622DE07B6844
:1025EC00DB68002B0CD1764B1B6A754A23F0010378
:1025FC001362734B1B6A724A23F0040313621CE0D0
:10260C007B68DB68052B0CD16D4B1B6A6C4A43F065
:10261C00040313626A4B1B6A694A43F00103136299
:10262C000BE0674B1B6A664A23F001031362644B91
:10263C001B6A634A23F0040313627B68DB68002B7C
:10264C0015D0FFF769FB38610AE0FFF765FB02461E
:10265C003B69D31A41F28832934201D90323ABE090
:10266C00574B1B6A03F00203002BEED014E0FFF76C
:10267C0053FB38610AE0FFF74FFB02463B69D31A64
:10268C0041F28832934201D9032395E04C4B1B6AEB
:10269C0003F00203002BEED1FB7D012B05D1484B3F
:1026AC00DB69474A23F08053D3617B68DB69002BDD
:1026BC0000F08180424B5B6803F00C03082B61D067
:1026CC007B68DB69022B46D13F4B00221A60FFF777
:1026DC0023FB386108E0FFF71FFB02463B69D31A66
:1026EC00022B01D9032367E0354B1B6803F0007301
:1026FC00002BF0D17B681B6AB3F5803F08D1304BBF
:10270C005B6823F400327B689B682D4913434B6054
:10271C002B4B5B6823F474127B68196A7B685B6AC9
:10272C000B43274913434B60274B01221A60FFF7D9
:10273C00F3FA386108E0FFF7EFFA02463B69D31A67
:10274C00022B01D9032337E01D4B1B6803F00073E8
:10275C00002BF0D02FE01C4B00221A60FFF7DCFAA4
:10276C00386108E0FFF7D8FA02463B69D31A022B0E
:10277C0001D9032320E0124B1B6803F00073002BDC
:10278C00F0D118E07B68DB69012B01D1012313E048
:10279C000B4B5B68FB60FB6803F480327B681B6A45
:1027AC009A4206D1FB6803F470127B685B6A9A420A
:1027BC0001D0012300E0002318461837BD4680BD28
:1027CC0000100240007000406000424280B584B0AE
:1027DC0000AF786039607B68002B01D10123D0E019
:1027EC006A4B1B6803F007033A689A4210D9674B8F
:1027FC001B6823F0070265493B6813430B60634B6E
:10280C001B6803F007033A689A4201D00123B8E031
:10281C007B681B6803F00203002B20D07B681B68CD
:10282C0003F00403002B05D0594B5B68584A43F462
:10283C00E06353607B681B6803F00803002B05D032
:10284C00534B5B68524A43F460535360504B5B6884
:10285C0023F0F0027B689B684D4913434B607B6807
:10286C001B6803F00103002B40D07B685B68012BD5
:10287C0007D1474B1B6803F40033002B15D1012300
:10288C007FE07B685B68022B07D1414B1B6803F030
:10289C000073002B09D1012373E03D4B1B6803F03F
:1028AC000203002B01D101236BE0394B5B6823F051
:1028BC0003027B685B68364913434B60FFF72CFAC5
:1028CC00F8600AE0FFF728FA0246FB68D31A41F2D7
:1028DC008832934201D9032353E02D4B5B6803F0FC
:1028EC000C027B685B689B009A42EBD1274B1B6800
:1028FC0003F007033A689A4210D2244B1B6823F06A
:10290C00070222493B6813430B60204B1B6803F002
:10291C0007033A689A4201D0012332E07B681B68B6
:10292C0003F00403002B08D0194B5B6823F4E0621E
:10293C007B68DB68164913434B607B681B6803F0AC
:10294C000803002B09D0124B5B6823F460527B68A0
:10295C001B69DB000E4913434B6000F021F8024663
:10296C000B4B5B681B0903F00F030A49CB5C22FA83
:10297C0003F3094A1360094B1B681846FFF78AF9E1
:10298C00002318461037BD4680BD00BF0020024012
:10299C0000100240B83200080000002004000020A3
:1029AC0080B487B000AF0023FB600023BB60002322
:1029BC007B6100237B6000233B611E4B5B68FB60EB
:1029CC00FB6803F00C03042B02D0082B03D027E088
:1029DC00194B3B6127E0FB689B0C03F00F03174A74
:1029EC00D35C7B60FB6803F48033002B10D0114B5D
:1029FC005B685B0C03F00103114AD35CBB607B6822
:102A0C000D4A02FB03F2BB68B2FBF3F37B6104E0FB
:102A1C007B680C4A02FB03F37B617B693B6102E040
:102A2C00054B3B6100BF3B6918461C37BD4680BC5B
:102A3C00704700BF0010024000127A00C832000834
:102A4C00D832000800093D0080B485B000AF786032
:102A5C000A4B1B680A4AA2FB03235B0A7A6802FB37
:102A6C0003F3FB6000BFFB685A1EFA60002BF9D120
:102A7C0000BF00BF1437BD4680BC7047000000206B
:102A8C00D34D621080B582B000AF78607B68002BAC
:102A9C0001D1012341E07B6893F83D30DBB2002B80
:102AAC0006D17B68002283F83C207868FEF7F8FF9B
:102ABC007B68022283F83D207B681A687B680433AC
:102ACC001946104600F056FA7B68012283F846201E
:102ADC007B68012283F83E207B68012283F83F202B
:102AEC007B68012283F840207B68012283F8412017
:102AFC007B68012283F842207B68012283F8432003
:102B0C007B68012283F844207B68012283F84520EE
:102B1C007B68012283F83D20002318460837BD4608
:102B2C0080BD000080B485B000AF78607B6893F8FE
:102B3C003D30DBB2012B01D0012335E07B68022252
:102B4C0083F83D207B681B68DA687B681B6842F061
:102B5C000102DA607B681B68164A934209D07B68D5
:102B6C001B68B3F1804F04D07B681B68124A9342F8
:102B7C0011D17B681B689B6803F00703FB60FB6843
:102B8C00062B10D07B681B681A687B681B6842F0A8
:102B9C0001021A6007E07B681B681A687B681B6877
:102BAC0042F001021A60002318461437BD4680BC5F
:102BBC00704700BF002C01400004004080B584B079
:102BCC0000AF78607B681B68DB68FB607B681B6808
:102BDC001B69BB60BB6803F00203002B20D0FB68B1
:102BEC0003F00203002B1BD07B681B686FF0020202
:102BFC001A617B6801221A777B681B689B6903F05A
:102C0C000303002B03D0786800F098F905E078688E
:102C1C0000F08BF9786800F09AF97B6800221A773B
:102C2C00BB6803F00403002B20D0FB6803F0040303
:102C3C00002B1BD07B681B686FF004021A617B6849
:102C4C0002221A777B681B689B6903F44073002B84
:102C5C0003D0786800F072F905E0786800F065F947
:102C6C00786800F074F97B6800221A77BB6803F06F
:102C7C000803002B20D0FB6803F00803002B1BD0AB
:102C8C007B681B686FF008021A617B6804221A7754
:102C9C007B681B68DB6903F00303002B03D07868A7
:102CAC0000F04CF905E0786800F03FF9786800F026
:102CBC004EF97B6800221A77BB6803F01003002BD7
:102CCC0020D0FB6803F01003002B1BD07B681B6823
:102CDC006FF010021A617B6808221A777B681B68F8
:102CEC00DB6903F44073002B03D0786800F026F9FD
:102CFC0005E0786800F019F9786800F028F97B682D
:102D0C0000221A77BB6803F00103002B0CD0FB6880
:102D1C0003F00103002B07D07B681B686FF00102E6
:102D2C001A617868FEF768FFBB6803F08003002B1C
:102D3C000CD0FB6803F08003002B07D07B681B686A
:102D4C006FF080021A61786800F06FFABB6803F0CC
:102D5C004003002B0CD0FB6803F04003002B07D082
:102D6C007B681B686FF040021A61786800F0F8F815
:102D7C00BB6803F02003002B0CD0FB6803F020038E
:102D8C00002B07D07B681B686FF020021A617868F3
:102D9C0000F042FA00BF1037BD4680BD80B584B04C
:102DAC0000AF786039600023FB737B6893F83C308C
:102DBC00012B01D10223B4E07B68012283F83C2073
:102DCC007B68022283F83D207B681B689B68BB6094
:102DDC00BB6823F07703BB60BB6823F47F43BB6005
:102DEC007B681B68BA689A603B681B68B3F5005F28
:102DFC003ED0B3F5005F00F28780B3F5805F00F042
:102E0C008680B3F5805F7FD8702B1AD0702B7BD85F
:102E1C00602B50D0602B77D8502B3CD0502B73D8D4
:102E2C00402B58D0402B6FD8302B64D0302B6BD824
:102E3C00202B60D0202B67D8002B5CD0102B5AD0C5
:102E4C0062E07B6818683B6899683B685A683B6825
:102E5C00DB6800F06AF97B681B689B68BB60BB6829
:102E6C0043F07703BB607B681B68BA689A604FE0DD
:102E7C007B6818683B6899683B685A683B68DB68F4
:102E8C0000F053F97B681B689A687B681B6842F4F6
:102E9C0080429A603CE07B6818683B6859683B68E4
:102EAC00DB681A4600F0CAF87B681B68502118468C
:102EBC0000F021F92CE07B6818683B6859683B6886
:102ECC00DB681A4600F0E8F87B681B68602118463E
:102EDC0000F011F91CE07B6818683B6859683B6886
:102EEC00DB681A4600F0AAF87B681B68402118467C
:102EFC0000F001F90CE07B681A683B681B68194606
:102F0C00104600F0F8F803E00123FB7300E000BF6B
:102F1C007B68012283F83D207B68002283F83C20EB
:102F2C00FB7B18461037BD4680BD80B483B000AF24
:102F3C00786000BF0C37BD4680BC704780B483B04E
:102F4C0000AF786000BF0C37BD4680BC704780B4C2
:102F5C0083B000AF786000BF0C37BD4680BC7047B3
:102F6C0080B483B000AF786000BF0C37BD4680BC26
:102F7C007047000080B485B000AF786039607B6822
:102F8C001B68FB607B682B4A934207D07B68B3F1CC
:102F9C00804F03D07B68284A934208D1FB6823F00A
:102FAC007003FB603B685B68FA681343FB607B68EB
:102FBC00204A934207D07B68B3F1804F03D07B68E3
:102FCC001D4A934208D1FB6823F44073FB603B68B5
:102FDC00DB68FA681343FB60FB6823F080023B68F4
:102FEC005B691343FB607B68FA681A603B689A68FC
:102FFC007B68DA623B681A687B689A627B680D4A68
:10300C00934203D13B681A697B681A637B6801227F
:10301C005A617B681B6903F00103002B05D07B68A8
:10302C001B6923F001027B681A6100BF1437BD468F
:10303C0080BC7047002C01400004004080B487B075
:10304C0000AFF860B9607A60FB681B6A7B61FB6853
:10305C001B6A23F00102FB681A62FB689B693B61E7
:10306C003B6923F0F0033B617B681B013A69134316
:10307C003B617B6923F00A037B617A69BB6813436C
:10308C007B61FB683A699A61FB687A691A6200BFD6
:10309C001C37BD4680BC704780B487B000AFF86069
:1030AC00B9607A60FB681B6A7B61FB681B6A23F062
:1030BC001002FB681A62FB689B693B613B6923F455
:1030CC0070433B617B681B033A6913433B617B692B
:1030DC0023F0A0037B61BB681B017A6913437B61FE
:1030EC00FB683A699A61FB687A691A6200BF1C37FF
:1030FC00BD4680BC704780B485B000AF7860396045
:10310C007B689B68FB60FB6823F07003FB603A688C
:10311C00FB68134343F00703FB607B68FA689A6013
:10312C0000BF1437BD4680BC704780B487B000AF79
:10313C00F860B9607A603B60FB689B687B617B6977
:10314C0023F47F437B613B681A027B681A43BB689C
:10315C0013437A6913437B61FB687A699A6000BFF9
:10316C001C37BD4680BC704780B485B000AF78601A
:10317C0039607B6893F83C30012B01D1022341E08C
:10318C007B68012283F83C207B68022283F83D2077
:10319C007B681B685B68FB607B681B689B68BB601B
:1031AC00FB6823F07003FB603B681B68FA681343F1
:1031BC00FB607B681B68FA685A607B681B68144A62
:1031CC00934209D07B681B68B3F1804F04D07B68B5
:1031DC001B68104A93420CD1BB6823F08003BB6080
:1031EC003B685B68BA681343BB607B681B68BA6852
:1031FC009A607B68012283F83D207B68002283F86B
:10320C003C20002318461437BD4680BC704700BFD5
:10321C00002C01400004004080B483B000AF786003
:10322C0000BF0C37BD4680BC704780B483B000AF84
:10323C00786000BF0C37BD4680BC704770B5002667
:10324C000C4D0D4C641BA410A64209D100F022F8C1
:10325C0000260A4D0A4C641BA410A64205D170BD71
:10326C0055F8043B98470136EEE755F8043B984770
:10327C000136F2E7DC320008DC320008DC320008F0
:10328C00E032000803460244934200D1704703F831
:10329C00011BF9E7F8B500BFF8BC08BC9E467047A7
:0C32AC00F8B500BFF8BC08BC9E46704797
:1032B80000000000000000000102030406070809DE
:1032C80002030405060708090A0B0C0D0E0F10105F
:0432D80001020000EF
:0432DC0031010008B4
:0432E0000D010008D4
:0C32E40000127A00100000000100000041
:0400000508001C29AA
:00000001FF
